{"contracts/Vault.sol":{"ETFVault":{"abi":[{"inputs":[{"internalType":"address","name":"_router","type":"address"}],"stateMutability":"nonpayable","type":"constructor"},{"inputs":[{"internalType":"address","name":"spender","type":"address"},{"internalType":"uint256","name":"allowance","type":"uint256"},{"internalType":"uint256","name":"needed","type":"uint256"}],"name":"ERC20InsufficientAllowance","type":"error"},{"inputs":[{"internalType":"address","name":"sender","type":"address"},{"internalType":"uint256","name":"balance","type":"uint256"},{"internalType":"uint256","name":"needed","type":"uint256"}],"name":"ERC20InsufficientBalance","type":"error"},{"inputs":[{"internalType":"address","name":"approver","type":"address"}],"name":"ERC20InvalidApprover","type":"error"},{"inputs":[{"internalType":"address","name":"receiver","type":"address"}],"name":"ERC20InvalidReceiver","type":"error"},{"inputs":[{"internalType":"address","name":"sender","type":"address"}],"name":"ERC20InvalidSender","type":"error"},{"inputs":[{"internalType":"address","name":"spender","type":"address"}],"name":"ERC20InvalidSpender","type":"error"},{"inputs":[{"internalType":"address","name":"owner","type":"address"}],"name":"OwnableInvalidOwner","type":"error"},{"inputs":[{"internalType":"address","name":"account","type":"address"}],"name":"OwnableUnauthorizedAccount","type":"error"},{"inputs":[],"name":"ReentrancyGuardReentrantCall","type":"error"},{"inputs":[{"internalType":"address","name":"token","type":"address"}],"name":"SafeERC20FailedOperation","type":"error"},{"anonymous":false,"inputs":[{"indexed":true,"internalType":"address","name":"owner","type":"address"},{"indexed":true,"internalType":"address","name":"spender","type":"address"},{"indexed":false,"internalType":"uint256","name":"value","type":"uint256"}],"name":"Approval","type":"event"},{"anonymous":false,"inputs":[{"indexed":true,"internalType":"address","name":"user","type":"address"},{"indexed":false,"internalType":"uint256","name":"usdcIn","type":"uint256"},{"indexed":false,"internalType":"uint256","name":"sharesOut","type":"uint256"}],"name":"Deposited","type":"event"},{"anonymous":false,"inputs":[{"indexed":true,"internalType":"address","name":"previousOwner","type":"address"},{"indexed":true,"internalType":"address","name":"newOwner","type":"address"}],"name":"OwnershipTransferred","type":"event"},{"anonymous":false,"inputs":[{"indexed":false,"internalType":"uint256","name":"newUsdc","type":"uint256"},{"indexed":false,"internalType":"uint256","name":"newWeth","type":"uint256"},{"indexed":false,"internalType":"uint256","name":"newWbtc","type":"uint256"}],"name":"Rebalanced","type":"event"},{"anonymous":false,"inputs":[{"indexed":true,"internalType":"address","name":"from","type":"address"},{"indexed":true,"internalType":"address","name":"to","type":"address"},{"indexed":false,"internalType":"uint256","name":"value","type":"uint256"}],"name":"Transfer","type":"event"},{"anonymous":false,"inputs":[{"indexed":true,"internalType":"address","name":"user","type":"address"},{"indexed":false,"internalType":"uint256","name":"sharesBurned","type":"uint256"},{"indexed":false,"internalType":"uint256","name":"usdcOut","type":"uint256"},{"indexed":false,"internalType":"uint256","name":"wethOut","type":"uint256"},{"indexed":false,"internalType":"uint256","name":"wbtcOut","type":"uint256"}],"name":"Withdrawn","type":"event"},{"anonymous":false,"inputs":[{"indexed":true,"internalType":"address","name":"user","type":"address"},{"indexed":false,"internalType":"uint256","name":"sharesBurned","type":"uint256"},{"indexed":false,"internalType":"uint256","name":"usdcOut","type":"uint256"}],"name":"WithdrawnUSDC","type":"event"},{"inputs":[],"name":"USDC","outputs":[{"internalType":"contract IERC20","name":"","type":"address"}],"stateMutability":"view","type":"function"},{"inputs":[],"name":"WBTC","outputs":[{"internalType":"contract IERC20","name":"","type":"address"}],"stateMutability":"view","type":"function"},{"inputs":[],"name":"WETH","outputs":[{"internalType":"contract IERC20","name":"","type":"address"}],"stateMutability":"view","type":"function"},{"inputs":[{"internalType":"address","name":"owner","type":"address"},{"internalType":"address","name":"spender","type":"address"}],"name":"allowance","outputs":[{"internalType":"uint256","name":"","type":"uint256"}],"stateMutability":"view","type":"function"},{"inputs":[{"internalType":"address","name":"spender","type":"address"},{"internalType":"uint256","name":"value","type":"uint256"}],"name":"approve","outputs":[{"internalType":"bool","name":"","type":"bool"}],"stateMutability":"nonpayable","type":"function"},{"inputs":[{"internalType":"address","name":"account","type":"address"}],"name":"balanceOf","outputs":[{"internalType":"uint256","name":"","type":"uint256"}],"stateMutability":"view","type":"function"},{"inputs":[],"name":"decimals","outputs":[{"internalType":"uint8","name":"","type":"uint8"}],"stateMutability":"view","type":"function"},{"inputs":[{"internalType":"uint256","name":"amountIn","type":"uint256"},{"internalType":"uint24","name":"poolFeeWETH","type":"uint24"},{"internalType":"uint24","name":"poolFeeWBTC","type":"uint24"},{"internalType":"uint256","name":"minOutWETH","type":"uint256"},{"internalType":"uint256","name":"minOutWBTC","type":"uint256"}],"name":"deposit","outputs":[],"stateMutability":"nonpayable","type":"function"},{"inputs":[],"name":"holdings","outputs":[{"internalType":"uint256","name":"usdcBal","type":"uint256"},{"internalType":"uint256","name":"wethBal","type":"uint256"},{"internalType":"uint256","name":"wbtcBal","type":"uint256"}],"stateMutability":"view","type":"function"},{"inputs":[],"name":"name","outputs":[{"internalType":"string","name":"","type":"string"}],"stateMutability":"view","type":"function"},{"inputs":[],"name":"owner","outputs":[{"internalType":"address","name":"","type":"address"}],"stateMutability":"view","type":"function"},{"inputs":[{"internalType":"uint24","name":"poolFeeETHtoUSDC","type":"uint24"},{"internalType":"uint24","name":"poolFeeBTCtoUSDC","type":"uint24"},{"internalType":"uint24","name":"poolFeeUSDCtoETH","type":"uint24"},{"internalType":"uint24","name":"poolFeeUSDCtoBTC","type":"uint24"},{"internalType":"uint256","name":"minOutUSDCfromETH","type":"uint256"},{"internalType":"uint256","name":"minOutUSDCfromBTC","type":"uint256"},{"internalType":"uint256","name":"minOutETH","type":"uint256"},{"internalType":"uint256","name":"minOutBTC","type":"uint256"}],"name":"rebalance","outputs":[],"stateMutability":"nonpayable","type":"function"},{"inputs":[],"name":"renounceOwnership","outputs":[],"stateMutability":"nonpayable","type":"function"},{"inputs":[],"name":"router","outputs":[{"internalType":"contract ISwapRouter02","name":"","type":"address"}],"stateMutability":"view","type":"function"},{"inputs":[],"name":"symbol","outputs":[{"internalType":"string","name":"","type":"string"}],"stateMutability":"view","type":"function"},{"inputs":[],"name":"totalAssets","outputs":[{"internalType":"uint256","name":"","type":"uint256"}],"stateMutability":"view","type":"function"},{"inputs":[],"name":"totalSupply","outputs":[{"internalType":"uint256","name":"","type":"uint256"}],"stateMutability":"view","type":"function"},{"inputs":[{"internalType":"address","name":"to","type":"address"},{"internalType":"uint256","name":"value","type":"uint256"}],"name":"transfer","outputs":[{"internalType":"bool","name":"","type":"bool"}],"stateMutability":"nonpayable","type":"function"},{"inputs":[{"internalType":"address","name":"from","type":"address"},{"internalType":"address","name":"to","type":"address"},{"internalType":"uint256","name":"value","type":"uint256"}],"name":"transferFrom","outputs":[{"internalType":"bool","name":"","type":"bool"}],"stateMutability":"nonpayable","type":"function"},{"inputs":[{"internalType":"address","name":"newOwner","type":"address"}],"name":"transferOwnership","outputs":[],"stateMutability":"nonpayable","type":"function"},{"inputs":[{"internalType":"uint256","name":"shares","type":"uint256"}],"name":"withdraw","outputs":[],"stateMutability":"nonpayable","type":"function"},{"inputs":[{"internalType":"uint256","name":"shares","type":"uint256"},{"internalType":"uint24","name":"poolFeeETHtoUSDC","type":"uint24"},{"internalType":"uint24","name":"poolFeeBTCtoUSDC","type":"uint24"},{"internalType":"uint256","name":"minOutETH","type":"uint256"},{"internalType":"uint256","name":"minOutBTC","type":"uint256"}],"name":"withdrawUSDC","outputs":[],"stateMutability":"nonpayable","type":"function"}],"evm":{"bytecode":{"linkReferences":{},"object":"60a06040523480156200001157600080fd5b5060405162003e7638038062003e768339818101604052810190620000379190620004ec565b336040518060400160405280600f81526020017f455446205661756c7420546f6b656e00000000000000000000000000000000008152506040518060400160405280600481526020017f76455446000000000000000000000000000000000000000000000000000000008152508160039081620000b5919062000798565b508060049081620000c7919062000798565b505050600073ffffffffffffffffffffffffffffffffffffffff168173ffffffffffffffffffffffffffffffffffffffff16036200013f5760006040517f1e4fbdf700000000000000000000000000000000000000000000000000000000815260040162000136919062000890565b60405180910390fd5b6200015081620003bc60201b60201c565b5060016006819055508073ffffffffffffffffffffffffffffffffffffffff1660808173ffffffffffffffffffffffffffffffffffffffff168152505073833589fcd6edb6e08f4c7c32d4f71b54bda0291373ffffffffffffffffffffffffffffffffffffffff1663095ea7b3827fffffffffffffffffffffffffffffffffffffffffffffffffffffffffffffffff6040518363ffffffff1660e01b8152600401620001fe929190620008be565b6020604051808303816000875af11580156200021e573d6000803e3d6000fd5b505050506040513d601f19601f8201168201806040525081019062000244919062000928565b5073420000000000000000000000000000000000000673ffffffffffffffffffffffffffffffffffffffff1663095ea7b3827fffffffffffffffffffffffffffffffffffffffffffffffffffffffffffffffff6040518363ffffffff1660e01b8152600401620002b6929190620008be565b6020604051808303816000875af1158015620002d6573d6000803e3d6000fd5b505050506040513d601f19601f82011682018060405250810190620002fc919062000928565b5073cbb7c0000ab88b473b1f5afd9ef808440eed33bf73ffffffffffffffffffffffffffffffffffffffff1663095ea7b3827fffffffffffffffffffffffffffffffffffffffffffffffffffffffffffffffff6040518363ffffffff1660e01b81526004016200036e929190620008be565b6020604051808303816000875af11580156200038e573d6000803e3d6000fd5b505050506040513d601f19601f82011682018060405250810190620003b4919062000928565b50506200095a565b6000600560009054906101000a900473ffffffffffffffffffffffffffffffffffffffff16905081600560006101000a81548173ffffffffffffffffffffffffffffffffffffffff021916908373ffffffffffffffffffffffffffffffffffffffff1602179055508173ffffffffffffffffffffffffffffffffffffffff168173ffffffffffffffffffffffffffffffffffffffff167f8be0079c531659141344cd1fd0a4f28419497f9722a3daafe3b4186f6b6457e060405160405180910390a35050565b600080fd5b600073ffffffffffffffffffffffffffffffffffffffff82169050919050565b6000620004b48262000487565b9050919050565b620004c681620004a7565b8114620004d257600080fd5b50565b600081519050620004e681620004bb565b92915050565b60006020828403121562000505576200050462000482565b5b60006200051584828501620004d5565b91505092915050565b600081519050919050565b7f4e487b7100000000000000000000000000000000000000000000000000000000600052604160045260246000fd5b7f4e487b7100000000000000000000000000000000000000000000000000000000600052602260045260246000fd5b60006002820490506001821680620005a057607f821691505b602082108103620005b657620005b562000558565b5b50919050565b60008190508160005260206000209050919050565b60006020601f8301049050919050565b600082821b905092915050565b600060088302620006207fffffffffffffffffffffffffffffffffffffffffffffffffffffffffffffffff82620005e1565b6200062c8683620005e1565b95508019841693508086168417925050509392505050565b6000819050919050565b6000819050919050565b600062000679620006736200066d8462000644565b6200064e565b62000644565b9050919050565b6000819050919050565b620006958362000658565b620006ad620006a48262000680565b848454620005ee565b825550505050565b600090565b620006c4620006b5565b620006d18184846200068a565b505050565b5b81811015620006f957620006ed600082620006ba565b600181019050620006d7565b5050565b601f82111562000748576200071281620005bc565b6200071d84620005d1565b810160208510156200072d578190505b620007456200073c85620005d1565b830182620006d6565b50505b505050565b600082821c905092915050565b60006200076d600019846008026200074d565b1980831691505092915050565b60006200078883836200075a565b9150826002028217905092915050565b620007a3826200051e565b67ffffffffffffffff811115620007bf57620007be62000529565b5b620007cb825462000587565b620007d8828285620006fd565b600060209050601f831160018114620008105760008415620007fb578287015190505b6200080785826200077a565b86555062000877565b601f1984166200082086620005bc565b60005b828110156200084a5784890151825560018201915060208501945060208101905062000823565b868310156200086a578489015162000866601f8916826200075a565b8355505b6001600288020188555050505b505050505050565b6200088a81620004a7565b82525050565b6000602082019050620008a760008301846200087f565b92915050565b620008b88162000644565b82525050565b6000604082019050620008d560008301856200087f565b620008e46020830184620008ad565b9392505050565b60008115159050919050565b6200090281620008eb565b81146200090e57600080fd5b50565b6000815190506200092281620008f7565b92915050565b60006020828403121562000941576200094062000482565b5b6000620009518482850162000911565b91505092915050565b6080516134f96200097d60003960008181611a11015261208201526134f96000f3fe608060405234801561001057600080fd5b50600436106101425760003560e01c8063715018a6116100b8578063ad5c46481161007c578063ad5c464814610355578063dc93421b14610373578063dd62ed3e1461038f578063e79bf13b146103bf578063f2fde38b146103df578063f887ea40146103fb57610142565b8063715018a6146102c157806389a30271146102cb5780638da5cb5b146102e957806395d89b4114610307578063a9059cbb1461032557610142565b8063249ff6351161010a578063249ff635146102015780632b1dafb91461021d5780632e1a7d4d14610239578063313ce567146102555780634dede3de1461027357806370a082311461029157610142565b806301e1d1141461014757806306fdde0314610165578063095ea7b31461018357806318160ddd146101b357806323b872dd146101d1575b600080fd5b61014f610419565b60405161015c91906128e2565b60405180910390f35b61016d610428565b60405161017a919061298d565b60405180910390f35b61019d60048036038101906101989190612a3e565b6104ba565b6040516101aa9190612a99565b60405180910390f35b6101bb6104dd565b6040516101c891906128e2565b60405180910390f35b6101eb60048036038101906101e69190612ab4565b6104e7565b6040516101f89190612a99565b60405180910390f35b61021b60048036038101906102169190612b42565b610516565b005b61023760048036038101906102329190612bf8565b6109cd565b005b610253600480360381019061024e9190612c73565b610bdc565b005b61025d610f98565b60405161026a9190612cbc565b60405180910390f35b61027b610fa1565b6040516102889190612d36565b60405180910390f35b6102ab60048036038101906102a69190612d51565b610fb9565b6040516102b891906128e2565b60405180910390f35b6102c9611001565b005b6102d3611015565b6040516102e09190612d36565b60405180910390f35b6102f161102d565b6040516102fe9190612d8d565b60405180910390f35b61030f611057565b60405161031c919061298d565b60405180910390f35b61033f600480360381019061033a9190612a3e565b6110e9565b60405161034c9190612a99565b60405180910390f35b61035d61110c565b60405161036a9190612d36565b60405180910390f35b61038d60048036038101906103889190612bf8565b611124565b005b6103a960048036038101906103a49190612da8565b611748565b6040516103b691906128e2565b60405180910390f35b6103c76117cf565b6040516103d693929190612de8565b60405180910390f35b6103f960048036038101906103f49190612d51565b611989565b005b610403611a0f565b6040516104109190612e40565b60405180910390f35b6000610423611a33565b905090565b60606003805461043790612e8a565b80601f016020809104026020016040519081016040528092919081815260200182805461046390612e8a565b80156104b05780601f10610485576101008083540402835291602001916104b0565b820191906000526020600020905b81548152906001019060200180831161049357829003601f168201915b5050505050905090565b6000806104c5611d7b565b90506104d2818585611d83565b600191505092915050565b6000600254905090565b6000806104f2611d7b565b90506104ff858285611d95565b61050a858585611e2a565b60019150509392505050565b61051e611f1e565b610526611fa5565b600073420000000000000000000000000000000000000673ffffffffffffffffffffffffffffffffffffffff166370a08231306040518263ffffffff1660e01b81526004016105759190612d8d565b602060405180830381865afa158015610592573d6000803e3d6000fd5b505050506040513d601f19601f820116820180604052508101906105b69190612ed0565b9050600073cbb7c0000ab88b473b1f5afd9ef808440eed33bf73ffffffffffffffffffffffffffffffffffffffff166370a08231306040518263ffffffff1660e01b81526004016106079190612d8d565b602060405180830381865afa158015610624573d6000803e3d6000fd5b505050506040513d601f19601f820116820180604052508101906106489190612ed0565b905060008211156106895761068873420000000000000000000000000000000000000673833589fcd6edb6e08f4c7c32d4f71b54bda029138c858a611feb565b5b60008111156106c8576106c773cbb7c0000ab88b473b1f5afd9ef808440eed33bf73833589fcd6edb6e08f4c7c32d4f71b54bda029138b8489611feb565b5b600073833589fcd6edb6e08f4c7c32d4f71b54bda0291373ffffffffffffffffffffffffffffffffffffffff166370a08231306040518263ffffffff1660e01b81526004016107179190612d8d565b602060405180830381865afa158015610734573d6000803e3d6000fd5b505050506040513d601f19601f820116820180604052508101906107589190612ed0565b90506000606460328361076b9190612f2c565b6107759190612f9d565b905060006064601e846107889190612f2c565b6107929190612f9d565b90506107b4734200000000000000000000000000000000000006838d8a612125565b6107d473cbb7c0000ab88b473b1f5afd9ef808440eed33bf828c89612125565b7f83387a3342ff1ebc5e437dc9ae0f98274afda12a11cf547eebec05a3e0b8f8a773833589fcd6edb6e08f4c7c32d4f71b54bda0291373ffffffffffffffffffffffffffffffffffffffff166370a08231306040518263ffffffff1660e01b81526004016108429190612d8d565b602060405180830381865afa15801561085f573d6000803e3d6000fd5b505050506040513d601f19601f820116820180604052508101906108839190612ed0565b73420000000000000000000000000000000000000673ffffffffffffffffffffffffffffffffffffffff166370a08231306040518263ffffffff1660e01b81526004016108d09190612d8d565b602060405180830381865afa1580156108ed573d6000803e3d6000fd5b505050506040513d601f19601f820116820180604052508101906109119190612ed0565b73cbb7c0000ab88b473b1f5afd9ef808440eed33bf73ffffffffffffffffffffffffffffffffffffffff166370a08231306040518263ffffffff1660e01b815260040161095e9190612d8d565b602060405180830381865afa15801561097b573d6000803e3d6000fd5b505050506040513d601f19601f8201168201806040525081019061099f9190612ed0565b6040516109ae93929190612de8565b60405180910390a150505050506109c3612156565b5050505050505050565b6109d5611fa5565b60008511610a18576040517f08c379a0000000000000000000000000000000000000000000000000000000008152600401610a0f9061301a565b60405180910390fd5b6000610a226104dd565b90506000610a2e611a33565b90506000808303610a6257620f4240670de0b6b3a7640000610a509190612f9d565b88610a5b9190612f2c565b9050610a7c565b818389610a6f9190612f2c565b610a799190612f9d565b90505b60008111610abf576040517f08c379a0000000000000000000000000000000000000000000000000000000008152600401610ab690613086565b60405180910390fd5b610b0033308a73833589fcd6edb6e08f4c7c32d4f71b54bda0291373ffffffffffffffffffffffffffffffffffffffff16612160909392919063ffffffff16565b610b0a33826121e2565b610b42734200000000000000000000000000000000000006606460328b610b319190612f2c565b610b3b9190612f9d565b8988612125565b610b7a73cbb7c0000ab88b473b1f5afd9ef808440eed33bf6064601e8b610b699190612f2c565b610b739190612f9d565b8887612125565b3373ffffffffffffffffffffffffffffffffffffffff167f73a19dd210f1a7f902193214c0ee91dd35ee5b4d920cba8d519eca65a7b488ca8983604051610bc29291906130a6565b60405180910390a2505050610bd5612156565b5050505050565b610be4611fa5565b60008111610c27576040517f08c379a0000000000000000000000000000000000000000000000000000000008152600401610c1e9061311b565b60405180910390fd5b6000610c316104dd565b905080821115610c76576040517f08c379a0000000000000000000000000000000000000000000000000000000008152600401610c6d90613187565b60405180910390fd5b6000818373833589fcd6edb6e08f4c7c32d4f71b54bda0291373ffffffffffffffffffffffffffffffffffffffff166370a08231306040518263ffffffff1660e01b8152600401610cc79190612d8d565b602060405180830381865afa158015610ce4573d6000803e3d6000fd5b505050506040513d601f19601f82011682018060405250810190610d089190612ed0565b610d129190612f2c565b610d1c9190612f9d565b90506000828473420000000000000000000000000000000000000673ffffffffffffffffffffffffffffffffffffffff166370a08231306040518263ffffffff1660e01b8152600401610d6f9190612d8d565b602060405180830381865afa158015610d8c573d6000803e3d6000fd5b505050506040513d601f19601f82011682018060405250810190610db09190612ed0565b610dba9190612f2c565b610dc49190612f9d565b90506000838573cbb7c0000ab88b473b1f5afd9ef808440eed33bf73ffffffffffffffffffffffffffffffffffffffff166370a08231306040518263ffffffff1660e01b8152600401610e179190612d8d565b602060405180830381865afa158015610e34573d6000803e3d6000fd5b505050506040513d601f19601f82011682018060405250810190610e589190612ed0565b610e629190612f2c565b610e6c9190612f9d565b9050610e783386612264565b610eb7338473833589fcd6edb6e08f4c7c32d4f71b54bda0291373ffffffffffffffffffffffffffffffffffffffff166122e69092919063ffffffff16565b610ef6338373420000000000000000000000000000000000000673ffffffffffffffffffffffffffffffffffffffff166122e69092919063ffffffff16565b610f35338273cbb7c0000ab88b473b1f5afd9ef808440eed33bf73ffffffffffffffffffffffffffffffffffffffff166122e69092919063ffffffff16565b3373ffffffffffffffffffffffffffffffffffffffff167f94ffd6b85c71b847775c89ef6496b93cee961bdc6ff827fd117f174f06f745ae86858585604051610f8194939291906131a7565b60405180910390a250505050610f95612156565b50565b60006012905090565b73cbb7c0000ab88b473b1f5afd9ef808440eed33bf81565b60008060008373ffffffffffffffffffffffffffffffffffffffff1673ffffffffffffffffffffffffffffffffffffffff168152602001908152602001600020549050919050565b611009611f1e565b6110136000612365565b565b73833589fcd6edb6e08f4c7c32d4f71b54bda0291381565b6000600560009054906101000a900473ffffffffffffffffffffffffffffffffffffffff16905090565b60606004805461106690612e8a565b80601f016020809104026020016040519081016040528092919081815260200182805461109290612e8a565b80156110df5780601f106110b4576101008083540402835291602001916110df565b820191906000526020600020905b8154815290600101906020018083116110c257829003601f168201915b5050505050905090565b6000806110f4611d7b565b9050611101818585611e2a565b600191505092915050565b73420000000000000000000000000000000000000681565b61112c611fa5565b6000851161116f576040517f08c379a00000000000000000000000000000000000000000000000000000000081526004016111669061311b565b60405180910390fd5b60006111796104dd565b9050808611156111be576040517f08c379a00000000000000000000000000000000000000000000000000000000081526004016111b590613187565b60405180910390fd5b6000818773833589fcd6edb6e08f4c7c32d4f71b54bda0291373ffffffffffffffffffffffffffffffffffffffff166370a08231306040518263ffffffff1660e01b815260040161120f9190612d8d565b602060405180830381865afa15801561122c573d6000803e3d6000fd5b505050506040513d601f19601f820116820180604052508101906112509190612ed0565b61125a9190612f2c565b6112649190612f9d565b90506000828873420000000000000000000000000000000000000673ffffffffffffffffffffffffffffffffffffffff166370a08231306040518263ffffffff1660e01b81526004016112b79190612d8d565b602060405180830381865afa1580156112d4573d6000803e3d6000fd5b505050506040513d601f19601f820116820180604052508101906112f89190612ed0565b6113029190612f2c565b61130c9190612f9d565b90506000838973cbb7c0000ab88b473b1f5afd9ef808440eed33bf73ffffffffffffffffffffffffffffffffffffffff166370a08231306040518263ffffffff1660e01b815260040161135f9190612d8d565b602060405180830381865afa15801561137c573d6000803e3d6000fd5b505050506040513d601f19601f820116820180604052508101906113a09190612ed0565b6113aa9190612f2c565b6113b49190612f9d565b90506113c0338a612264565b600073833589fcd6edb6e08f4c7c32d4f71b54bda0291373ffffffffffffffffffffffffffffffffffffffff166370a08231306040518263ffffffff1660e01b815260040161140f9190612d8d565b602060405180830381865afa15801561142c573d6000803e3d6000fd5b505050506040513d601f19601f820116820180604052508101906114509190612ed0565b905060008311156114915761149073420000000000000000000000000000000000000673833589fcd6edb6e08f4c7c32d4f71b54bda029138b868b611feb565b5b60008211156114d0576114cf73cbb7c0000ab88b473b1f5afd9ef808440eed33bf73833589fcd6edb6e08f4c7c32d4f71b54bda029138a858a611feb565b5b60008173833589fcd6edb6e08f4c7c32d4f71b54bda0291373ffffffffffffffffffffffffffffffffffffffff166370a08231306040518263ffffffff1660e01b81526004016115209190612d8d565b602060405180830381865afa15801561153d573d6000803e3d6000fd5b505050506040513d601f19601f820116820180604052508101906115619190612ed0565b61156b91906131ec565b90506000818661157b9190613220565b905073833589fcd6edb6e08f4c7c32d4f71b54bda0291373ffffffffffffffffffffffffffffffffffffffff166370a08231306040518263ffffffff1660e01b81526004016115ca9190612d8d565b602060405180830381865afa1580156115e7573d6000803e3d6000fd5b505050506040513d601f19601f8201168201806040525081019061160b9190612ed0565b8111156116a35773833589fcd6edb6e08f4c7c32d4f71b54bda0291373ffffffffffffffffffffffffffffffffffffffff166370a08231306040518263ffffffff1660e01b815260040161165f9190612d8d565b602060405180830381865afa15801561167c573d6000803e3d6000fd5b505050506040513d601f19601f820116820180604052508101906116a09190612ed0565b90505b6116e2338273833589fcd6edb6e08f4c7c32d4f71b54bda0291373ffffffffffffffffffffffffffffffffffffffff166122e69092919063ffffffff16565b3373ffffffffffffffffffffffffffffffffffffffff167f6b5f943811797f72c223f980943e3891b89675be9c90a514366bd6af956775ec8d8360405161172a9291906130a6565b60405180910390a250505050505050611741612156565b5050505050565b6000600160008473ffffffffffffffffffffffffffffffffffffffff1673ffffffffffffffffffffffffffffffffffffffff16815260200190815260200160002060008373ffffffffffffffffffffffffffffffffffffffff1673ffffffffffffffffffffffffffffffffffffffff16815260200190815260200160002054905092915050565b600080600073833589fcd6edb6e08f4c7c32d4f71b54bda0291373ffffffffffffffffffffffffffffffffffffffff166370a08231306040518263ffffffff1660e01b81526004016118219190612d8d565b602060405180830381865afa15801561183e573d6000803e3d6000fd5b505050506040513d601f19601f820116820180604052508101906118629190612ed0565b73420000000000000000000000000000000000000673ffffffffffffffffffffffffffffffffffffffff166370a08231306040518263ffffffff1660e01b81526004016118af9190612d8d565b602060405180830381865afa1580156118cc573d6000803e3d6000fd5b505050506040513d601f19601f820116820180604052508101906118f09190612ed0565b73cbb7c0000ab88b473b1f5afd9ef808440eed33bf73ffffffffffffffffffffffffffffffffffffffff166370a08231306040518263ffffffff1660e01b815260040161193d9190612d8d565b602060405180830381865afa15801561195a573d6000803e3d6000fd5b505050506040513d601f19601f8201168201806040525081019061197e9190612ed0565b925092509250909192565b611991611f1e565b600073ffffffffffffffffffffffffffffffffffffffff168173ffffffffffffffffffffffffffffffffffffffff1603611a035760006040517f1e4fbdf70000000000000000000000000000000000000000000000000000000081526004016119fa9190612d8d565b60405180910390fd5b611a0c81612365565b50565b7f000000000000000000000000000000000000000000000000000000000000000081565b60008073833589fcd6edb6e08f4c7c32d4f71b54bda0291373ffffffffffffffffffffffffffffffffffffffff166370a08231306040518263ffffffff1660e01b8152600401611a839190612d8d565b602060405180830381865afa158015611aa0573d6000803e3d6000fd5b505050506040513d601f19601f82011682018060405250810190611ac49190612ed0565b905060007371041dddad3595f9ced3dccfbe3d1f4b0a16bb7073ffffffffffffffffffffffffffffffffffffffff1663feaf968c6040518163ffffffff1660e01b815260040160a060405180830381865afa158015611b27573d6000803e3d6000fd5b505050506040513d601f19601f82011682018060405250810190611b4b91906132cc565b50505091505060007364c911996d3c6ac71f9b455b1e8e7266bcbd848f73ffffffffffffffffffffffffffffffffffffffff1663feaf968c6040518163ffffffff1660e01b815260040160a060405180830381865afa158015611bb2573d6000803e3d6000fd5b505050506040513d601f19601f82011682018060405250810190611bd691906132cc565b50505091505060006a52b7d2dcc80cd2e4000000620f42408473420000000000000000000000000000000000000673ffffffffffffffffffffffffffffffffffffffff166370a08231306040518263ffffffff1660e01b8152600401611c3c9190612d8d565b602060405180830381865afa158015611c59573d6000803e3d6000fd5b505050506040513d601f19601f82011682018060405250810190611c7d9190612ed0565b611c879190612f2c565b611c919190612f2c565b611c9b9190612f9d565b90506000662386f26fc10000620f42408473cbb7c0000ab88b473b1f5afd9ef808440eed33bf73ffffffffffffffffffffffffffffffffffffffff166370a08231306040518263ffffffff1660e01b8152600401611cf99190612d8d565b602060405180830381865afa158015611d16573d6000803e3d6000fd5b505050506040513d601f19601f82011682018060405250810190611d3a9190612ed0565b611d449190612f2c565b611d4e9190612f2c565b611d589190612f9d565b9050808286611d679190613220565b611d719190613220565b9550505050505090565b600033905090565b611d90838383600161242b565b505050565b6000611da18484611748565b90507fffffffffffffffffffffffffffffffffffffffffffffffffffffffffffffffff811015611e245781811015611e14578281836040517ffb8f41b2000000000000000000000000000000000000000000000000000000008152600401611e0b93929190613347565b60405180910390fd5b611e238484848403600061242b565b5b50505050565b600073ffffffffffffffffffffffffffffffffffffffff168373ffffffffffffffffffffffffffffffffffffffff1603611e9c5760006040517f96c6fd1e000000000000000000000000000000000000000000000000000000008152600401611e939190612d8d565b60405180910390fd5b600073ffffffffffffffffffffffffffffffffffffffff168273ffffffffffffffffffffffffffffffffffffffff1603611f0e5760006040517fec442f05000000000000000000000000000000000000000000000000000000008152600401611f059190612d8d565b60405180910390fd5b611f19838383612602565b505050565b611f26611d7b565b73ffffffffffffffffffffffffffffffffffffffff16611f4461102d565b73ffffffffffffffffffffffffffffffffffffffff1614611fa357611f67611d7b565b6040517f118cdaa7000000000000000000000000000000000000000000000000000000008152600401611f9a9190612d8d565b60405180910390fd5b565b600260065403611fe1576040517f3ee5aeb500000000000000000000000000000000000000000000000000000000815260040160405180910390fd5b6002600681905550565b60006040518060e001604052808773ffffffffffffffffffffffffffffffffffffffff1681526020018673ffffffffffffffffffffffffffffffffffffffff1681526020018562ffffff1681526020013073ffffffffffffffffffffffffffffffffffffffff168152602001848152602001838152602001600073ffffffffffffffffffffffffffffffffffffffff1681525090507f000000000000000000000000000000000000000000000000000000000000000073ffffffffffffffffffffffffffffffffffffffff166304e45aaf826040518263ffffffff1660e01b81526004016120d99190613448565b6020604051808303816000875af11580156120f8573d6000803e3d6000fd5b505050506040513d601f19601f8201168201806040525081019061211c9190612ed0565b50505050505050565b60008303156121505761214f73833589fcd6edb6e08f4c7c32d4f71b54bda0291385848685611feb565b5b50505050565b6001600681905550565b6121dc848573ffffffffffffffffffffffffffffffffffffffff166323b872dd86868660405160240161219593929190613463565b604051602081830303815290604052915060e01b6020820180517bffffffffffffffffffffffffffffffffffffffffffffffffffffffff8381831617835250505050612827565b50505050565b600073ffffffffffffffffffffffffffffffffffffffff168273ffffffffffffffffffffffffffffffffffffffff16036122545760006040517fec442f0500000000000000000000000000000000000000000000000000000000815260040161224b9190612d8d565b60405180910390fd5b61226060008383612602565b5050565b600073ffffffffffffffffffffffffffffffffffffffff168273ffffffffffffffffffffffffffffffffffffffff16036122d65760006040517f96c6fd1e0000000000000000000000000000000000000000000000000000000081526004016122cd9190612d8d565b60405180910390fd5b6122e282600083612602565b5050565b612360838473ffffffffffffffffffffffffffffffffffffffff1663a9059cbb858560405160240161231992919061349a565b604051602081830303815290604052915060e01b6020820180517bffffffffffffffffffffffffffffffffffffffffffffffffffffffff8381831617835250505050612827565b505050565b6000600560009054906101000a900473ffffffffffffffffffffffffffffffffffffffff16905081600560006101000a81548173ffffffffffffffffffffffffffffffffffffffff021916908373ffffffffffffffffffffffffffffffffffffffff1602179055508173ffffffffffffffffffffffffffffffffffffffff168173ffffffffffffffffffffffffffffffffffffffff167f8be0079c531659141344cd1fd0a4f28419497f9722a3daafe3b4186f6b6457e060405160405180910390a35050565b600073ffffffffffffffffffffffffffffffffffffffff168473ffffffffffffffffffffffffffffffffffffffff160361249d5760006040517fe602df050000000000000000000000000000000000000000000000000000000081526004016124949190612d8d565b60405180910390fd5b600073ffffffffffffffffffffffffffffffffffffffff168373ffffffffffffffffffffffffffffffffffffffff160361250f5760006040517f94280d620000000000000000000000000000000000000000000000000000000081526004016125069190612d8d565b60405180910390fd5b81600160008673ffffffffffffffffffffffffffffffffffffffff1673ffffffffffffffffffffffffffffffffffffffff16815260200190815260200160002060008573ffffffffffffffffffffffffffffffffffffffff1673ffffffffffffffffffffffffffffffffffffffff1681526020019081526020016000208190555080156125fc578273ffffffffffffffffffffffffffffffffffffffff168473ffffffffffffffffffffffffffffffffffffffff167f8c5be1e5ebec7d5bd14f71427d1e84f3dd0314c0f7b2291e5b200ac8c7c3b925846040516125f391906128e2565b60405180910390a35b50505050565b600073ffffffffffffffffffffffffffffffffffffffff168373ffffffffffffffffffffffffffffffffffffffff16036126545780600260008282546126489190613220565b92505081905550612727565b60008060008573ffffffffffffffffffffffffffffffffffffffff1673ffffffffffffffffffffffffffffffffffffffff168152602001908152602001600020549050818110156126e0578381836040517fe450d38c0000000000000000000000000000000000000000000000000000000081526004016126d793929190613347565b60405180910390fd5b8181036000808673ffffffffffffffffffffffffffffffffffffffff1673ffffffffffffffffffffffffffffffffffffffff16815260200190815260200160002081905550505b600073ffffffffffffffffffffffffffffffffffffffff168273ffffffffffffffffffffffffffffffffffffffff160361277057806002600082825403925050819055506127bd565b806000808473ffffffffffffffffffffffffffffffffffffffff1673ffffffffffffffffffffffffffffffffffffffff168152602001908152602001600020600082825401925050819055505b8173ffffffffffffffffffffffffffffffffffffffff168373ffffffffffffffffffffffffffffffffffffffff167fddf252ad1be2c89b69c2b068fc378daa952ba7f163c4a11628f55a4df523b3ef8360405161281a91906128e2565b60405180910390a3505050565b600080602060008451602086016000885af18061284a576040513d6000823e3d81fd5b3d925060005191505060008214612865576001811415612881565b60008473ffffffffffffffffffffffffffffffffffffffff163b145b156128c357836040517f5274afe70000000000000000000000000000000000000000000000000000000081526004016128ba9190612d8d565b60405180910390fd5b50505050565b6000819050919050565b6128dc816128c9565b82525050565b60006020820190506128f760008301846128d3565b92915050565b600081519050919050565b600082825260208201905092915050565b60005b8381101561293757808201518184015260208101905061291c565b60008484015250505050565b6000601f19601f8301169050919050565b600061295f826128fd565b6129698185612908565b9350612979818560208601612919565b61298281612943565b840191505092915050565b600060208201905081810360008301526129a78184612954565b905092915050565b600080fd5b600073ffffffffffffffffffffffffffffffffffffffff82169050919050565b60006129df826129b4565b9050919050565b6129ef816129d4565b81146129fa57600080fd5b50565b600081359050612a0c816129e6565b92915050565b612a1b816128c9565b8114612a2657600080fd5b50565b600081359050612a3881612a12565b92915050565b60008060408385031215612a5557612a546129af565b5b6000612a63858286016129fd565b9250506020612a7485828601612a29565b9150509250929050565b60008115159050919050565b612a9381612a7e565b82525050565b6000602082019050612aae6000830184612a8a565b92915050565b600080600060608486031215612acd57612acc6129af565b5b6000612adb868287016129fd565b9350506020612aec868287016129fd565b9250506040612afd86828701612a29565b9150509250925092565b600062ffffff82169050919050565b612b1f81612b07565b8114612b2a57600080fd5b50565b600081359050612b3c81612b16565b92915050565b600080600080600080600080610100898b031215612b6357612b626129af565b5b6000612b718b828c01612b2d565b9850506020612b828b828c01612b2d565b9750506040612b938b828c01612b2d565b9650506060612ba48b828c01612b2d565b9550506080612bb58b828c01612a29565b94505060a0612bc68b828c01612a29565b93505060c0612bd78b828c01612a29565b92505060e0612be88b828c01612a29565b9150509295985092959890939650565b600080600080600060a08688031215612c1457612c136129af565b5b6000612c2288828901612a29565b9550506020612c3388828901612b2d565b9450506040612c4488828901612b2d565b9350506060612c5588828901612a29565b9250506080612c6688828901612a29565b9150509295509295909350565b600060208284031215612c8957612c886129af565b5b6000612c9784828501612a29565b91505092915050565b600060ff82169050919050565b612cb681612ca0565b82525050565b6000602082019050612cd16000830184612cad565b92915050565b6000819050919050565b6000612cfc612cf7612cf2846129b4565b612cd7565b6129b4565b9050919050565b6000612d0e82612ce1565b9050919050565b6000612d2082612d03565b9050919050565b612d3081612d15565b82525050565b6000602082019050612d4b6000830184612d27565b92915050565b600060208284031215612d6757612d666129af565b5b6000612d75848285016129fd565b91505092915050565b612d87816129d4565b82525050565b6000602082019050612da26000830184612d7e565b92915050565b60008060408385031215612dbf57612dbe6129af565b5b6000612dcd858286016129fd565b9250506020612dde858286016129fd565b9150509250929050565b6000606082019050612dfd60008301866128d3565b612e0a60208301856128d3565b612e1760408301846128d3565b949350505050565b6000612e2a82612d03565b9050919050565b612e3a81612e1f565b82525050565b6000602082019050612e556000830184612e31565b92915050565b7f4e487b7100000000000000000000000000000000000000000000000000000000600052602260045260246000fd5b60006002820490506001821680612ea257607f821691505b602082108103612eb557612eb4612e5b565b5b50919050565b600081519050612eca81612a12565b92915050565b600060208284031215612ee657612ee56129af565b5b6000612ef484828501612ebb565b91505092915050565b7f4e487b7100000000000000000000000000000000000000000000000000000000600052601160045260246000fd5b6000612f37826128c9565b9150612f42836128c9565b9250828202612f50816128c9565b91508282048414831517612f6757612f66612efd565b5b5092915050565b7f4e487b7100000000000000000000000000000000000000000000000000000000600052601260045260246000fd5b6000612fa8826128c9565b9150612fb3836128c9565b925082612fc357612fc2612f6e565b5b828204905092915050565b7f616d6f756e74496e203d20300000000000000000000000000000000000000000600082015250565b6000613004600c83612908565b915061300f82612fce565b602082019050919050565b6000602082019050818103600083015261303381612ff7565b9050919050565b7f5a45524f5f534841524553000000000000000000000000000000000000000000600082015250565b6000613070600b83612908565b915061307b8261303a565b602082019050919050565b6000602082019050818103600083015261309f81613063565b9050919050565b60006040820190506130bb60008301856128d3565b6130c860208301846128d3565b9392505050565b7f736861726573203d203000000000000000000000000000000000000000000000600082015250565b6000613105600a83612908565b9150613110826130cf565b602082019050919050565b60006020820190508181036000830152613134816130f8565b9050919050565b7f6578636565647320737570706c79000000000000000000000000000000000000600082015250565b6000613171600e83612908565b915061317c8261313b565b602082019050919050565b600060208201905081810360008301526131a081613164565b9050919050565b60006080820190506131bc60008301876128d3565b6131c960208301866128d3565b6131d660408301856128d3565b6131e360608301846128d3565b95945050505050565b60006131f7826128c9565b9150613202836128c9565b925082820390508181111561321a57613219612efd565b5b92915050565b600061322b826128c9565b9150613236836128c9565b925082820190508082111561324e5761324d612efd565b5b92915050565b600069ffffffffffffffffffff82169050919050565b61327381613254565b811461327e57600080fd5b50565b6000815190506132908161326a565b92915050565b6000819050919050565b6132a981613296565b81146132b457600080fd5b50565b6000815190506132c6816132a0565b92915050565b600080600080600060a086880312156132e8576132e76129af565b5b60006132f688828901613281565b9550506020613307888289016132b7565b945050604061331888828901612ebb565b935050606061332988828901612ebb565b925050608061333a88828901613281565b9150509295509295909350565b600060608201905061335c6000830186612d7e565b61336960208301856128d3565b61337660408301846128d3565b949350505050565b613387816129d4565b82525050565b61339681612b07565b82525050565b6133a5816128c9565b82525050565b6133b4816129b4565b82525050565b60e0820160008201516133d0600085018261337e565b5060208201516133e3602085018261337e565b5060408201516133f6604085018261338d565b506060820151613409606085018261337e565b50608082015161341c608085018261339c565b5060a082015161342f60a085018261339c565b5060c082015161344260c08501826133ab565b50505050565b600060e08201905061345d60008301846133ba565b92915050565b60006060820190506134786000830186612d7e565b6134856020830185612d7e565b61349260408301846128d3565b949350505050565b60006040820190506134af6000830185612d7e565b6134bc60208301846128d3565b939250505056fea264697066735822122090c464d4b5cd4d33326b0e47557827ae5770528dc590991a50d211d54640a5fb64736f6c63430008180033","opcodes":"PUSH1 0xA0 PUSH1 0x40 MSTORE CALLVALUE DUP1 ISZERO PUSH3 0x11 JUMPI PUSH1 0x0 DUP1 REVERT JUMPDEST POP PUSH1 0x40 MLOAD PUSH3 0x3E76 CODESIZE SUB DUP1 PUSH3 0x3E76 DUP4 CODECOPY DUP2 DUP2 ADD PUSH1 0x40 MSTORE DUP2 ADD SWAP1 PUSH3 0x37 SWAP2 SWAP1 PUSH3 0x4EC JUMP JUMPDEST CALLER PUSH1 0x40 MLOAD DUP1 PUSH1 0x40 ADD PUSH1 0x40 MSTORE DUP1 PUSH1 0xF DUP2 MSTORE PUSH1 0x20 ADD PUSH32 0x455446205661756C7420546F6B656E0000000000000000000000000000000000 DUP2 MSTORE POP PUSH1 0x40 MLOAD DUP1 PUSH1 0x40 ADD PUSH1 0x40 MSTORE DUP1 PUSH1 0x4 DUP2 MSTORE PUSH1 0x20 ADD PUSH32 0x7645544600000000000000000000000000000000000000000000000000000000 DUP2 MSTORE POP DUP2 PUSH1 0x3 SWAP1 DUP2 PUSH3 0xB5 SWAP2 SWAP1 PUSH3 0x798 JUMP JUMPDEST POP DUP1 PUSH1 0x4 SWAP1 DUP2 PUSH3 0xC7 SWAP2 SWAP1 PUSH3 0x798 JUMP JUMPDEST POP POP POP PUSH1 0x0 PUSH20 0xFFFFFFFFFFFFFFFFFFFFFFFFFFFFFFFFFFFFFFFF AND DUP2 PUSH20 0xFFFFFFFFFFFFFFFFFFFFFFFFFFFFFFFFFFFFFFFF AND SUB PUSH3 0x13F JUMPI PUSH1 0x0 PUSH1 0x40 MLOAD PUSH32 0x1E4FBDF700000000000000000000000000000000000000000000000000000000 DUP2 MSTORE PUSH1 0x4 ADD PUSH3 0x136 SWAP2 SWAP1 PUSH3 0x890 JUMP JUMPDEST PUSH1 0x40 MLOAD DUP1 SWAP2 SUB SWAP1 REVERT JUMPDEST PUSH3 0x150 DUP2 PUSH3 0x3BC PUSH1 0x20 SHL PUSH1 0x20 SHR JUMP JUMPDEST POP PUSH1 0x1 PUSH1 0x6 DUP2 SWAP1 SSTORE POP DUP1 PUSH20 0xFFFFFFFFFFFFFFFFFFFFFFFFFFFFFFFFFFFFFFFF AND PUSH1 0x80 DUP2 PUSH20 0xFFFFFFFFFFFFFFFFFFFFFFFFFFFFFFFFFFFFFFFF AND DUP2 MSTORE POP POP PUSH20 0x833589FCD6EDB6E08F4C7C32D4F71B54BDA02913 PUSH20 0xFFFFFFFFFFFFFFFFFFFFFFFFFFFFFFFFFFFFFFFF AND PUSH4 0x95EA7B3 DUP3 PUSH32 0xFFFFFFFFFFFFFFFFFFFFFFFFFFFFFFFFFFFFFFFFFFFFFFFFFFFFFFFFFFFFFFFF PUSH1 0x40 MLOAD DUP4 PUSH4 0xFFFFFFFF AND PUSH1 0xE0 SHL DUP2 MSTORE PUSH1 0x4 ADD PUSH3 0x1FE SWAP3 SWAP2 SWAP1 PUSH3 0x8BE JUMP JUMPDEST PUSH1 0x20 PUSH1 0x40 MLOAD DUP1 DUP4 SUB DUP2 PUSH1 0x0 DUP8 GAS CALL ISZERO DUP1 ISZERO PUSH3 0x21E JUMPI RETURNDATASIZE PUSH1 0x0 DUP1 RETURNDATACOPY RETURNDATASIZE PUSH1 0x0 REVERT JUMPDEST POP POP POP POP PUSH1 0x40 MLOAD RETURNDATASIZE PUSH1 0x1F NOT PUSH1 0x1F DUP3 ADD AND DUP3 ADD DUP1 PUSH1 0x40 MSTORE POP DUP2 ADD SWAP1 PUSH3 0x244 SWAP2 SWAP1 PUSH3 0x928 JUMP JUMPDEST POP PUSH20 0x4200000000000000000000000000000000000006 PUSH20 0xFFFFFFFFFFFFFFFFFFFFFFFFFFFFFFFFFFFFFFFF AND PUSH4 0x95EA7B3 DUP3 PUSH32 0xFFFFFFFFFFFFFFFFFFFFFFFFFFFFFFFFFFFFFFFFFFFFFFFFFFFFFFFFFFFFFFFF PUSH1 0x40 MLOAD DUP4 PUSH4 0xFFFFFFFF AND PUSH1 0xE0 SHL DUP2 MSTORE PUSH1 0x4 ADD PUSH3 0x2B6 SWAP3 SWAP2 SWAP1 PUSH3 0x8BE JUMP JUMPDEST PUSH1 0x20 PUSH1 0x40 MLOAD DUP1 DUP4 SUB DUP2 PUSH1 0x0 DUP8 GAS CALL ISZERO DUP1 ISZERO PUSH3 0x2D6 JUMPI RETURNDATASIZE PUSH1 0x0 DUP1 RETURNDATACOPY RETURNDATASIZE PUSH1 0x0 REVERT JUMPDEST POP POP POP POP PUSH1 0x40 MLOAD RETURNDATASIZE PUSH1 0x1F NOT PUSH1 0x1F DUP3 ADD AND DUP3 ADD DUP1 PUSH1 0x40 MSTORE POP DUP2 ADD SWAP1 PUSH3 0x2FC SWAP2 SWAP1 PUSH3 0x928 JUMP JUMPDEST POP PUSH20 0xCBB7C0000AB88B473B1F5AFD9EF808440EED33BF PUSH20 0xFFFFFFFFFFFFFFFFFFFFFFFFFFFFFFFFFFFFFFFF AND PUSH4 0x95EA7B3 DUP3 PUSH32 0xFFFFFFFFFFFFFFFFFFFFFFFFFFFFFFFFFFFFFFFFFFFFFFFFFFFFFFFFFFFFFFFF PUSH1 0x40 MLOAD DUP4 PUSH4 0xFFFFFFFF AND PUSH1 0xE0 SHL DUP2 MSTORE PUSH1 0x4 ADD PUSH3 0x36E SWAP3 SWAP2 SWAP1 PUSH3 0x8BE JUMP JUMPDEST PUSH1 0x20 PUSH1 0x40 MLOAD DUP1 DUP4 SUB DUP2 PUSH1 0x0 DUP8 GAS CALL ISZERO DUP1 ISZERO PUSH3 0x38E JUMPI RETURNDATASIZE PUSH1 0x0 DUP1 RETURNDATACOPY RETURNDATASIZE PUSH1 0x0 REVERT JUMPDEST POP POP POP POP PUSH1 0x40 MLOAD RETURNDATASIZE PUSH1 0x1F NOT PUSH1 0x1F DUP3 ADD AND DUP3 ADD DUP1 PUSH1 0x40 MSTORE POP DUP2 ADD SWAP1 PUSH3 0x3B4 SWAP2 SWAP1 PUSH3 0x928 JUMP JUMPDEST POP POP PUSH3 0x95A JUMP JUMPDEST PUSH1 0x0 PUSH1 0x5 PUSH1 0x0 SWAP1 SLOAD SWAP1 PUSH2 0x100 EXP SWAP1 DIV PUSH20 0xFFFFFFFFFFFFFFFFFFFFFFFFFFFFFFFFFFFFFFFF AND SWAP1 POP DUP2 PUSH1 0x5 PUSH1 0x0 PUSH2 0x100 EXP DUP2 SLOAD DUP2 PUSH20 0xFFFFFFFFFFFFFFFFFFFFFFFFFFFFFFFFFFFFFFFF MUL NOT AND SWAP1 DUP4 PUSH20 0xFFFFFFFFFFFFFFFFFFFFFFFFFFFFFFFFFFFFFFFF AND MUL OR SWAP1 SSTORE POP DUP2 PUSH20 0xFFFFFFFFFFFFFFFFFFFFFFFFFFFFFFFFFFFFFFFF AND DUP2 PUSH20 0xFFFFFFFFFFFFFFFFFFFFFFFFFFFFFFFFFFFFFFFF AND PUSH32 0x8BE0079C531659141344CD1FD0A4F28419497F9722A3DAAFE3B4186F6B6457E0 PUSH1 0x40 MLOAD PUSH1 0x40 MLOAD DUP1 SWAP2 SUB SWAP1 LOG3 POP POP JUMP JUMPDEST PUSH1 0x0 DUP1 REVERT JUMPDEST PUSH1 0x0 PUSH20 0xFFFFFFFFFFFFFFFFFFFFFFFFFFFFFFFFFFFFFFFF DUP3 AND SWAP1 POP SWAP2 SWAP1 POP JUMP JUMPDEST PUSH1 0x0 PUSH3 0x4B4 DUP3 PUSH3 0x487 JUMP JUMPDEST SWAP1 POP SWAP2 SWAP1 POP JUMP JUMPDEST PUSH3 0x4C6 DUP2 PUSH3 0x4A7 JUMP JUMPDEST DUP2 EQ PUSH3 0x4D2 JUMPI PUSH1 0x0 DUP1 REVERT JUMPDEST POP JUMP JUMPDEST PUSH1 0x0 DUP2 MLOAD SWAP1 POP PUSH3 0x4E6 DUP2 PUSH3 0x4BB JUMP JUMPDEST SWAP3 SWAP2 POP POP JUMP JUMPDEST PUSH1 0x0 PUSH1 0x20 DUP3 DUP5 SUB SLT ISZERO PUSH3 0x505 JUMPI PUSH3 0x504 PUSH3 0x482 JUMP JUMPDEST JUMPDEST PUSH1 0x0 PUSH3 0x515 DUP5 DUP3 DUP6 ADD PUSH3 0x4D5 JUMP JUMPDEST SWAP2 POP POP SWAP3 SWAP2 POP POP JUMP JUMPDEST PUSH1 0x0 DUP2 MLOAD SWAP1 POP SWAP2 SWAP1 POP JUMP JUMPDEST PUSH32 0x4E487B7100000000000000000000000000000000000000000000000000000000 PUSH1 0x0 MSTORE PUSH1 0x41 PUSH1 0x4 MSTORE PUSH1 0x24 PUSH1 0x0 REVERT JUMPDEST PUSH32 0x4E487B7100000000000000000000000000000000000000000000000000000000 PUSH1 0x0 MSTORE PUSH1 0x22 PUSH1 0x4 MSTORE PUSH1 0x24 PUSH1 0x0 REVERT JUMPDEST PUSH1 0x0 PUSH1 0x2 DUP3 DIV SWAP1 POP PUSH1 0x1 DUP3 AND DUP1 PUSH3 0x5A0 JUMPI PUSH1 0x7F DUP3 AND SWAP2 POP JUMPDEST PUSH1 0x20 DUP3 LT DUP2 SUB PUSH3 0x5B6 JUMPI PUSH3 0x5B5 PUSH3 0x558 JUMP JUMPDEST JUMPDEST POP SWAP2 SWAP1 POP JUMP JUMPDEST PUSH1 0x0 DUP2 SWAP1 POP DUP2 PUSH1 0x0 MSTORE PUSH1 0x20 PUSH1 0x0 KECCAK256 SWAP1 POP SWAP2 SWAP1 POP JUMP JUMPDEST PUSH1 0x0 PUSH1 0x20 PUSH1 0x1F DUP4 ADD DIV SWAP1 POP SWAP2 SWAP1 POP JUMP JUMPDEST PUSH1 0x0 DUP3 DUP3 SHL SWAP1 POP SWAP3 SWAP2 POP POP JUMP JUMPDEST PUSH1 0x0 PUSH1 0x8 DUP4 MUL PUSH3 0x620 PUSH32 0xFFFFFFFFFFFFFFFFFFFFFFFFFFFFFFFFFFFFFFFFFFFFFFFFFFFFFFFFFFFFFFFF DUP3 PUSH3 0x5E1 JUMP JUMPDEST PUSH3 0x62C DUP7 DUP4 PUSH3 0x5E1 JUMP JUMPDEST SWAP6 POP DUP1 NOT DUP5 AND SWAP4 POP DUP1 DUP7 AND DUP5 OR SWAP3 POP POP POP SWAP4 SWAP3 POP POP POP JUMP JUMPDEST PUSH1 0x0 DUP2 SWAP1 POP SWAP2 SWAP1 POP JUMP JUMPDEST PUSH1 0x0 DUP2 SWAP1 POP SWAP2 SWAP1 POP JUMP JUMPDEST PUSH1 0x0 PUSH3 0x679 PUSH3 0x673 PUSH3 0x66D DUP5 PUSH3 0x644 JUMP JUMPDEST PUSH3 0x64E JUMP JUMPDEST PUSH3 0x644 JUMP JUMPDEST SWAP1 POP SWAP2 SWAP1 POP JUMP JUMPDEST PUSH1 0x0 DUP2 SWAP1 POP SWAP2 SWAP1 POP JUMP JUMPDEST PUSH3 0x695 DUP4 PUSH3 0x658 JUMP JUMPDEST PUSH3 0x6AD PUSH3 0x6A4 DUP3 PUSH3 0x680 JUMP JUMPDEST DUP5 DUP5 SLOAD PUSH3 0x5EE JUMP JUMPDEST DUP3 SSTORE POP POP POP POP JUMP JUMPDEST PUSH1 0x0 SWAP1 JUMP JUMPDEST PUSH3 0x6C4 PUSH3 0x6B5 JUMP JUMPDEST PUSH3 0x6D1 DUP2 DUP5 DUP5 PUSH3 0x68A JUMP JUMPDEST POP POP POP JUMP JUMPDEST JUMPDEST DUP2 DUP2 LT ISZERO PUSH3 0x6F9 JUMPI PUSH3 0x6ED PUSH1 0x0 DUP3 PUSH3 0x6BA JUMP JUMPDEST PUSH1 0x1 DUP2 ADD SWAP1 POP PUSH3 0x6D7 JUMP JUMPDEST POP POP JUMP JUMPDEST PUSH1 0x1F DUP3 GT ISZERO PUSH3 0x748 JUMPI PUSH3 0x712 DUP2 PUSH3 0x5BC JUMP JUMPDEST PUSH3 0x71D DUP5 PUSH3 0x5D1 JUMP JUMPDEST DUP2 ADD PUSH1 0x20 DUP6 LT ISZERO PUSH3 0x72D JUMPI DUP2 SWAP1 POP JUMPDEST PUSH3 0x745 PUSH3 0x73C DUP6 PUSH3 0x5D1 JUMP JUMPDEST DUP4 ADD DUP3 PUSH3 0x6D6 JUMP JUMPDEST POP POP JUMPDEST POP POP POP JUMP JUMPDEST PUSH1 0x0 DUP3 DUP3 SHR SWAP1 POP SWAP3 SWAP2 POP POP JUMP JUMPDEST PUSH1 0x0 PUSH3 0x76D PUSH1 0x0 NOT DUP5 PUSH1 0x8 MUL PUSH3 0x74D JUMP JUMPDEST NOT DUP1 DUP4 AND SWAP2 POP POP SWAP3 SWAP2 POP POP JUMP JUMPDEST PUSH1 0x0 PUSH3 0x788 DUP4 DUP4 PUSH3 0x75A JUMP JUMPDEST SWAP2 POP DUP3 PUSH1 0x2 MUL DUP3 OR SWAP1 POP SWAP3 SWAP2 POP POP JUMP JUMPDEST PUSH3 0x7A3 DUP3 PUSH3 0x51E JUMP JUMPDEST PUSH8 0xFFFFFFFFFFFFFFFF DUP2 GT ISZERO PUSH3 0x7BF JUMPI PUSH3 0x7BE PUSH3 0x529 JUMP JUMPDEST JUMPDEST PUSH3 0x7CB DUP3 SLOAD PUSH3 0x587 JUMP JUMPDEST PUSH3 0x7D8 DUP3 DUP3 DUP6 PUSH3 0x6FD JUMP JUMPDEST PUSH1 0x0 PUSH1 0x20 SWAP1 POP PUSH1 0x1F DUP4 GT PUSH1 0x1 DUP2 EQ PUSH3 0x810 JUMPI PUSH1 0x0 DUP5 ISZERO PUSH3 0x7FB JUMPI DUP3 DUP8 ADD MLOAD SWAP1 POP JUMPDEST PUSH3 0x807 DUP6 DUP3 PUSH3 0x77A JUMP JUMPDEST DUP7 SSTORE POP PUSH3 0x877 JUMP JUMPDEST PUSH1 0x1F NOT DUP5 AND PUSH3 0x820 DUP7 PUSH3 0x5BC JUMP JUMPDEST PUSH1 0x0 JUMPDEST DUP3 DUP2 LT ISZERO PUSH3 0x84A JUMPI DUP5 DUP10 ADD MLOAD DUP3 SSTORE PUSH1 0x1 DUP3 ADD SWAP2 POP PUSH1 0x20 DUP6 ADD SWAP5 POP PUSH1 0x20 DUP2 ADD SWAP1 POP PUSH3 0x823 JUMP JUMPDEST DUP7 DUP4 LT ISZERO PUSH3 0x86A JUMPI DUP5 DUP10 ADD MLOAD PUSH3 0x866 PUSH1 0x1F DUP10 AND DUP3 PUSH3 0x75A JUMP JUMPDEST DUP4 SSTORE POP JUMPDEST PUSH1 0x1 PUSH1 0x2 DUP9 MUL ADD DUP9 SSTORE POP POP POP JUMPDEST POP POP POP POP POP POP JUMP JUMPDEST PUSH3 0x88A DUP2 PUSH3 0x4A7 JUMP JUMPDEST DUP3 MSTORE POP POP JUMP JUMPDEST PUSH1 0x0 PUSH1 0x20 DUP3 ADD SWAP1 POP PUSH3 0x8A7 PUSH1 0x0 DUP4 ADD DUP5 PUSH3 0x87F JUMP JUMPDEST SWAP3 SWAP2 POP POP JUMP JUMPDEST PUSH3 0x8B8 DUP2 PUSH3 0x644 JUMP JUMPDEST DUP3 MSTORE POP POP JUMP JUMPDEST PUSH1 0x0 PUSH1 0x40 DUP3 ADD SWAP1 POP PUSH3 0x8D5 PUSH1 0x0 DUP4 ADD DUP6 PUSH3 0x87F JUMP JUMPDEST PUSH3 0x8E4 PUSH1 0x20 DUP4 ADD DUP5 PUSH3 0x8AD JUMP JUMPDEST SWAP4 SWAP3 POP POP POP JUMP JUMPDEST PUSH1 0x0 DUP2 ISZERO ISZERO SWAP1 POP SWAP2 SWAP1 POP JUMP JUMPDEST PUSH3 0x902 DUP2 PUSH3 0x8EB JUMP JUMPDEST DUP2 EQ PUSH3 0x90E JUMPI PUSH1 0x0 DUP1 REVERT JUMPDEST POP JUMP JUMPDEST PUSH1 0x0 DUP2 MLOAD SWAP1 POP PUSH3 0x922 DUP2 PUSH3 0x8F7 JUMP JUMPDEST SWAP3 SWAP2 POP POP JUMP JUMPDEST PUSH1 0x0 PUSH1 0x20 DUP3 DUP5 SUB SLT ISZERO PUSH3 0x941 JUMPI PUSH3 0x940 PUSH3 0x482 JUMP JUMPDEST JUMPDEST PUSH1 0x0 PUSH3 0x951 DUP5 DUP3 DUP6 ADD PUSH3 0x911 JUMP JUMPDEST SWAP2 POP POP SWAP3 SWAP2 POP POP JUMP JUMPDEST PUSH1 0x80 MLOAD PUSH2 0x34F9 PUSH3 0x97D PUSH1 0x0 CODECOPY PUSH1 0x0 DUP2 DUP2 PUSH2 0x1A11 ADD MSTORE PUSH2 0x2082 ADD MSTORE PUSH2 0x34F9 PUSH1 0x0 RETURN INVALID PUSH1 0x80 PUSH1 0x40 MSTORE CALLVALUE DUP1 ISZERO PUSH2 0x10 JUMPI PUSH1 0x0 DUP1 REVERT JUMPDEST POP PUSH1 0x4 CALLDATASIZE LT PUSH2 0x142 JUMPI PUSH1 0x0 CALLDATALOAD PUSH1 0xE0 SHR DUP1 PUSH4 0x715018A6 GT PUSH2 0xB8 JUMPI DUP1 PUSH4 0xAD5C4648 GT PUSH2 0x7C JUMPI DUP1 PUSH4 0xAD5C4648 EQ PUSH2 0x355 JUMPI DUP1 PUSH4 0xDC93421B EQ PUSH2 0x373 JUMPI DUP1 PUSH4 0xDD62ED3E EQ PUSH2 0x38F JUMPI DUP1 PUSH4 0xE79BF13B EQ PUSH2 0x3BF JUMPI DUP1 PUSH4 0xF2FDE38B EQ PUSH2 0x3DF JUMPI DUP1 PUSH4 0xF887EA40 EQ PUSH2 0x3FB JUMPI PUSH2 0x142 JUMP JUMPDEST DUP1 PUSH4 0x715018A6 EQ PUSH2 0x2C1 JUMPI DUP1 PUSH4 0x89A30271 EQ PUSH2 0x2CB JUMPI DUP1 PUSH4 0x8DA5CB5B EQ PUSH2 0x2E9 JUMPI DUP1 PUSH4 0x95D89B41 EQ PUSH2 0x307 JUMPI DUP1 PUSH4 0xA9059CBB EQ PUSH2 0x325 JUMPI PUSH2 0x142 JUMP JUMPDEST DUP1 PUSH4 0x249FF635 GT PUSH2 0x10A JUMPI DUP1 PUSH4 0x249FF635 EQ PUSH2 0x201 JUMPI DUP1 PUSH4 0x2B1DAFB9 EQ PUSH2 0x21D JUMPI DUP1 PUSH4 0x2E1A7D4D EQ PUSH2 0x239 JUMPI DUP1 PUSH4 0x313CE567 EQ PUSH2 0x255 JUMPI DUP1 PUSH4 0x4DEDE3DE EQ PUSH2 0x273 JUMPI DUP1 PUSH4 0x70A08231 EQ PUSH2 0x291 JUMPI PUSH2 0x142 JUMP JUMPDEST DUP1 PUSH4 0x1E1D114 EQ PUSH2 0x147 JUMPI DUP1 PUSH4 0x6FDDE03 EQ PUSH2 0x165 JUMPI DUP1 PUSH4 0x95EA7B3 EQ PUSH2 0x183 JUMPI DUP1 PUSH4 0x18160DDD EQ PUSH2 0x1B3 JUMPI DUP1 PUSH4 0x23B872DD EQ PUSH2 0x1D1 JUMPI JUMPDEST PUSH1 0x0 DUP1 REVERT JUMPDEST PUSH2 0x14F PUSH2 0x419 JUMP JUMPDEST PUSH1 0x40 MLOAD PUSH2 0x15C SWAP2 SWAP1 PUSH2 0x28E2 JUMP JUMPDEST PUSH1 0x40 MLOAD DUP1 SWAP2 SUB SWAP1 RETURN JUMPDEST PUSH2 0x16D PUSH2 0x428 JUMP JUMPDEST PUSH1 0x40 MLOAD PUSH2 0x17A SWAP2 SWAP1 PUSH2 0x298D JUMP JUMPDEST PUSH1 0x40 MLOAD DUP1 SWAP2 SUB SWAP1 RETURN JUMPDEST PUSH2 0x19D PUSH1 0x4 DUP1 CALLDATASIZE SUB DUP2 ADD SWAP1 PUSH2 0x198 SWAP2 SWAP1 PUSH2 0x2A3E JUMP JUMPDEST PUSH2 0x4BA JUMP JUMPDEST PUSH1 0x40 MLOAD PUSH2 0x1AA SWAP2 SWAP1 PUSH2 0x2A99 JUMP JUMPDEST PUSH1 0x40 MLOAD DUP1 SWAP2 SUB SWAP1 RETURN JUMPDEST PUSH2 0x1BB PUSH2 0x4DD JUMP JUMPDEST PUSH1 0x40 MLOAD PUSH2 0x1C8 SWAP2 SWAP1 PUSH2 0x28E2 JUMP JUMPDEST PUSH1 0x40 MLOAD DUP1 SWAP2 SUB SWAP1 RETURN JUMPDEST PUSH2 0x1EB PUSH1 0x4 DUP1 CALLDATASIZE SUB DUP2 ADD SWAP1 PUSH2 0x1E6 SWAP2 SWAP1 PUSH2 0x2AB4 JUMP JUMPDEST PUSH2 0x4E7 JUMP JUMPDEST PUSH1 0x40 MLOAD PUSH2 0x1F8 SWAP2 SWAP1 PUSH2 0x2A99 JUMP JUMPDEST PUSH1 0x40 MLOAD DUP1 SWAP2 SUB SWAP1 RETURN JUMPDEST PUSH2 0x21B PUSH1 0x4 DUP1 CALLDATASIZE SUB DUP2 ADD SWAP1 PUSH2 0x216 SWAP2 SWAP1 PUSH2 0x2B42 JUMP JUMPDEST PUSH2 0x516 JUMP JUMPDEST STOP JUMPDEST PUSH2 0x237 PUSH1 0x4 DUP1 CALLDATASIZE SUB DUP2 ADD SWAP1 PUSH2 0x232 SWAP2 SWAP1 PUSH2 0x2BF8 JUMP JUMPDEST PUSH2 0x9CD JUMP JUMPDEST STOP JUMPDEST PUSH2 0x253 PUSH1 0x4 DUP1 CALLDATASIZE SUB DUP2 ADD SWAP1 PUSH2 0x24E SWAP2 SWAP1 PUSH2 0x2C73 JUMP JUMPDEST PUSH2 0xBDC JUMP JUMPDEST STOP JUMPDEST PUSH2 0x25D PUSH2 0xF98 JUMP JUMPDEST PUSH1 0x40 MLOAD PUSH2 0x26A SWAP2 SWAP1 PUSH2 0x2CBC JUMP JUMPDEST PUSH1 0x40 MLOAD DUP1 SWAP2 SUB SWAP1 RETURN JUMPDEST PUSH2 0x27B PUSH2 0xFA1 JUMP JUMPDEST PUSH1 0x40 MLOAD PUSH2 0x288 SWAP2 SWAP1 PUSH2 0x2D36 JUMP JUMPDEST PUSH1 0x40 MLOAD DUP1 SWAP2 SUB SWAP1 RETURN JUMPDEST PUSH2 0x2AB PUSH1 0x4 DUP1 CALLDATASIZE SUB DUP2 ADD SWAP1 PUSH2 0x2A6 SWAP2 SWAP1 PUSH2 0x2D51 JUMP JUMPDEST PUSH2 0xFB9 JUMP JUMPDEST PUSH1 0x40 MLOAD PUSH2 0x2B8 SWAP2 SWAP1 PUSH2 0x28E2 JUMP JUMPDEST PUSH1 0x40 MLOAD DUP1 SWAP2 SUB SWAP1 RETURN JUMPDEST PUSH2 0x2C9 PUSH2 0x1001 JUMP JUMPDEST STOP JUMPDEST PUSH2 0x2D3 PUSH2 0x1015 JUMP JUMPDEST PUSH1 0x40 MLOAD PUSH2 0x2E0 SWAP2 SWAP1 PUSH2 0x2D36 JUMP JUMPDEST PUSH1 0x40 MLOAD DUP1 SWAP2 SUB SWAP1 RETURN JUMPDEST PUSH2 0x2F1 PUSH2 0x102D JUMP JUMPDEST PUSH1 0x40 MLOAD PUSH2 0x2FE SWAP2 SWAP1 PUSH2 0x2D8D JUMP JUMPDEST PUSH1 0x40 MLOAD DUP1 SWAP2 SUB SWAP1 RETURN JUMPDEST PUSH2 0x30F PUSH2 0x1057 JUMP JUMPDEST PUSH1 0x40 MLOAD PUSH2 0x31C SWAP2 SWAP1 PUSH2 0x298D JUMP JUMPDEST PUSH1 0x40 MLOAD DUP1 SWAP2 SUB SWAP1 RETURN JUMPDEST PUSH2 0x33F PUSH1 0x4 DUP1 CALLDATASIZE SUB DUP2 ADD SWAP1 PUSH2 0x33A SWAP2 SWAP1 PUSH2 0x2A3E JUMP JUMPDEST PUSH2 0x10E9 JUMP JUMPDEST PUSH1 0x40 MLOAD PUSH2 0x34C SWAP2 SWAP1 PUSH2 0x2A99 JUMP JUMPDEST PUSH1 0x40 MLOAD DUP1 SWAP2 SUB SWAP1 RETURN JUMPDEST PUSH2 0x35D PUSH2 0x110C JUMP JUMPDEST PUSH1 0x40 MLOAD PUSH2 0x36A SWAP2 SWAP1 PUSH2 0x2D36 JUMP JUMPDEST PUSH1 0x40 MLOAD DUP1 SWAP2 SUB SWAP1 RETURN JUMPDEST PUSH2 0x38D PUSH1 0x4 DUP1 CALLDATASIZE SUB DUP2 ADD SWAP1 PUSH2 0x388 SWAP2 SWAP1 PUSH2 0x2BF8 JUMP JUMPDEST PUSH2 0x1124 JUMP JUMPDEST STOP JUMPDEST PUSH2 0x3A9 PUSH1 0x4 DUP1 CALLDATASIZE SUB DUP2 ADD SWAP1 PUSH2 0x3A4 SWAP2 SWAP1 PUSH2 0x2DA8 JUMP JUMPDEST PUSH2 0x1748 JUMP JUMPDEST PUSH1 0x40 MLOAD PUSH2 0x3B6 SWAP2 SWAP1 PUSH2 0x28E2 JUMP JUMPDEST PUSH1 0x40 MLOAD DUP1 SWAP2 SUB SWAP1 RETURN JUMPDEST PUSH2 0x3C7 PUSH2 0x17CF JUMP JUMPDEST PUSH1 0x40 MLOAD PUSH2 0x3D6 SWAP4 SWAP3 SWAP2 SWAP1 PUSH2 0x2DE8 JUMP JUMPDEST PUSH1 0x40 MLOAD DUP1 SWAP2 SUB SWAP1 RETURN JUMPDEST PUSH2 0x3F9 PUSH1 0x4 DUP1 CALLDATASIZE SUB DUP2 ADD SWAP1 PUSH2 0x3F4 SWAP2 SWAP1 PUSH2 0x2D51 JUMP JUMPDEST PUSH2 0x1989 JUMP JUMPDEST STOP JUMPDEST PUSH2 0x403 PUSH2 0x1A0F JUMP JUMPDEST PUSH1 0x40 MLOAD PUSH2 0x410 SWAP2 SWAP1 PUSH2 0x2E40 JUMP JUMPDEST PUSH1 0x40 MLOAD DUP1 SWAP2 SUB SWAP1 RETURN JUMPDEST PUSH1 0x0 PUSH2 0x423 PUSH2 0x1A33 JUMP JUMPDEST SWAP1 POP SWAP1 JUMP JUMPDEST PUSH1 0x60 PUSH1 0x3 DUP1 SLOAD PUSH2 0x437 SWAP1 PUSH2 0x2E8A JUMP JUMPDEST DUP1 PUSH1 0x1F ADD PUSH1 0x20 DUP1 SWAP2 DIV MUL PUSH1 0x20 ADD PUSH1 0x40 MLOAD SWAP1 DUP2 ADD PUSH1 0x40 MSTORE DUP1 SWAP3 SWAP2 SWAP1 DUP2 DUP2 MSTORE PUSH1 0x20 ADD DUP3 DUP1 SLOAD PUSH2 0x463 SWAP1 PUSH2 0x2E8A JUMP JUMPDEST DUP1 ISZERO PUSH2 0x4B0 JUMPI DUP1 PUSH1 0x1F LT PUSH2 0x485 JUMPI PUSH2 0x100 DUP1 DUP4 SLOAD DIV MUL DUP4 MSTORE SWAP2 PUSH1 0x20 ADD SWAP2 PUSH2 0x4B0 JUMP JUMPDEST DUP3 ADD SWAP2 SWAP1 PUSH1 0x0 MSTORE PUSH1 0x20 PUSH1 0x0 KECCAK256 SWAP1 JUMPDEST DUP2 SLOAD DUP2 MSTORE SWAP1 PUSH1 0x1 ADD SWAP1 PUSH1 0x20 ADD DUP1 DUP4 GT PUSH2 0x493 JUMPI DUP3 SWAP1 SUB PUSH1 0x1F AND DUP3 ADD SWAP2 JUMPDEST POP POP POP POP POP SWAP1 POP SWAP1 JUMP JUMPDEST PUSH1 0x0 DUP1 PUSH2 0x4C5 PUSH2 0x1D7B JUMP JUMPDEST SWAP1 POP PUSH2 0x4D2 DUP2 DUP6 DUP6 PUSH2 0x1D83 JUMP JUMPDEST PUSH1 0x1 SWAP2 POP POP SWAP3 SWAP2 POP POP JUMP JUMPDEST PUSH1 0x0 PUSH1 0x2 SLOAD SWAP1 POP SWAP1 JUMP JUMPDEST PUSH1 0x0 DUP1 PUSH2 0x4F2 PUSH2 0x1D7B JUMP JUMPDEST SWAP1 POP PUSH2 0x4FF DUP6 DUP3 DUP6 PUSH2 0x1D95 JUMP JUMPDEST PUSH2 0x50A DUP6 DUP6 DUP6 PUSH2 0x1E2A JUMP JUMPDEST PUSH1 0x1 SWAP2 POP POP SWAP4 SWAP3 POP POP POP JUMP JUMPDEST PUSH2 0x51E PUSH2 0x1F1E JUMP JUMPDEST PUSH2 0x526 PUSH2 0x1FA5 JUMP JUMPDEST PUSH1 0x0 PUSH20 0x4200000000000000000000000000000000000006 PUSH20 0xFFFFFFFFFFFFFFFFFFFFFFFFFFFFFFFFFFFFFFFF AND PUSH4 0x70A08231 ADDRESS PUSH1 0x40 MLOAD DUP3 PUSH4 0xFFFFFFFF AND PUSH1 0xE0 SHL DUP2 MSTORE PUSH1 0x4 ADD PUSH2 0x575 SWAP2 SWAP1 PUSH2 0x2D8D JUMP JUMPDEST PUSH1 0x20 PUSH1 0x40 MLOAD DUP1 DUP4 SUB DUP2 DUP7 GAS STATICCALL ISZERO DUP1 ISZERO PUSH2 0x592 JUMPI RETURNDATASIZE PUSH1 0x0 DUP1 RETURNDATACOPY RETURNDATASIZE PUSH1 0x0 REVERT JUMPDEST POP POP POP POP PUSH1 0x40 MLOAD RETURNDATASIZE PUSH1 0x1F NOT PUSH1 0x1F DUP3 ADD AND DUP3 ADD DUP1 PUSH1 0x40 MSTORE POP DUP2 ADD SWAP1 PUSH2 0x5B6 SWAP2 SWAP1 PUSH2 0x2ED0 JUMP JUMPDEST SWAP1 POP PUSH1 0x0 PUSH20 0xCBB7C0000AB88B473B1F5AFD9EF808440EED33BF PUSH20 0xFFFFFFFFFFFFFFFFFFFFFFFFFFFFFFFFFFFFFFFF AND PUSH4 0x70A08231 ADDRESS PUSH1 0x40 MLOAD DUP3 PUSH4 0xFFFFFFFF AND PUSH1 0xE0 SHL DUP2 MSTORE PUSH1 0x4 ADD PUSH2 0x607 SWAP2 SWAP1 PUSH2 0x2D8D JUMP JUMPDEST PUSH1 0x20 PUSH1 0x40 MLOAD DUP1 DUP4 SUB DUP2 DUP7 GAS STATICCALL ISZERO DUP1 ISZERO PUSH2 0x624 JUMPI RETURNDATASIZE PUSH1 0x0 DUP1 RETURNDATACOPY RETURNDATASIZE PUSH1 0x0 REVERT JUMPDEST POP POP POP POP PUSH1 0x40 MLOAD RETURNDATASIZE PUSH1 0x1F NOT PUSH1 0x1F DUP3 ADD AND DUP3 ADD DUP1 PUSH1 0x40 MSTORE POP DUP2 ADD SWAP1 PUSH2 0x648 SWAP2 SWAP1 PUSH2 0x2ED0 JUMP JUMPDEST SWAP1 POP PUSH1 0x0 DUP3 GT ISZERO PUSH2 0x689 JUMPI PUSH2 0x688 PUSH20 0x4200000000000000000000000000000000000006 PUSH20 0x833589FCD6EDB6E08F4C7C32D4F71B54BDA02913 DUP13 DUP6 DUP11 PUSH2 0x1FEB JUMP JUMPDEST JUMPDEST PUSH1 0x0 DUP2 GT ISZERO PUSH2 0x6C8 JUMPI PUSH2 0x6C7 PUSH20 0xCBB7C0000AB88B473B1F5AFD9EF808440EED33BF PUSH20 0x833589FCD6EDB6E08F4C7C32D4F71B54BDA02913 DUP12 DUP5 DUP10 PUSH2 0x1FEB JUMP JUMPDEST JUMPDEST PUSH1 0x0 PUSH20 0x833589FCD6EDB6E08F4C7C32D4F71B54BDA02913 PUSH20 0xFFFFFFFFFFFFFFFFFFFFFFFFFFFFFFFFFFFFFFFF AND PUSH4 0x70A08231 ADDRESS PUSH1 0x40 MLOAD DUP3 PUSH4 0xFFFFFFFF AND PUSH1 0xE0 SHL DUP2 MSTORE PUSH1 0x4 ADD PUSH2 0x717 SWAP2 SWAP1 PUSH2 0x2D8D JUMP JUMPDEST PUSH1 0x20 PUSH1 0x40 MLOAD DUP1 DUP4 SUB DUP2 DUP7 GAS STATICCALL ISZERO DUP1 ISZERO PUSH2 0x734 JUMPI RETURNDATASIZE PUSH1 0x0 DUP1 RETURNDATACOPY RETURNDATASIZE PUSH1 0x0 REVERT JUMPDEST POP POP POP POP PUSH1 0x40 MLOAD RETURNDATASIZE PUSH1 0x1F NOT PUSH1 0x1F DUP3 ADD AND DUP3 ADD DUP1 PUSH1 0x40 MSTORE POP DUP2 ADD SWAP1 PUSH2 0x758 SWAP2 SWAP1 PUSH2 0x2ED0 JUMP JUMPDEST SWAP1 POP PUSH1 0x0 PUSH1 0x64 PUSH1 0x32 DUP4 PUSH2 0x76B SWAP2 SWAP1 PUSH2 0x2F2C JUMP JUMPDEST PUSH2 0x775 SWAP2 SWAP1 PUSH2 0x2F9D JUMP JUMPDEST SWAP1 POP PUSH1 0x0 PUSH1 0x64 PUSH1 0x1E DUP5 PUSH2 0x788 SWAP2 SWAP1 PUSH2 0x2F2C JUMP JUMPDEST PUSH2 0x792 SWAP2 SWAP1 PUSH2 0x2F9D JUMP JUMPDEST SWAP1 POP PUSH2 0x7B4 PUSH20 0x4200000000000000000000000000000000000006 DUP4 DUP14 DUP11 PUSH2 0x2125 JUMP JUMPDEST PUSH2 0x7D4 PUSH20 0xCBB7C0000AB88B473B1F5AFD9EF808440EED33BF DUP3 DUP13 DUP10 PUSH2 0x2125 JUMP JUMPDEST PUSH32 0x83387A3342FF1EBC5E437DC9AE0F98274AFDA12A11CF547EEBEC05A3E0B8F8A7 PUSH20 0x833589FCD6EDB6E08F4C7C32D4F71B54BDA02913 PUSH20 0xFFFFFFFFFFFFFFFFFFFFFFFFFFFFFFFFFFFFFFFF AND PUSH4 0x70A08231 ADDRESS PUSH1 0x40 MLOAD DUP3 PUSH4 0xFFFFFFFF AND PUSH1 0xE0 SHL DUP2 MSTORE PUSH1 0x4 ADD PUSH2 0x842 SWAP2 SWAP1 PUSH2 0x2D8D JUMP JUMPDEST PUSH1 0x20 PUSH1 0x40 MLOAD DUP1 DUP4 SUB DUP2 DUP7 GAS STATICCALL ISZERO DUP1 ISZERO PUSH2 0x85F JUMPI RETURNDATASIZE PUSH1 0x0 DUP1 RETURNDATACOPY RETURNDATASIZE PUSH1 0x0 REVERT JUMPDEST POP POP POP POP PUSH1 0x40 MLOAD RETURNDATASIZE PUSH1 0x1F NOT PUSH1 0x1F DUP3 ADD AND DUP3 ADD DUP1 PUSH1 0x40 MSTORE POP DUP2 ADD SWAP1 PUSH2 0x883 SWAP2 SWAP1 PUSH2 0x2ED0 JUMP JUMPDEST PUSH20 0x4200000000000000000000000000000000000006 PUSH20 0xFFFFFFFFFFFFFFFFFFFFFFFFFFFFFFFFFFFFFFFF AND PUSH4 0x70A08231 ADDRESS PUSH1 0x40 MLOAD DUP3 PUSH4 0xFFFFFFFF AND PUSH1 0xE0 SHL DUP2 MSTORE PUSH1 0x4 ADD PUSH2 0x8D0 SWAP2 SWAP1 PUSH2 0x2D8D JUMP JUMPDEST PUSH1 0x20 PUSH1 0x40 MLOAD DUP1 DUP4 SUB DUP2 DUP7 GAS STATICCALL ISZERO DUP1 ISZERO PUSH2 0x8ED JUMPI RETURNDATASIZE PUSH1 0x0 DUP1 RETURNDATACOPY RETURNDATASIZE PUSH1 0x0 REVERT JUMPDEST POP POP POP POP PUSH1 0x40 MLOAD RETURNDATASIZE PUSH1 0x1F NOT PUSH1 0x1F DUP3 ADD AND DUP3 ADD DUP1 PUSH1 0x40 MSTORE POP DUP2 ADD SWAP1 PUSH2 0x911 SWAP2 SWAP1 PUSH2 0x2ED0 JUMP JUMPDEST PUSH20 0xCBB7C0000AB88B473B1F5AFD9EF808440EED33BF PUSH20 0xFFFFFFFFFFFFFFFFFFFFFFFFFFFFFFFFFFFFFFFF AND PUSH4 0x70A08231 ADDRESS PUSH1 0x40 MLOAD DUP3 PUSH4 0xFFFFFFFF AND PUSH1 0xE0 SHL DUP2 MSTORE PUSH1 0x4 ADD PUSH2 0x95E SWAP2 SWAP1 PUSH2 0x2D8D JUMP JUMPDEST PUSH1 0x20 PUSH1 0x40 MLOAD DUP1 DUP4 SUB DUP2 DUP7 GAS STATICCALL ISZERO DUP1 ISZERO PUSH2 0x97B JUMPI RETURNDATASIZE PUSH1 0x0 DUP1 RETURNDATACOPY RETURNDATASIZE PUSH1 0x0 REVERT JUMPDEST POP POP POP POP PUSH1 0x40 MLOAD RETURNDATASIZE PUSH1 0x1F NOT PUSH1 0x1F DUP3 ADD AND DUP3 ADD DUP1 PUSH1 0x40 MSTORE POP DUP2 ADD SWAP1 PUSH2 0x99F SWAP2 SWAP1 PUSH2 0x2ED0 JUMP JUMPDEST PUSH1 0x40 MLOAD PUSH2 0x9AE SWAP4 SWAP3 SWAP2 SWAP1 PUSH2 0x2DE8 JUMP JUMPDEST PUSH1 0x40 MLOAD DUP1 SWAP2 SUB SWAP1 LOG1 POP POP POP POP POP PUSH2 0x9C3 PUSH2 0x2156 JUMP JUMPDEST POP POP POP POP POP POP POP POP JUMP JUMPDEST PUSH2 0x9D5 PUSH2 0x1FA5 JUMP JUMPDEST PUSH1 0x0 DUP6 GT PUSH2 0xA18 JUMPI PUSH1 0x40 MLOAD PUSH32 0x8C379A000000000000000000000000000000000000000000000000000000000 DUP2 MSTORE PUSH1 0x4 ADD PUSH2 0xA0F SWAP1 PUSH2 0x301A JUMP JUMPDEST PUSH1 0x40 MLOAD DUP1 SWAP2 SUB SWAP1 REVERT JUMPDEST PUSH1 0x0 PUSH2 0xA22 PUSH2 0x4DD JUMP JUMPDEST SWAP1 POP PUSH1 0x0 PUSH2 0xA2E PUSH2 0x1A33 JUMP JUMPDEST SWAP1 POP PUSH1 0x0 DUP1 DUP4 SUB PUSH2 0xA62 JUMPI PUSH3 0xF4240 PUSH8 0xDE0B6B3A7640000 PUSH2 0xA50 SWAP2 SWAP1 PUSH2 0x2F9D JUMP JUMPDEST DUP9 PUSH2 0xA5B SWAP2 SWAP1 PUSH2 0x2F2C JUMP JUMPDEST SWAP1 POP PUSH2 0xA7C JUMP JUMPDEST DUP2 DUP4 DUP10 PUSH2 0xA6F SWAP2 SWAP1 PUSH2 0x2F2C JUMP JUMPDEST PUSH2 0xA79 SWAP2 SWAP1 PUSH2 0x2F9D JUMP JUMPDEST SWAP1 POP JUMPDEST PUSH1 0x0 DUP2 GT PUSH2 0xABF JUMPI PUSH1 0x40 MLOAD PUSH32 0x8C379A000000000000000000000000000000000000000000000000000000000 DUP2 MSTORE PUSH1 0x4 ADD PUSH2 0xAB6 SWAP1 PUSH2 0x3086 JUMP JUMPDEST PUSH1 0x40 MLOAD DUP1 SWAP2 SUB SWAP1 REVERT JUMPDEST PUSH2 0xB00 CALLER ADDRESS DUP11 PUSH20 0x833589FCD6EDB6E08F4C7C32D4F71B54BDA02913 PUSH20 0xFFFFFFFFFFFFFFFFFFFFFFFFFFFFFFFFFFFFFFFF AND PUSH2 0x2160 SWAP1 SWAP4 SWAP3 SWAP2 SWAP1 PUSH4 0xFFFFFFFF AND JUMP JUMPDEST PUSH2 0xB0A CALLER DUP3 PUSH2 0x21E2 JUMP JUMPDEST PUSH2 0xB42 PUSH20 0x4200000000000000000000000000000000000006 PUSH1 0x64 PUSH1 0x32 DUP12 PUSH2 0xB31 SWAP2 SWAP1 PUSH2 0x2F2C JUMP JUMPDEST PUSH2 0xB3B SWAP2 SWAP1 PUSH2 0x2F9D JUMP JUMPDEST DUP10 DUP9 PUSH2 0x2125 JUMP JUMPDEST PUSH2 0xB7A PUSH20 0xCBB7C0000AB88B473B1F5AFD9EF808440EED33BF PUSH1 0x64 PUSH1 0x1E DUP12 PUSH2 0xB69 SWAP2 SWAP1 PUSH2 0x2F2C JUMP JUMPDEST PUSH2 0xB73 SWAP2 SWAP1 PUSH2 0x2F9D JUMP JUMPDEST DUP9 DUP8 PUSH2 0x2125 JUMP JUMPDEST CALLER PUSH20 0xFFFFFFFFFFFFFFFFFFFFFFFFFFFFFFFFFFFFFFFF AND PUSH32 0x73A19DD210F1A7F902193214C0EE91DD35EE5B4D920CBA8D519ECA65A7B488CA DUP10 DUP4 PUSH1 0x40 MLOAD PUSH2 0xBC2 SWAP3 SWAP2 SWAP1 PUSH2 0x30A6 JUMP JUMPDEST PUSH1 0x40 MLOAD DUP1 SWAP2 SUB SWAP1 LOG2 POP POP POP PUSH2 0xBD5 PUSH2 0x2156 JUMP JUMPDEST POP POP POP POP POP JUMP JUMPDEST PUSH2 0xBE4 PUSH2 0x1FA5 JUMP JUMPDEST PUSH1 0x0 DUP2 GT PUSH2 0xC27 JUMPI PUSH1 0x40 MLOAD PUSH32 0x8C379A000000000000000000000000000000000000000000000000000000000 DUP2 MSTORE PUSH1 0x4 ADD PUSH2 0xC1E SWAP1 PUSH2 0x311B JUMP JUMPDEST PUSH1 0x40 MLOAD DUP1 SWAP2 SUB SWAP1 REVERT JUMPDEST PUSH1 0x0 PUSH2 0xC31 PUSH2 0x4DD JUMP JUMPDEST SWAP1 POP DUP1 DUP3 GT ISZERO PUSH2 0xC76 JUMPI PUSH1 0x40 MLOAD PUSH32 0x8C379A000000000000000000000000000000000000000000000000000000000 DUP2 MSTORE PUSH1 0x4 ADD PUSH2 0xC6D SWAP1 PUSH2 0x3187 JUMP JUMPDEST PUSH1 0x40 MLOAD DUP1 SWAP2 SUB SWAP1 REVERT JUMPDEST PUSH1 0x0 DUP2 DUP4 PUSH20 0x833589FCD6EDB6E08F4C7C32D4F71B54BDA02913 PUSH20 0xFFFFFFFFFFFFFFFFFFFFFFFFFFFFFFFFFFFFFFFF AND PUSH4 0x70A08231 ADDRESS PUSH1 0x40 MLOAD DUP3 PUSH4 0xFFFFFFFF AND PUSH1 0xE0 SHL DUP2 MSTORE PUSH1 0x4 ADD PUSH2 0xCC7 SWAP2 SWAP1 PUSH2 0x2D8D JUMP JUMPDEST PUSH1 0x20 PUSH1 0x40 MLOAD DUP1 DUP4 SUB DUP2 DUP7 GAS STATICCALL ISZERO DUP1 ISZERO PUSH2 0xCE4 JUMPI RETURNDATASIZE PUSH1 0x0 DUP1 RETURNDATACOPY RETURNDATASIZE PUSH1 0x0 REVERT JUMPDEST POP POP POP POP PUSH1 0x40 MLOAD RETURNDATASIZE PUSH1 0x1F NOT PUSH1 0x1F DUP3 ADD AND DUP3 ADD DUP1 PUSH1 0x40 MSTORE POP DUP2 ADD SWAP1 PUSH2 0xD08 SWAP2 SWAP1 PUSH2 0x2ED0 JUMP JUMPDEST PUSH2 0xD12 SWAP2 SWAP1 PUSH2 0x2F2C JUMP JUMPDEST PUSH2 0xD1C SWAP2 SWAP1 PUSH2 0x2F9D JUMP JUMPDEST SWAP1 POP PUSH1 0x0 DUP3 DUP5 PUSH20 0x4200000000000000000000000000000000000006 PUSH20 0xFFFFFFFFFFFFFFFFFFFFFFFFFFFFFFFFFFFFFFFF AND PUSH4 0x70A08231 ADDRESS PUSH1 0x40 MLOAD DUP3 PUSH4 0xFFFFFFFF AND PUSH1 0xE0 SHL DUP2 MSTORE PUSH1 0x4 ADD PUSH2 0xD6F SWAP2 SWAP1 PUSH2 0x2D8D JUMP JUMPDEST PUSH1 0x20 PUSH1 0x40 MLOAD DUP1 DUP4 SUB DUP2 DUP7 GAS STATICCALL ISZERO DUP1 ISZERO PUSH2 0xD8C JUMPI RETURNDATASIZE PUSH1 0x0 DUP1 RETURNDATACOPY RETURNDATASIZE PUSH1 0x0 REVERT JUMPDEST POP POP POP POP PUSH1 0x40 MLOAD RETURNDATASIZE PUSH1 0x1F NOT PUSH1 0x1F DUP3 ADD AND DUP3 ADD DUP1 PUSH1 0x40 MSTORE POP DUP2 ADD SWAP1 PUSH2 0xDB0 SWAP2 SWAP1 PUSH2 0x2ED0 JUMP JUMPDEST PUSH2 0xDBA SWAP2 SWAP1 PUSH2 0x2F2C JUMP JUMPDEST PUSH2 0xDC4 SWAP2 SWAP1 PUSH2 0x2F9D JUMP JUMPDEST SWAP1 POP PUSH1 0x0 DUP4 DUP6 PUSH20 0xCBB7C0000AB88B473B1F5AFD9EF808440EED33BF PUSH20 0xFFFFFFFFFFFFFFFFFFFFFFFFFFFFFFFFFFFFFFFF AND PUSH4 0x70A08231 ADDRESS PUSH1 0x40 MLOAD DUP3 PUSH4 0xFFFFFFFF AND PUSH1 0xE0 SHL DUP2 MSTORE PUSH1 0x4 ADD PUSH2 0xE17 SWAP2 SWAP1 PUSH2 0x2D8D JUMP JUMPDEST PUSH1 0x20 PUSH1 0x40 MLOAD DUP1 DUP4 SUB DUP2 DUP7 GAS STATICCALL ISZERO DUP1 ISZERO PUSH2 0xE34 JUMPI RETURNDATASIZE PUSH1 0x0 DUP1 RETURNDATACOPY RETURNDATASIZE PUSH1 0x0 REVERT JUMPDEST POP POP POP POP PUSH1 0x40 MLOAD RETURNDATASIZE PUSH1 0x1F NOT PUSH1 0x1F DUP3 ADD AND DUP3 ADD DUP1 PUSH1 0x40 MSTORE POP DUP2 ADD SWAP1 PUSH2 0xE58 SWAP2 SWAP1 PUSH2 0x2ED0 JUMP JUMPDEST PUSH2 0xE62 SWAP2 SWAP1 PUSH2 0x2F2C JUMP JUMPDEST PUSH2 0xE6C SWAP2 SWAP1 PUSH2 0x2F9D JUMP JUMPDEST SWAP1 POP PUSH2 0xE78 CALLER DUP7 PUSH2 0x2264 JUMP JUMPDEST PUSH2 0xEB7 CALLER DUP5 PUSH20 0x833589FCD6EDB6E08F4C7C32D4F71B54BDA02913 PUSH20 0xFFFFFFFFFFFFFFFFFFFFFFFFFFFFFFFFFFFFFFFF AND PUSH2 0x22E6 SWAP1 SWAP3 SWAP2 SWAP1 PUSH4 0xFFFFFFFF AND JUMP JUMPDEST PUSH2 0xEF6 CALLER DUP4 PUSH20 0x4200000000000000000000000000000000000006 PUSH20 0xFFFFFFFFFFFFFFFFFFFFFFFFFFFFFFFFFFFFFFFF AND PUSH2 0x22E6 SWAP1 SWAP3 SWAP2 SWAP1 PUSH4 0xFFFFFFFF AND JUMP JUMPDEST PUSH2 0xF35 CALLER DUP3 PUSH20 0xCBB7C0000AB88B473B1F5AFD9EF808440EED33BF PUSH20 0xFFFFFFFFFFFFFFFFFFFFFFFFFFFFFFFFFFFFFFFF AND PUSH2 0x22E6 SWAP1 SWAP3 SWAP2 SWAP1 PUSH4 0xFFFFFFFF AND JUMP JUMPDEST CALLER PUSH20 0xFFFFFFFFFFFFFFFFFFFFFFFFFFFFFFFFFFFFFFFF AND PUSH32 0x94FFD6B85C71B847775C89EF6496B93CEE961BDC6FF827FD117F174F06F745AE DUP7 DUP6 DUP6 DUP6 PUSH1 0x40 MLOAD PUSH2 0xF81 SWAP5 SWAP4 SWAP3 SWAP2 SWAP1 PUSH2 0x31A7 JUMP JUMPDEST PUSH1 0x40 MLOAD DUP1 SWAP2 SUB SWAP1 LOG2 POP POP POP POP PUSH2 0xF95 PUSH2 0x2156 JUMP JUMPDEST POP JUMP JUMPDEST PUSH1 0x0 PUSH1 0x12 SWAP1 POP SWAP1 JUMP JUMPDEST PUSH20 0xCBB7C0000AB88B473B1F5AFD9EF808440EED33BF DUP2 JUMP JUMPDEST PUSH1 0x0 DUP1 PUSH1 0x0 DUP4 PUSH20 0xFFFFFFFFFFFFFFFFFFFFFFFFFFFFFFFFFFFFFFFF AND PUSH20 0xFFFFFFFFFFFFFFFFFFFFFFFFFFFFFFFFFFFFFFFF AND DUP2 MSTORE PUSH1 0x20 ADD SWAP1 DUP2 MSTORE PUSH1 0x20 ADD PUSH1 0x0 KECCAK256 SLOAD SWAP1 POP SWAP2 SWAP1 POP JUMP JUMPDEST PUSH2 0x1009 PUSH2 0x1F1E JUMP JUMPDEST PUSH2 0x1013 PUSH1 0x0 PUSH2 0x2365 JUMP JUMPDEST JUMP JUMPDEST PUSH20 0x833589FCD6EDB6E08F4C7C32D4F71B54BDA02913 DUP2 JUMP JUMPDEST PUSH1 0x0 PUSH1 0x5 PUSH1 0x0 SWAP1 SLOAD SWAP1 PUSH2 0x100 EXP SWAP1 DIV PUSH20 0xFFFFFFFFFFFFFFFFFFFFFFFFFFFFFFFFFFFFFFFF AND SWAP1 POP SWAP1 JUMP JUMPDEST PUSH1 0x60 PUSH1 0x4 DUP1 SLOAD PUSH2 0x1066 SWAP1 PUSH2 0x2E8A JUMP JUMPDEST DUP1 PUSH1 0x1F ADD PUSH1 0x20 DUP1 SWAP2 DIV MUL PUSH1 0x20 ADD PUSH1 0x40 MLOAD SWAP1 DUP2 ADD PUSH1 0x40 MSTORE DUP1 SWAP3 SWAP2 SWAP1 DUP2 DUP2 MSTORE PUSH1 0x20 ADD DUP3 DUP1 SLOAD PUSH2 0x1092 SWAP1 PUSH2 0x2E8A JUMP JUMPDEST DUP1 ISZERO PUSH2 0x10DF JUMPI DUP1 PUSH1 0x1F LT PUSH2 0x10B4 JUMPI PUSH2 0x100 DUP1 DUP4 SLOAD DIV MUL DUP4 MSTORE SWAP2 PUSH1 0x20 ADD SWAP2 PUSH2 0x10DF JUMP JUMPDEST DUP3 ADD SWAP2 SWAP1 PUSH1 0x0 MSTORE PUSH1 0x20 PUSH1 0x0 KECCAK256 SWAP1 JUMPDEST DUP2 SLOAD DUP2 MSTORE SWAP1 PUSH1 0x1 ADD SWAP1 PUSH1 0x20 ADD DUP1 DUP4 GT PUSH2 0x10C2 JUMPI DUP3 SWAP1 SUB PUSH1 0x1F AND DUP3 ADD SWAP2 JUMPDEST POP POP POP POP POP SWAP1 POP SWAP1 JUMP JUMPDEST PUSH1 0x0 DUP1 PUSH2 0x10F4 PUSH2 0x1D7B JUMP JUMPDEST SWAP1 POP PUSH2 0x1101 DUP2 DUP6 DUP6 PUSH2 0x1E2A JUMP JUMPDEST PUSH1 0x1 SWAP2 POP POP SWAP3 SWAP2 POP POP JUMP JUMPDEST PUSH20 0x4200000000000000000000000000000000000006 DUP2 JUMP JUMPDEST PUSH2 0x112C PUSH2 0x1FA5 JUMP JUMPDEST PUSH1 0x0 DUP6 GT PUSH2 0x116F JUMPI PUSH1 0x40 MLOAD PUSH32 0x8C379A000000000000000000000000000000000000000000000000000000000 DUP2 MSTORE PUSH1 0x4 ADD PUSH2 0x1166 SWAP1 PUSH2 0x311B JUMP JUMPDEST PUSH1 0x40 MLOAD DUP1 SWAP2 SUB SWAP1 REVERT JUMPDEST PUSH1 0x0 PUSH2 0x1179 PUSH2 0x4DD JUMP JUMPDEST SWAP1 POP DUP1 DUP7 GT ISZERO PUSH2 0x11BE JUMPI PUSH1 0x40 MLOAD PUSH32 0x8C379A000000000000000000000000000000000000000000000000000000000 DUP2 MSTORE PUSH1 0x4 ADD PUSH2 0x11B5 SWAP1 PUSH2 0x3187 JUMP JUMPDEST PUSH1 0x40 MLOAD DUP1 SWAP2 SUB SWAP1 REVERT JUMPDEST PUSH1 0x0 DUP2 DUP8 PUSH20 0x833589FCD6EDB6E08F4C7C32D4F71B54BDA02913 PUSH20 0xFFFFFFFFFFFFFFFFFFFFFFFFFFFFFFFFFFFFFFFF AND PUSH4 0x70A08231 ADDRESS PUSH1 0x40 MLOAD DUP3 PUSH4 0xFFFFFFFF AND PUSH1 0xE0 SHL DUP2 MSTORE PUSH1 0x4 ADD PUSH2 0x120F SWAP2 SWAP1 PUSH2 0x2D8D JUMP JUMPDEST PUSH1 0x20 PUSH1 0x40 MLOAD DUP1 DUP4 SUB DUP2 DUP7 GAS STATICCALL ISZERO DUP1 ISZERO PUSH2 0x122C JUMPI RETURNDATASIZE PUSH1 0x0 DUP1 RETURNDATACOPY RETURNDATASIZE PUSH1 0x0 REVERT JUMPDEST POP POP POP POP PUSH1 0x40 MLOAD RETURNDATASIZE PUSH1 0x1F NOT PUSH1 0x1F DUP3 ADD AND DUP3 ADD DUP1 PUSH1 0x40 MSTORE POP DUP2 ADD SWAP1 PUSH2 0x1250 SWAP2 SWAP1 PUSH2 0x2ED0 JUMP JUMPDEST PUSH2 0x125A SWAP2 SWAP1 PUSH2 0x2F2C JUMP JUMPDEST PUSH2 0x1264 SWAP2 SWAP1 PUSH2 0x2F9D JUMP JUMPDEST SWAP1 POP PUSH1 0x0 DUP3 DUP9 PUSH20 0x4200000000000000000000000000000000000006 PUSH20 0xFFFFFFFFFFFFFFFFFFFFFFFFFFFFFFFFFFFFFFFF AND PUSH4 0x70A08231 ADDRESS PUSH1 0x40 MLOAD DUP3 PUSH4 0xFFFFFFFF AND PUSH1 0xE0 SHL DUP2 MSTORE PUSH1 0x4 ADD PUSH2 0x12B7 SWAP2 SWAP1 PUSH2 0x2D8D JUMP JUMPDEST PUSH1 0x20 PUSH1 0x40 MLOAD DUP1 DUP4 SUB DUP2 DUP7 GAS STATICCALL ISZERO DUP1 ISZERO PUSH2 0x12D4 JUMPI RETURNDATASIZE PUSH1 0x0 DUP1 RETURNDATACOPY RETURNDATASIZE PUSH1 0x0 REVERT JUMPDEST POP POP POP POP PUSH1 0x40 MLOAD RETURNDATASIZE PUSH1 0x1F NOT PUSH1 0x1F DUP3 ADD AND DUP3 ADD DUP1 PUSH1 0x40 MSTORE POP DUP2 ADD SWAP1 PUSH2 0x12F8 SWAP2 SWAP1 PUSH2 0x2ED0 JUMP JUMPDEST PUSH2 0x1302 SWAP2 SWAP1 PUSH2 0x2F2C JUMP JUMPDEST PUSH2 0x130C SWAP2 SWAP1 PUSH2 0x2F9D JUMP JUMPDEST SWAP1 POP PUSH1 0x0 DUP4 DUP10 PUSH20 0xCBB7C0000AB88B473B1F5AFD9EF808440EED33BF PUSH20 0xFFFFFFFFFFFFFFFFFFFFFFFFFFFFFFFFFFFFFFFF AND PUSH4 0x70A08231 ADDRESS PUSH1 0x40 MLOAD DUP3 PUSH4 0xFFFFFFFF AND PUSH1 0xE0 SHL DUP2 MSTORE PUSH1 0x4 ADD PUSH2 0x135F SWAP2 SWAP1 PUSH2 0x2D8D JUMP JUMPDEST PUSH1 0x20 PUSH1 0x40 MLOAD DUP1 DUP4 SUB DUP2 DUP7 GAS STATICCALL ISZERO DUP1 ISZERO PUSH2 0x137C JUMPI RETURNDATASIZE PUSH1 0x0 DUP1 RETURNDATACOPY RETURNDATASIZE PUSH1 0x0 REVERT JUMPDEST POP POP POP POP PUSH1 0x40 MLOAD RETURNDATASIZE PUSH1 0x1F NOT PUSH1 0x1F DUP3 ADD AND DUP3 ADD DUP1 PUSH1 0x40 MSTORE POP DUP2 ADD SWAP1 PUSH2 0x13A0 SWAP2 SWAP1 PUSH2 0x2ED0 JUMP JUMPDEST PUSH2 0x13AA SWAP2 SWAP1 PUSH2 0x2F2C JUMP JUMPDEST PUSH2 0x13B4 SWAP2 SWAP1 PUSH2 0x2F9D JUMP JUMPDEST SWAP1 POP PUSH2 0x13C0 CALLER DUP11 PUSH2 0x2264 JUMP JUMPDEST PUSH1 0x0 PUSH20 0x833589FCD6EDB6E08F4C7C32D4F71B54BDA02913 PUSH20 0xFFFFFFFFFFFFFFFFFFFFFFFFFFFFFFFFFFFFFFFF AND PUSH4 0x70A08231 ADDRESS PUSH1 0x40 MLOAD DUP3 PUSH4 0xFFFFFFFF AND PUSH1 0xE0 SHL DUP2 MSTORE PUSH1 0x4 ADD PUSH2 0x140F SWAP2 SWAP1 PUSH2 0x2D8D JUMP JUMPDEST PUSH1 0x20 PUSH1 0x40 MLOAD DUP1 DUP4 SUB DUP2 DUP7 GAS STATICCALL ISZERO DUP1 ISZERO PUSH2 0x142C JUMPI RETURNDATASIZE PUSH1 0x0 DUP1 RETURNDATACOPY RETURNDATASIZE PUSH1 0x0 REVERT JUMPDEST POP POP POP POP PUSH1 0x40 MLOAD RETURNDATASIZE PUSH1 0x1F NOT PUSH1 0x1F DUP3 ADD AND DUP3 ADD DUP1 PUSH1 0x40 MSTORE POP DUP2 ADD SWAP1 PUSH2 0x1450 SWAP2 SWAP1 PUSH2 0x2ED0 JUMP JUMPDEST SWAP1 POP PUSH1 0x0 DUP4 GT ISZERO PUSH2 0x1491 JUMPI PUSH2 0x1490 PUSH20 0x4200000000000000000000000000000000000006 PUSH20 0x833589FCD6EDB6E08F4C7C32D4F71B54BDA02913 DUP12 DUP7 DUP12 PUSH2 0x1FEB JUMP JUMPDEST JUMPDEST PUSH1 0x0 DUP3 GT ISZERO PUSH2 0x14D0 JUMPI PUSH2 0x14CF PUSH20 0xCBB7C0000AB88B473B1F5AFD9EF808440EED33BF PUSH20 0x833589FCD6EDB6E08F4C7C32D4F71B54BDA02913 DUP11 DUP6 DUP11 PUSH2 0x1FEB JUMP JUMPDEST JUMPDEST PUSH1 0x0 DUP2 PUSH20 0x833589FCD6EDB6E08F4C7C32D4F71B54BDA02913 PUSH20 0xFFFFFFFFFFFFFFFFFFFFFFFFFFFFFFFFFFFFFFFF AND PUSH4 0x70A08231 ADDRESS PUSH1 0x40 MLOAD DUP3 PUSH4 0xFFFFFFFF AND PUSH1 0xE0 SHL DUP2 MSTORE PUSH1 0x4 ADD PUSH2 0x1520 SWAP2 SWAP1 PUSH2 0x2D8D JUMP JUMPDEST PUSH1 0x20 PUSH1 0x40 MLOAD DUP1 DUP4 SUB DUP2 DUP7 GAS STATICCALL ISZERO DUP1 ISZERO PUSH2 0x153D JUMPI RETURNDATASIZE PUSH1 0x0 DUP1 RETURNDATACOPY RETURNDATASIZE PUSH1 0x0 REVERT JUMPDEST POP POP POP POP PUSH1 0x40 MLOAD RETURNDATASIZE PUSH1 0x1F NOT PUSH1 0x1F DUP3 ADD AND DUP3 ADD DUP1 PUSH1 0x40 MSTORE POP DUP2 ADD SWAP1 PUSH2 0x1561 SWAP2 SWAP1 PUSH2 0x2ED0 JUMP JUMPDEST PUSH2 0x156B SWAP2 SWAP1 PUSH2 0x31EC JUMP JUMPDEST SWAP1 POP PUSH1 0x0 DUP2 DUP7 PUSH2 0x157B SWAP2 SWAP1 PUSH2 0x3220 JUMP JUMPDEST SWAP1 POP PUSH20 0x833589FCD6EDB6E08F4C7C32D4F71B54BDA02913 PUSH20 0xFFFFFFFFFFFFFFFFFFFFFFFFFFFFFFFFFFFFFFFF AND PUSH4 0x70A08231 ADDRESS PUSH1 0x40 MLOAD DUP3 PUSH4 0xFFFFFFFF AND PUSH1 0xE0 SHL DUP2 MSTORE PUSH1 0x4 ADD PUSH2 0x15CA SWAP2 SWAP1 PUSH2 0x2D8D JUMP JUMPDEST PUSH1 0x20 PUSH1 0x40 MLOAD DUP1 DUP4 SUB DUP2 DUP7 GAS STATICCALL ISZERO DUP1 ISZERO PUSH2 0x15E7 JUMPI RETURNDATASIZE PUSH1 0x0 DUP1 RETURNDATACOPY RETURNDATASIZE PUSH1 0x0 REVERT JUMPDEST POP POP POP POP PUSH1 0x40 MLOAD RETURNDATASIZE PUSH1 0x1F NOT PUSH1 0x1F DUP3 ADD AND DUP3 ADD DUP1 PUSH1 0x40 MSTORE POP DUP2 ADD SWAP1 PUSH2 0x160B SWAP2 SWAP1 PUSH2 0x2ED0 JUMP JUMPDEST DUP2 GT ISZERO PUSH2 0x16A3 JUMPI PUSH20 0x833589FCD6EDB6E08F4C7C32D4F71B54BDA02913 PUSH20 0xFFFFFFFFFFFFFFFFFFFFFFFFFFFFFFFFFFFFFFFF AND PUSH4 0x70A08231 ADDRESS PUSH1 0x40 MLOAD DUP3 PUSH4 0xFFFFFFFF AND PUSH1 0xE0 SHL DUP2 MSTORE PUSH1 0x4 ADD PUSH2 0x165F SWAP2 SWAP1 PUSH2 0x2D8D JUMP JUMPDEST PUSH1 0x20 PUSH1 0x40 MLOAD DUP1 DUP4 SUB DUP2 DUP7 GAS STATICCALL ISZERO DUP1 ISZERO PUSH2 0x167C JUMPI RETURNDATASIZE PUSH1 0x0 DUP1 RETURNDATACOPY RETURNDATASIZE PUSH1 0x0 REVERT JUMPDEST POP POP POP POP PUSH1 0x40 MLOAD RETURNDATASIZE PUSH1 0x1F NOT PUSH1 0x1F DUP3 ADD AND DUP3 ADD DUP1 PUSH1 0x40 MSTORE POP DUP2 ADD SWAP1 PUSH2 0x16A0 SWAP2 SWAP1 PUSH2 0x2ED0 JUMP JUMPDEST SWAP1 POP JUMPDEST PUSH2 0x16E2 CALLER DUP3 PUSH20 0x833589FCD6EDB6E08F4C7C32D4F71B54BDA02913 PUSH20 0xFFFFFFFFFFFFFFFFFFFFFFFFFFFFFFFFFFFFFFFF AND PUSH2 0x22E6 SWAP1 SWAP3 SWAP2 SWAP1 PUSH4 0xFFFFFFFF AND JUMP JUMPDEST CALLER PUSH20 0xFFFFFFFFFFFFFFFFFFFFFFFFFFFFFFFFFFFFFFFF AND PUSH32 0x6B5F943811797F72C223F980943E3891B89675BE9C90A514366BD6AF956775EC DUP14 DUP4 PUSH1 0x40 MLOAD PUSH2 0x172A SWAP3 SWAP2 SWAP1 PUSH2 0x30A6 JUMP JUMPDEST PUSH1 0x40 MLOAD DUP1 SWAP2 SUB SWAP1 LOG2 POP POP POP POP POP POP POP PUSH2 0x1741 PUSH2 0x2156 JUMP JUMPDEST POP POP POP POP POP JUMP JUMPDEST PUSH1 0x0 PUSH1 0x1 PUSH1 0x0 DUP5 PUSH20 0xFFFFFFFFFFFFFFFFFFFFFFFFFFFFFFFFFFFFFFFF AND PUSH20 0xFFFFFFFFFFFFFFFFFFFFFFFFFFFFFFFFFFFFFFFF AND DUP2 MSTORE PUSH1 0x20 ADD SWAP1 DUP2 MSTORE PUSH1 0x20 ADD PUSH1 0x0 KECCAK256 PUSH1 0x0 DUP4 PUSH20 0xFFFFFFFFFFFFFFFFFFFFFFFFFFFFFFFFFFFFFFFF AND PUSH20 0xFFFFFFFFFFFFFFFFFFFFFFFFFFFFFFFFFFFFFFFF AND DUP2 MSTORE PUSH1 0x20 ADD SWAP1 DUP2 MSTORE PUSH1 0x20 ADD PUSH1 0x0 KECCAK256 SLOAD SWAP1 POP SWAP3 SWAP2 POP POP JUMP JUMPDEST PUSH1 0x0 DUP1 PUSH1 0x0 PUSH20 0x833589FCD6EDB6E08F4C7C32D4F71B54BDA02913 PUSH20 0xFFFFFFFFFFFFFFFFFFFFFFFFFFFFFFFFFFFFFFFF AND PUSH4 0x70A08231 ADDRESS PUSH1 0x40 MLOAD DUP3 PUSH4 0xFFFFFFFF AND PUSH1 0xE0 SHL DUP2 MSTORE PUSH1 0x4 ADD PUSH2 0x1821 SWAP2 SWAP1 PUSH2 0x2D8D JUMP JUMPDEST PUSH1 0x20 PUSH1 0x40 MLOAD DUP1 DUP4 SUB DUP2 DUP7 GAS STATICCALL ISZERO DUP1 ISZERO PUSH2 0x183E JUMPI RETURNDATASIZE PUSH1 0x0 DUP1 RETURNDATACOPY RETURNDATASIZE PUSH1 0x0 REVERT JUMPDEST POP POP POP POP PUSH1 0x40 MLOAD RETURNDATASIZE PUSH1 0x1F NOT PUSH1 0x1F DUP3 ADD AND DUP3 ADD DUP1 PUSH1 0x40 MSTORE POP DUP2 ADD SWAP1 PUSH2 0x1862 SWAP2 SWAP1 PUSH2 0x2ED0 JUMP JUMPDEST PUSH20 0x4200000000000000000000000000000000000006 PUSH20 0xFFFFFFFFFFFFFFFFFFFFFFFFFFFFFFFFFFFFFFFF AND PUSH4 0x70A08231 ADDRESS PUSH1 0x40 MLOAD DUP3 PUSH4 0xFFFFFFFF AND PUSH1 0xE0 SHL DUP2 MSTORE PUSH1 0x4 ADD PUSH2 0x18AF SWAP2 SWAP1 PUSH2 0x2D8D JUMP JUMPDEST PUSH1 0x20 PUSH1 0x40 MLOAD DUP1 DUP4 SUB DUP2 DUP7 GAS STATICCALL ISZERO DUP1 ISZERO PUSH2 0x18CC JUMPI RETURNDATASIZE PUSH1 0x0 DUP1 RETURNDATACOPY RETURNDATASIZE PUSH1 0x0 REVERT JUMPDEST POP POP POP POP PUSH1 0x40 MLOAD RETURNDATASIZE PUSH1 0x1F NOT PUSH1 0x1F DUP3 ADD AND DUP3 ADD DUP1 PUSH1 0x40 MSTORE POP DUP2 ADD SWAP1 PUSH2 0x18F0 SWAP2 SWAP1 PUSH2 0x2ED0 JUMP JUMPDEST PUSH20 0xCBB7C0000AB88B473B1F5AFD9EF808440EED33BF PUSH20 0xFFFFFFFFFFFFFFFFFFFFFFFFFFFFFFFFFFFFFFFF AND PUSH4 0x70A08231 ADDRESS PUSH1 0x40 MLOAD DUP3 PUSH4 0xFFFFFFFF AND PUSH1 0xE0 SHL DUP2 MSTORE PUSH1 0x4 ADD PUSH2 0x193D SWAP2 SWAP1 PUSH2 0x2D8D JUMP JUMPDEST PUSH1 0x20 PUSH1 0x40 MLOAD DUP1 DUP4 SUB DUP2 DUP7 GAS STATICCALL ISZERO DUP1 ISZERO PUSH2 0x195A JUMPI RETURNDATASIZE PUSH1 0x0 DUP1 RETURNDATACOPY RETURNDATASIZE PUSH1 0x0 REVERT JUMPDEST POP POP POP POP PUSH1 0x40 MLOAD RETURNDATASIZE PUSH1 0x1F NOT PUSH1 0x1F DUP3 ADD AND DUP3 ADD DUP1 PUSH1 0x40 MSTORE POP DUP2 ADD SWAP1 PUSH2 0x197E SWAP2 SWAP1 PUSH2 0x2ED0 JUMP JUMPDEST SWAP3 POP SWAP3 POP SWAP3 POP SWAP1 SWAP2 SWAP3 JUMP JUMPDEST PUSH2 0x1991 PUSH2 0x1F1E JUMP JUMPDEST PUSH1 0x0 PUSH20 0xFFFFFFFFFFFFFFFFFFFFFFFFFFFFFFFFFFFFFFFF AND DUP2 PUSH20 0xFFFFFFFFFFFFFFFFFFFFFFFFFFFFFFFFFFFFFFFF AND SUB PUSH2 0x1A03 JUMPI PUSH1 0x0 PUSH1 0x40 MLOAD PUSH32 0x1E4FBDF700000000000000000000000000000000000000000000000000000000 DUP2 MSTORE PUSH1 0x4 ADD PUSH2 0x19FA SWAP2 SWAP1 PUSH2 0x2D8D JUMP JUMPDEST PUSH1 0x40 MLOAD DUP1 SWAP2 SUB SWAP1 REVERT JUMPDEST PUSH2 0x1A0C DUP2 PUSH2 0x2365 JUMP JUMPDEST POP JUMP JUMPDEST PUSH32 0x0 DUP2 JUMP JUMPDEST PUSH1 0x0 DUP1 PUSH20 0x833589FCD6EDB6E08F4C7C32D4F71B54BDA02913 PUSH20 0xFFFFFFFFFFFFFFFFFFFFFFFFFFFFFFFFFFFFFFFF AND PUSH4 0x70A08231 ADDRESS PUSH1 0x40 MLOAD DUP3 PUSH4 0xFFFFFFFF AND PUSH1 0xE0 SHL DUP2 MSTORE PUSH1 0x4 ADD PUSH2 0x1A83 SWAP2 SWAP1 PUSH2 0x2D8D JUMP JUMPDEST PUSH1 0x20 PUSH1 0x40 MLOAD DUP1 DUP4 SUB DUP2 DUP7 GAS STATICCALL ISZERO DUP1 ISZERO PUSH2 0x1AA0 JUMPI RETURNDATASIZE PUSH1 0x0 DUP1 RETURNDATACOPY RETURNDATASIZE PUSH1 0x0 REVERT JUMPDEST POP POP POP POP PUSH1 0x40 MLOAD RETURNDATASIZE PUSH1 0x1F NOT PUSH1 0x1F DUP3 ADD AND DUP3 ADD DUP1 PUSH1 0x40 MSTORE POP DUP2 ADD SWAP1 PUSH2 0x1AC4 SWAP2 SWAP1 PUSH2 0x2ED0 JUMP JUMPDEST SWAP1 POP PUSH1 0x0 PUSH20 0x71041DDDAD3595F9CED3DCCFBE3D1F4B0A16BB70 PUSH20 0xFFFFFFFFFFFFFFFFFFFFFFFFFFFFFFFFFFFFFFFF AND PUSH4 0xFEAF968C PUSH1 0x40 MLOAD DUP2 PUSH4 0xFFFFFFFF AND PUSH1 0xE0 SHL DUP2 MSTORE PUSH1 0x4 ADD PUSH1 0xA0 PUSH1 0x40 MLOAD DUP1 DUP4 SUB DUP2 DUP7 GAS STATICCALL ISZERO DUP1 ISZERO PUSH2 0x1B27 JUMPI RETURNDATASIZE PUSH1 0x0 DUP1 RETURNDATACOPY RETURNDATASIZE PUSH1 0x0 REVERT JUMPDEST POP POP POP POP PUSH1 0x40 MLOAD RETURNDATASIZE PUSH1 0x1F NOT PUSH1 0x1F DUP3 ADD AND DUP3 ADD DUP1 PUSH1 0x40 MSTORE POP DUP2 ADD SWAP1 PUSH2 0x1B4B SWAP2 SWAP1 PUSH2 0x32CC JUMP JUMPDEST POP POP POP SWAP2 POP POP PUSH1 0x0 PUSH20 0x64C911996D3C6AC71F9B455B1E8E7266BCBD848F PUSH20 0xFFFFFFFFFFFFFFFFFFFFFFFFFFFFFFFFFFFFFFFF AND PUSH4 0xFEAF968C PUSH1 0x40 MLOAD DUP2 PUSH4 0xFFFFFFFF AND PUSH1 0xE0 SHL DUP2 MSTORE PUSH1 0x4 ADD PUSH1 0xA0 PUSH1 0x40 MLOAD DUP1 DUP4 SUB DUP2 DUP7 GAS STATICCALL ISZERO DUP1 ISZERO PUSH2 0x1BB2 JUMPI RETURNDATASIZE PUSH1 0x0 DUP1 RETURNDATACOPY RETURNDATASIZE PUSH1 0x0 REVERT JUMPDEST POP POP POP POP PUSH1 0x40 MLOAD RETURNDATASIZE PUSH1 0x1F NOT PUSH1 0x1F DUP3 ADD AND DUP3 ADD DUP1 PUSH1 0x40 MSTORE POP DUP2 ADD SWAP1 PUSH2 0x1BD6 SWAP2 SWAP1 PUSH2 0x32CC JUMP JUMPDEST POP POP POP SWAP2 POP POP PUSH1 0x0 PUSH11 0x52B7D2DCC80CD2E4000000 PUSH3 0xF4240 DUP5 PUSH20 0x4200000000000000000000000000000000000006 PUSH20 0xFFFFFFFFFFFFFFFFFFFFFFFFFFFFFFFFFFFFFFFF AND PUSH4 0x70A08231 ADDRESS PUSH1 0x40 MLOAD DUP3 PUSH4 0xFFFFFFFF AND PUSH1 0xE0 SHL DUP2 MSTORE PUSH1 0x4 ADD PUSH2 0x1C3C SWAP2 SWAP1 PUSH2 0x2D8D JUMP JUMPDEST PUSH1 0x20 PUSH1 0x40 MLOAD DUP1 DUP4 SUB DUP2 DUP7 GAS STATICCALL ISZERO DUP1 ISZERO PUSH2 0x1C59 JUMPI RETURNDATASIZE PUSH1 0x0 DUP1 RETURNDATACOPY RETURNDATASIZE PUSH1 0x0 REVERT JUMPDEST POP POP POP POP PUSH1 0x40 MLOAD RETURNDATASIZE PUSH1 0x1F NOT PUSH1 0x1F DUP3 ADD AND DUP3 ADD DUP1 PUSH1 0x40 MSTORE POP DUP2 ADD SWAP1 PUSH2 0x1C7D SWAP2 SWAP1 PUSH2 0x2ED0 JUMP JUMPDEST PUSH2 0x1C87 SWAP2 SWAP1 PUSH2 0x2F2C JUMP JUMPDEST PUSH2 0x1C91 SWAP2 SWAP1 PUSH2 0x2F2C JUMP JUMPDEST PUSH2 0x1C9B SWAP2 SWAP1 PUSH2 0x2F9D JUMP JUMPDEST SWAP1 POP PUSH1 0x0 PUSH7 0x2386F26FC10000 PUSH3 0xF4240 DUP5 PUSH20 0xCBB7C0000AB88B473B1F5AFD9EF808440EED33BF PUSH20 0xFFFFFFFFFFFFFFFFFFFFFFFFFFFFFFFFFFFFFFFF AND PUSH4 0x70A08231 ADDRESS PUSH1 0x40 MLOAD DUP3 PUSH4 0xFFFFFFFF AND PUSH1 0xE0 SHL DUP2 MSTORE PUSH1 0x4 ADD PUSH2 0x1CF9 SWAP2 SWAP1 PUSH2 0x2D8D JUMP JUMPDEST PUSH1 0x20 PUSH1 0x40 MLOAD DUP1 DUP4 SUB DUP2 DUP7 GAS STATICCALL ISZERO DUP1 ISZERO PUSH2 0x1D16 JUMPI RETURNDATASIZE PUSH1 0x0 DUP1 RETURNDATACOPY RETURNDATASIZE PUSH1 0x0 REVERT JUMPDEST POP POP POP POP PUSH1 0x40 MLOAD RETURNDATASIZE PUSH1 0x1F NOT PUSH1 0x1F DUP3 ADD AND DUP3 ADD DUP1 PUSH1 0x40 MSTORE POP DUP2 ADD SWAP1 PUSH2 0x1D3A SWAP2 SWAP1 PUSH2 0x2ED0 JUMP JUMPDEST PUSH2 0x1D44 SWAP2 SWAP1 PUSH2 0x2F2C JUMP JUMPDEST PUSH2 0x1D4E SWAP2 SWAP1 PUSH2 0x2F2C JUMP JUMPDEST PUSH2 0x1D58 SWAP2 SWAP1 PUSH2 0x2F9D JUMP JUMPDEST SWAP1 POP DUP1 DUP3 DUP7 PUSH2 0x1D67 SWAP2 SWAP1 PUSH2 0x3220 JUMP JUMPDEST PUSH2 0x1D71 SWAP2 SWAP1 PUSH2 0x3220 JUMP JUMPDEST SWAP6 POP POP POP POP POP POP SWAP1 JUMP JUMPDEST PUSH1 0x0 CALLER SWAP1 POP SWAP1 JUMP JUMPDEST PUSH2 0x1D90 DUP4 DUP4 DUP4 PUSH1 0x1 PUSH2 0x242B JUMP JUMPDEST POP POP POP JUMP JUMPDEST PUSH1 0x0 PUSH2 0x1DA1 DUP5 DUP5 PUSH2 0x1748 JUMP JUMPDEST SWAP1 POP PUSH32 0xFFFFFFFFFFFFFFFFFFFFFFFFFFFFFFFFFFFFFFFFFFFFFFFFFFFFFFFFFFFFFFFF DUP2 LT ISZERO PUSH2 0x1E24 JUMPI DUP2 DUP2 LT ISZERO PUSH2 0x1E14 JUMPI DUP3 DUP2 DUP4 PUSH1 0x40 MLOAD PUSH32 0xFB8F41B200000000000000000000000000000000000000000000000000000000 DUP2 MSTORE PUSH1 0x4 ADD PUSH2 0x1E0B SWAP4 SWAP3 SWAP2 SWAP1 PUSH2 0x3347 JUMP JUMPDEST PUSH1 0x40 MLOAD DUP1 SWAP2 SUB SWAP1 REVERT JUMPDEST PUSH2 0x1E23 DUP5 DUP5 DUP5 DUP5 SUB PUSH1 0x0 PUSH2 0x242B JUMP JUMPDEST JUMPDEST POP POP POP POP JUMP JUMPDEST PUSH1 0x0 PUSH20 0xFFFFFFFFFFFFFFFFFFFFFFFFFFFFFFFFFFFFFFFF AND DUP4 PUSH20 0xFFFFFFFFFFFFFFFFFFFFFFFFFFFFFFFFFFFFFFFF AND SUB PUSH2 0x1E9C JUMPI PUSH1 0x0 PUSH1 0x40 MLOAD PUSH32 0x96C6FD1E00000000000000000000000000000000000000000000000000000000 DUP2 MSTORE PUSH1 0x4 ADD PUSH2 0x1E93 SWAP2 SWAP1 PUSH2 0x2D8D JUMP JUMPDEST PUSH1 0x40 MLOAD DUP1 SWAP2 SUB SWAP1 REVERT JUMPDEST PUSH1 0x0 PUSH20 0xFFFFFFFFFFFFFFFFFFFFFFFFFFFFFFFFFFFFFFFF AND DUP3 PUSH20 0xFFFFFFFFFFFFFFFFFFFFFFFFFFFFFFFFFFFFFFFF AND SUB PUSH2 0x1F0E JUMPI PUSH1 0x0 PUSH1 0x40 MLOAD PUSH32 0xEC442F0500000000000000000000000000000000000000000000000000000000 DUP2 MSTORE PUSH1 0x4 ADD PUSH2 0x1F05 SWAP2 SWAP1 PUSH2 0x2D8D JUMP JUMPDEST PUSH1 0x40 MLOAD DUP1 SWAP2 SUB SWAP1 REVERT JUMPDEST PUSH2 0x1F19 DUP4 DUP4 DUP4 PUSH2 0x2602 JUMP JUMPDEST POP POP POP JUMP JUMPDEST PUSH2 0x1F26 PUSH2 0x1D7B JUMP JUMPDEST PUSH20 0xFFFFFFFFFFFFFFFFFFFFFFFFFFFFFFFFFFFFFFFF AND PUSH2 0x1F44 PUSH2 0x102D JUMP JUMPDEST PUSH20 0xFFFFFFFFFFFFFFFFFFFFFFFFFFFFFFFFFFFFFFFF AND EQ PUSH2 0x1FA3 JUMPI PUSH2 0x1F67 PUSH2 0x1D7B JUMP JUMPDEST PUSH1 0x40 MLOAD PUSH32 0x118CDAA700000000000000000000000000000000000000000000000000000000 DUP2 MSTORE PUSH1 0x4 ADD PUSH2 0x1F9A SWAP2 SWAP1 PUSH2 0x2D8D JUMP JUMPDEST PUSH1 0x40 MLOAD DUP1 SWAP2 SUB SWAP1 REVERT JUMPDEST JUMP JUMPDEST PUSH1 0x2 PUSH1 0x6 SLOAD SUB PUSH2 0x1FE1 JUMPI PUSH1 0x40 MLOAD PUSH32 0x3EE5AEB500000000000000000000000000000000000000000000000000000000 DUP2 MSTORE PUSH1 0x4 ADD PUSH1 0x40 MLOAD DUP1 SWAP2 SUB SWAP1 REVERT JUMPDEST PUSH1 0x2 PUSH1 0x6 DUP2 SWAP1 SSTORE POP JUMP JUMPDEST PUSH1 0x0 PUSH1 0x40 MLOAD DUP1 PUSH1 0xE0 ADD PUSH1 0x40 MSTORE DUP1 DUP8 PUSH20 0xFFFFFFFFFFFFFFFFFFFFFFFFFFFFFFFFFFFFFFFF AND DUP2 MSTORE PUSH1 0x20 ADD DUP7 PUSH20 0xFFFFFFFFFFFFFFFFFFFFFFFFFFFFFFFFFFFFFFFF AND DUP2 MSTORE PUSH1 0x20 ADD DUP6 PUSH3 0xFFFFFF AND DUP2 MSTORE PUSH1 0x20 ADD ADDRESS PUSH20 0xFFFFFFFFFFFFFFFFFFFFFFFFFFFFFFFFFFFFFFFF AND DUP2 MSTORE PUSH1 0x20 ADD DUP5 DUP2 MSTORE PUSH1 0x20 ADD DUP4 DUP2 MSTORE PUSH1 0x20 ADD PUSH1 0x0 PUSH20 0xFFFFFFFFFFFFFFFFFFFFFFFFFFFFFFFFFFFFFFFF AND DUP2 MSTORE POP SWAP1 POP PUSH32 0x0 PUSH20 0xFFFFFFFFFFFFFFFFFFFFFFFFFFFFFFFFFFFFFFFF AND PUSH4 0x4E45AAF DUP3 PUSH1 0x40 MLOAD DUP3 PUSH4 0xFFFFFFFF AND PUSH1 0xE0 SHL DUP2 MSTORE PUSH1 0x4 ADD PUSH2 0x20D9 SWAP2 SWAP1 PUSH2 0x3448 JUMP JUMPDEST PUSH1 0x20 PUSH1 0x40 MLOAD DUP1 DUP4 SUB DUP2 PUSH1 0x0 DUP8 GAS CALL ISZERO DUP1 ISZERO PUSH2 0x20F8 JUMPI RETURNDATASIZE PUSH1 0x0 DUP1 RETURNDATACOPY RETURNDATASIZE PUSH1 0x0 REVERT JUMPDEST POP POP POP POP PUSH1 0x40 MLOAD RETURNDATASIZE PUSH1 0x1F NOT PUSH1 0x1F DUP3 ADD AND DUP3 ADD DUP1 PUSH1 0x40 MSTORE POP DUP2 ADD SWAP1 PUSH2 0x211C SWAP2 SWAP1 PUSH2 0x2ED0 JUMP JUMPDEST POP POP POP POP POP POP POP JUMP JUMPDEST PUSH1 0x0 DUP4 SUB ISZERO PUSH2 0x2150 JUMPI PUSH2 0x214F PUSH20 0x833589FCD6EDB6E08F4C7C32D4F71B54BDA02913 DUP6 DUP5 DUP7 DUP6 PUSH2 0x1FEB JUMP JUMPDEST JUMPDEST POP POP POP POP JUMP JUMPDEST PUSH1 0x1 PUSH1 0x6 DUP2 SWAP1 SSTORE POP JUMP JUMPDEST PUSH2 0x21DC DUP5 DUP6 PUSH20 0xFFFFFFFFFFFFFFFFFFFFFFFFFFFFFFFFFFFFFFFF AND PUSH4 0x23B872DD DUP7 DUP7 DUP7 PUSH1 0x40 MLOAD PUSH1 0x24 ADD PUSH2 0x2195 SWAP4 SWAP3 SWAP2 SWAP1 PUSH2 0x3463 JUMP JUMPDEST PUSH1 0x40 MLOAD PUSH1 0x20 DUP2 DUP4 SUB SUB DUP2 MSTORE SWAP1 PUSH1 0x40 MSTORE SWAP2 POP PUSH1 0xE0 SHL PUSH1 0x20 DUP3 ADD DUP1 MLOAD PUSH28 0xFFFFFFFFFFFFFFFFFFFFFFFFFFFFFFFFFFFFFFFFFFFFFFFFFFFFFFFF DUP4 DUP2 DUP4 AND OR DUP4 MSTORE POP POP POP POP PUSH2 0x2827 JUMP JUMPDEST POP POP POP POP JUMP JUMPDEST PUSH1 0x0 PUSH20 0xFFFFFFFFFFFFFFFFFFFFFFFFFFFFFFFFFFFFFFFF AND DUP3 PUSH20 0xFFFFFFFFFFFFFFFFFFFFFFFFFFFFFFFFFFFFFFFF AND SUB PUSH2 0x2254 JUMPI PUSH1 0x0 PUSH1 0x40 MLOAD PUSH32 0xEC442F0500000000000000000000000000000000000000000000000000000000 DUP2 MSTORE PUSH1 0x4 ADD PUSH2 0x224B SWAP2 SWAP1 PUSH2 0x2D8D JUMP JUMPDEST PUSH1 0x40 MLOAD DUP1 SWAP2 SUB SWAP1 REVERT JUMPDEST PUSH2 0x2260 PUSH1 0x0 DUP4 DUP4 PUSH2 0x2602 JUMP JUMPDEST POP POP JUMP JUMPDEST PUSH1 0x0 PUSH20 0xFFFFFFFFFFFFFFFFFFFFFFFFFFFFFFFFFFFFFFFF AND DUP3 PUSH20 0xFFFFFFFFFFFFFFFFFFFFFFFFFFFFFFFFFFFFFFFF AND SUB PUSH2 0x22D6 JUMPI PUSH1 0x0 PUSH1 0x40 MLOAD PUSH32 0x96C6FD1E00000000000000000000000000000000000000000000000000000000 DUP2 MSTORE PUSH1 0x4 ADD PUSH2 0x22CD SWAP2 SWAP1 PUSH2 0x2D8D JUMP JUMPDEST PUSH1 0x40 MLOAD DUP1 SWAP2 SUB SWAP1 REVERT JUMPDEST PUSH2 0x22E2 DUP3 PUSH1 0x0 DUP4 PUSH2 0x2602 JUMP JUMPDEST POP POP JUMP JUMPDEST PUSH2 0x2360 DUP4 DUP5 PUSH20 0xFFFFFFFFFFFFFFFFFFFFFFFFFFFFFFFFFFFFFFFF AND PUSH4 0xA9059CBB DUP6 DUP6 PUSH1 0x40 MLOAD PUSH1 0x24 ADD PUSH2 0x2319 SWAP3 SWAP2 SWAP1 PUSH2 0x349A JUMP JUMPDEST PUSH1 0x40 MLOAD PUSH1 0x20 DUP2 DUP4 SUB SUB DUP2 MSTORE SWAP1 PUSH1 0x40 MSTORE SWAP2 POP PUSH1 0xE0 SHL PUSH1 0x20 DUP3 ADD DUP1 MLOAD PUSH28 0xFFFFFFFFFFFFFFFFFFFFFFFFFFFFFFFFFFFFFFFFFFFFFFFFFFFFFFFF DUP4 DUP2 DUP4 AND OR DUP4 MSTORE POP POP POP POP PUSH2 0x2827 JUMP JUMPDEST POP POP POP JUMP JUMPDEST PUSH1 0x0 PUSH1 0x5 PUSH1 0x0 SWAP1 SLOAD SWAP1 PUSH2 0x100 EXP SWAP1 DIV PUSH20 0xFFFFFFFFFFFFFFFFFFFFFFFFFFFFFFFFFFFFFFFF AND SWAP1 POP DUP2 PUSH1 0x5 PUSH1 0x0 PUSH2 0x100 EXP DUP2 SLOAD DUP2 PUSH20 0xFFFFFFFFFFFFFFFFFFFFFFFFFFFFFFFFFFFFFFFF MUL NOT AND SWAP1 DUP4 PUSH20 0xFFFFFFFFFFFFFFFFFFFFFFFFFFFFFFFFFFFFFFFF AND MUL OR SWAP1 SSTORE POP DUP2 PUSH20 0xFFFFFFFFFFFFFFFFFFFFFFFFFFFFFFFFFFFFFFFF AND DUP2 PUSH20 0xFFFFFFFFFFFFFFFFFFFFFFFFFFFFFFFFFFFFFFFF AND PUSH32 0x8BE0079C531659141344CD1FD0A4F28419497F9722A3DAAFE3B4186F6B6457E0 PUSH1 0x40 MLOAD PUSH1 0x40 MLOAD DUP1 SWAP2 SUB SWAP1 LOG3 POP POP JUMP JUMPDEST PUSH1 0x0 PUSH20 0xFFFFFFFFFFFFFFFFFFFFFFFFFFFFFFFFFFFFFFFF AND DUP5 PUSH20 0xFFFFFFFFFFFFFFFFFFFFFFFFFFFFFFFFFFFFFFFF AND SUB PUSH2 0x249D JUMPI PUSH1 0x0 PUSH1 0x40 MLOAD PUSH32 0xE602DF0500000000000000000000000000000000000000000000000000000000 DUP2 MSTORE PUSH1 0x4 ADD PUSH2 0x2494 SWAP2 SWAP1 PUSH2 0x2D8D JUMP JUMPDEST PUSH1 0x40 MLOAD DUP1 SWAP2 SUB SWAP1 REVERT JUMPDEST PUSH1 0x0 PUSH20 0xFFFFFFFFFFFFFFFFFFFFFFFFFFFFFFFFFFFFFFFF AND DUP4 PUSH20 0xFFFFFFFFFFFFFFFFFFFFFFFFFFFFFFFFFFFFFFFF AND SUB PUSH2 0x250F JUMPI PUSH1 0x0 PUSH1 0x40 MLOAD PUSH32 0x94280D6200000000000000000000000000000000000000000000000000000000 DUP2 MSTORE PUSH1 0x4 ADD PUSH2 0x2506 SWAP2 SWAP1 PUSH2 0x2D8D JUMP JUMPDEST PUSH1 0x40 MLOAD DUP1 SWAP2 SUB SWAP1 REVERT JUMPDEST DUP2 PUSH1 0x1 PUSH1 0x0 DUP7 PUSH20 0xFFFFFFFFFFFFFFFFFFFFFFFFFFFFFFFFFFFFFFFF AND PUSH20 0xFFFFFFFFFFFFFFFFFFFFFFFFFFFFFFFFFFFFFFFF AND DUP2 MSTORE PUSH1 0x20 ADD SWAP1 DUP2 MSTORE PUSH1 0x20 ADD PUSH1 0x0 KECCAK256 PUSH1 0x0 DUP6 PUSH20 0xFFFFFFFFFFFFFFFFFFFFFFFFFFFFFFFFFFFFFFFF AND PUSH20 0xFFFFFFFFFFFFFFFFFFFFFFFFFFFFFFFFFFFFFFFF AND DUP2 MSTORE PUSH1 0x20 ADD SWAP1 DUP2 MSTORE PUSH1 0x20 ADD PUSH1 0x0 KECCAK256 DUP2 SWAP1 SSTORE POP DUP1 ISZERO PUSH2 0x25FC JUMPI DUP3 PUSH20 0xFFFFFFFFFFFFFFFFFFFFFFFFFFFFFFFFFFFFFFFF AND DUP5 PUSH20 0xFFFFFFFFFFFFFFFFFFFFFFFFFFFFFFFFFFFFFFFF AND PUSH32 0x8C5BE1E5EBEC7D5BD14F71427D1E84F3DD0314C0F7B2291E5B200AC8C7C3B925 DUP5 PUSH1 0x40 MLOAD PUSH2 0x25F3 SWAP2 SWAP1 PUSH2 0x28E2 JUMP JUMPDEST PUSH1 0x40 MLOAD DUP1 SWAP2 SUB SWAP1 LOG3 JUMPDEST POP POP POP POP JUMP JUMPDEST PUSH1 0x0 PUSH20 0xFFFFFFFFFFFFFFFFFFFFFFFFFFFFFFFFFFFFFFFF AND DUP4 PUSH20 0xFFFFFFFFFFFFFFFFFFFFFFFFFFFFFFFFFFFFFFFF AND SUB PUSH2 0x2654 JUMPI DUP1 PUSH1 0x2 PUSH1 0x0 DUP3 DUP3 SLOAD PUSH2 0x2648 SWAP2 SWAP1 PUSH2 0x3220 JUMP JUMPDEST SWAP3 POP POP DUP2 SWAP1 SSTORE POP PUSH2 0x2727 JUMP JUMPDEST PUSH1 0x0 DUP1 PUSH1 0x0 DUP6 PUSH20 0xFFFFFFFFFFFFFFFFFFFFFFFFFFFFFFFFFFFFFFFF AND PUSH20 0xFFFFFFFFFFFFFFFFFFFFFFFFFFFFFFFFFFFFFFFF AND DUP2 MSTORE PUSH1 0x20 ADD SWAP1 DUP2 MSTORE PUSH1 0x20 ADD PUSH1 0x0 KECCAK256 SLOAD SWAP1 POP DUP2 DUP2 LT ISZERO PUSH2 0x26E0 JUMPI DUP4 DUP2 DUP4 PUSH1 0x40 MLOAD PUSH32 0xE450D38C00000000000000000000000000000000000000000000000000000000 DUP2 MSTORE PUSH1 0x4 ADD PUSH2 0x26D7 SWAP4 SWAP3 SWAP2 SWAP1 PUSH2 0x3347 JUMP JUMPDEST PUSH1 0x40 MLOAD DUP1 SWAP2 SUB SWAP1 REVERT JUMPDEST DUP2 DUP2 SUB PUSH1 0x0 DUP1 DUP7 PUSH20 0xFFFFFFFFFFFFFFFFFFFFFFFFFFFFFFFFFFFFFFFF AND PUSH20 0xFFFFFFFFFFFFFFFFFFFFFFFFFFFFFFFFFFFFFFFF AND DUP2 MSTORE PUSH1 0x20 ADD SWAP1 DUP2 MSTORE PUSH1 0x20 ADD PUSH1 0x0 KECCAK256 DUP2 SWAP1 SSTORE POP POP JUMPDEST PUSH1 0x0 PUSH20 0xFFFFFFFFFFFFFFFFFFFFFFFFFFFFFFFFFFFFFFFF AND DUP3 PUSH20 0xFFFFFFFFFFFFFFFFFFFFFFFFFFFFFFFFFFFFFFFF AND SUB PUSH2 0x2770 JUMPI DUP1 PUSH1 0x2 PUSH1 0x0 DUP3 DUP3 SLOAD SUB SWAP3 POP POP DUP2 SWAP1 SSTORE POP PUSH2 0x27BD JUMP JUMPDEST DUP1 PUSH1 0x0 DUP1 DUP5 PUSH20 0xFFFFFFFFFFFFFFFFFFFFFFFFFFFFFFFFFFFFFFFF AND PUSH20 0xFFFFFFFFFFFFFFFFFFFFFFFFFFFFFFFFFFFFFFFF AND DUP2 MSTORE PUSH1 0x20 ADD SWAP1 DUP2 MSTORE PUSH1 0x20 ADD PUSH1 0x0 KECCAK256 PUSH1 0x0 DUP3 DUP3 SLOAD ADD SWAP3 POP POP DUP2 SWAP1 SSTORE POP JUMPDEST DUP2 PUSH20 0xFFFFFFFFFFFFFFFFFFFFFFFFFFFFFFFFFFFFFFFF AND DUP4 PUSH20 0xFFFFFFFFFFFFFFFFFFFFFFFFFFFFFFFFFFFFFFFF AND PUSH32 0xDDF252AD1BE2C89B69C2B068FC378DAA952BA7F163C4A11628F55A4DF523B3EF DUP4 PUSH1 0x40 MLOAD PUSH2 0x281A SWAP2 SWAP1 PUSH2 0x28E2 JUMP JUMPDEST PUSH1 0x40 MLOAD DUP1 SWAP2 SUB SWAP1 LOG3 POP POP POP JUMP JUMPDEST PUSH1 0x0 DUP1 PUSH1 0x20 PUSH1 0x0 DUP5 MLOAD PUSH1 0x20 DUP7 ADD PUSH1 0x0 DUP9 GAS CALL DUP1 PUSH2 0x284A JUMPI PUSH1 0x40 MLOAD RETURNDATASIZE PUSH1 0x0 DUP3 RETURNDATACOPY RETURNDATASIZE DUP2 REVERT JUMPDEST RETURNDATASIZE SWAP3 POP PUSH1 0x0 MLOAD SWAP2 POP POP PUSH1 0x0 DUP3 EQ PUSH2 0x2865 JUMPI PUSH1 0x1 DUP2 EQ ISZERO PUSH2 0x2881 JUMP JUMPDEST PUSH1 0x0 DUP5 PUSH20 0xFFFFFFFFFFFFFFFFFFFFFFFFFFFFFFFFFFFFFFFF AND EXTCODESIZE EQ JUMPDEST ISZERO PUSH2 0x28C3 JUMPI DUP4 PUSH1 0x40 MLOAD PUSH32 0x5274AFE700000000000000000000000000000000000000000000000000000000 DUP2 MSTORE PUSH1 0x4 ADD PUSH2 0x28BA SWAP2 SWAP1 PUSH2 0x2D8D JUMP JUMPDEST PUSH1 0x40 MLOAD DUP1 SWAP2 SUB SWAP1 REVERT JUMPDEST POP POP POP POP JUMP JUMPDEST PUSH1 0x0 DUP2 SWAP1 POP SWAP2 SWAP1 POP JUMP JUMPDEST PUSH2 0x28DC DUP2 PUSH2 0x28C9 JUMP JUMPDEST DUP3 MSTORE POP POP JUMP JUMPDEST PUSH1 0x0 PUSH1 0x20 DUP3 ADD SWAP1 POP PUSH2 0x28F7 PUSH1 0x0 DUP4 ADD DUP5 PUSH2 0x28D3 JUMP JUMPDEST SWAP3 SWAP2 POP POP JUMP JUMPDEST PUSH1 0x0 DUP2 MLOAD SWAP1 POP SWAP2 SWAP1 POP JUMP JUMPDEST PUSH1 0x0 DUP3 DUP3 MSTORE PUSH1 0x20 DUP3 ADD SWAP1 POP SWAP3 SWAP2 POP POP JUMP JUMPDEST PUSH1 0x0 JUMPDEST DUP4 DUP2 LT ISZERO PUSH2 0x2937 JUMPI DUP1 DUP3 ADD MLOAD DUP2 DUP5 ADD MSTORE PUSH1 0x20 DUP2 ADD SWAP1 POP PUSH2 0x291C JUMP JUMPDEST PUSH1 0x0 DUP5 DUP5 ADD MSTORE POP POP POP POP JUMP JUMPDEST PUSH1 0x0 PUSH1 0x1F NOT PUSH1 0x1F DUP4 ADD AND SWAP1 POP SWAP2 SWAP1 POP JUMP JUMPDEST PUSH1 0x0 PUSH2 0x295F DUP3 PUSH2 0x28FD JUMP JUMPDEST PUSH2 0x2969 DUP2 DUP6 PUSH2 0x2908 JUMP JUMPDEST SWAP4 POP PUSH2 0x2979 DUP2 DUP6 PUSH1 0x20 DUP7 ADD PUSH2 0x2919 JUMP JUMPDEST PUSH2 0x2982 DUP2 PUSH2 0x2943 JUMP JUMPDEST DUP5 ADD SWAP2 POP POP SWAP3 SWAP2 POP POP JUMP JUMPDEST PUSH1 0x0 PUSH1 0x20 DUP3 ADD SWAP1 POP DUP2 DUP2 SUB PUSH1 0x0 DUP4 ADD MSTORE PUSH2 0x29A7 DUP2 DUP5 PUSH2 0x2954 JUMP JUMPDEST SWAP1 POP SWAP3 SWAP2 POP POP JUMP JUMPDEST PUSH1 0x0 DUP1 REVERT JUMPDEST PUSH1 0x0 PUSH20 0xFFFFFFFFFFFFFFFFFFFFFFFFFFFFFFFFFFFFFFFF DUP3 AND SWAP1 POP SWAP2 SWAP1 POP JUMP JUMPDEST PUSH1 0x0 PUSH2 0x29DF DUP3 PUSH2 0x29B4 JUMP JUMPDEST SWAP1 POP SWAP2 SWAP1 POP JUMP JUMPDEST PUSH2 0x29EF DUP2 PUSH2 0x29D4 JUMP JUMPDEST DUP2 EQ PUSH2 0x29FA JUMPI PUSH1 0x0 DUP1 REVERT JUMPDEST POP JUMP JUMPDEST PUSH1 0x0 DUP2 CALLDATALOAD SWAP1 POP PUSH2 0x2A0C DUP2 PUSH2 0x29E6 JUMP JUMPDEST SWAP3 SWAP2 POP POP JUMP JUMPDEST PUSH2 0x2A1B DUP2 PUSH2 0x28C9 JUMP JUMPDEST DUP2 EQ PUSH2 0x2A26 JUMPI PUSH1 0x0 DUP1 REVERT JUMPDEST POP JUMP JUMPDEST PUSH1 0x0 DUP2 CALLDATALOAD SWAP1 POP PUSH2 0x2A38 DUP2 PUSH2 0x2A12 JUMP JUMPDEST SWAP3 SWAP2 POP POP JUMP JUMPDEST PUSH1 0x0 DUP1 PUSH1 0x40 DUP4 DUP6 SUB SLT ISZERO PUSH2 0x2A55 JUMPI PUSH2 0x2A54 PUSH2 0x29AF JUMP JUMPDEST JUMPDEST PUSH1 0x0 PUSH2 0x2A63 DUP6 DUP3 DUP7 ADD PUSH2 0x29FD JUMP JUMPDEST SWAP3 POP POP PUSH1 0x20 PUSH2 0x2A74 DUP6 DUP3 DUP7 ADD PUSH2 0x2A29 JUMP JUMPDEST SWAP2 POP POP SWAP3 POP SWAP3 SWAP1 POP JUMP JUMPDEST PUSH1 0x0 DUP2 ISZERO ISZERO SWAP1 POP SWAP2 SWAP1 POP JUMP JUMPDEST PUSH2 0x2A93 DUP2 PUSH2 0x2A7E JUMP JUMPDEST DUP3 MSTORE POP POP JUMP JUMPDEST PUSH1 0x0 PUSH1 0x20 DUP3 ADD SWAP1 POP PUSH2 0x2AAE PUSH1 0x0 DUP4 ADD DUP5 PUSH2 0x2A8A JUMP JUMPDEST SWAP3 SWAP2 POP POP JUMP JUMPDEST PUSH1 0x0 DUP1 PUSH1 0x0 PUSH1 0x60 DUP5 DUP7 SUB SLT ISZERO PUSH2 0x2ACD JUMPI PUSH2 0x2ACC PUSH2 0x29AF JUMP JUMPDEST JUMPDEST PUSH1 0x0 PUSH2 0x2ADB DUP7 DUP3 DUP8 ADD PUSH2 0x29FD JUMP JUMPDEST SWAP4 POP POP PUSH1 0x20 PUSH2 0x2AEC DUP7 DUP3 DUP8 ADD PUSH2 0x29FD JUMP JUMPDEST SWAP3 POP POP PUSH1 0x40 PUSH2 0x2AFD DUP7 DUP3 DUP8 ADD PUSH2 0x2A29 JUMP JUMPDEST SWAP2 POP POP SWAP3 POP SWAP3 POP SWAP3 JUMP JUMPDEST PUSH1 0x0 PUSH3 0xFFFFFF DUP3 AND SWAP1 POP SWAP2 SWAP1 POP JUMP JUMPDEST PUSH2 0x2B1F DUP2 PUSH2 0x2B07 JUMP JUMPDEST DUP2 EQ PUSH2 0x2B2A JUMPI PUSH1 0x0 DUP1 REVERT JUMPDEST POP JUMP JUMPDEST PUSH1 0x0 DUP2 CALLDATALOAD SWAP1 POP PUSH2 0x2B3C DUP2 PUSH2 0x2B16 JUMP JUMPDEST SWAP3 SWAP2 POP POP JUMP JUMPDEST PUSH1 0x0 DUP1 PUSH1 0x0 DUP1 PUSH1 0x0 DUP1 PUSH1 0x0 DUP1 PUSH2 0x100 DUP10 DUP12 SUB SLT ISZERO PUSH2 0x2B63 JUMPI PUSH2 0x2B62 PUSH2 0x29AF JUMP JUMPDEST JUMPDEST PUSH1 0x0 PUSH2 0x2B71 DUP12 DUP3 DUP13 ADD PUSH2 0x2B2D JUMP JUMPDEST SWAP9 POP POP PUSH1 0x20 PUSH2 0x2B82 DUP12 DUP3 DUP13 ADD PUSH2 0x2B2D JUMP JUMPDEST SWAP8 POP POP PUSH1 0x40 PUSH2 0x2B93 DUP12 DUP3 DUP13 ADD PUSH2 0x2B2D JUMP JUMPDEST SWAP7 POP POP PUSH1 0x60 PUSH2 0x2BA4 DUP12 DUP3 DUP13 ADD PUSH2 0x2B2D JUMP JUMPDEST SWAP6 POP POP PUSH1 0x80 PUSH2 0x2BB5 DUP12 DUP3 DUP13 ADD PUSH2 0x2A29 JUMP JUMPDEST SWAP5 POP POP PUSH1 0xA0 PUSH2 0x2BC6 DUP12 DUP3 DUP13 ADD PUSH2 0x2A29 JUMP JUMPDEST SWAP4 POP POP PUSH1 0xC0 PUSH2 0x2BD7 DUP12 DUP3 DUP13 ADD PUSH2 0x2A29 JUMP JUMPDEST SWAP3 POP POP PUSH1 0xE0 PUSH2 0x2BE8 DUP12 DUP3 DUP13 ADD PUSH2 0x2A29 JUMP JUMPDEST SWAP2 POP POP SWAP3 SWAP6 SWAP9 POP SWAP3 SWAP6 SWAP9 SWAP1 SWAP4 SWAP7 POP JUMP JUMPDEST PUSH1 0x0 DUP1 PUSH1 0x0 DUP1 PUSH1 0x0 PUSH1 0xA0 DUP7 DUP9 SUB SLT ISZERO PUSH2 0x2C14 JUMPI PUSH2 0x2C13 PUSH2 0x29AF JUMP JUMPDEST JUMPDEST PUSH1 0x0 PUSH2 0x2C22 DUP9 DUP3 DUP10 ADD PUSH2 0x2A29 JUMP JUMPDEST SWAP6 POP POP PUSH1 0x20 PUSH2 0x2C33 DUP9 DUP3 DUP10 ADD PUSH2 0x2B2D JUMP JUMPDEST SWAP5 POP POP PUSH1 0x40 PUSH2 0x2C44 DUP9 DUP3 DUP10 ADD PUSH2 0x2B2D JUMP JUMPDEST SWAP4 POP POP PUSH1 0x60 PUSH2 0x2C55 DUP9 DUP3 DUP10 ADD PUSH2 0x2A29 JUMP JUMPDEST SWAP3 POP POP PUSH1 0x80 PUSH2 0x2C66 DUP9 DUP3 DUP10 ADD PUSH2 0x2A29 JUMP JUMPDEST SWAP2 POP POP SWAP3 SWAP6 POP SWAP3 SWAP6 SWAP1 SWAP4 POP JUMP JUMPDEST PUSH1 0x0 PUSH1 0x20 DUP3 DUP5 SUB SLT ISZERO PUSH2 0x2C89 JUMPI PUSH2 0x2C88 PUSH2 0x29AF JUMP JUMPDEST JUMPDEST PUSH1 0x0 PUSH2 0x2C97 DUP5 DUP3 DUP6 ADD PUSH2 0x2A29 JUMP JUMPDEST SWAP2 POP POP SWAP3 SWAP2 POP POP JUMP JUMPDEST PUSH1 0x0 PUSH1 0xFF DUP3 AND SWAP1 POP SWAP2 SWAP1 POP JUMP JUMPDEST PUSH2 0x2CB6 DUP2 PUSH2 0x2CA0 JUMP JUMPDEST DUP3 MSTORE POP POP JUMP JUMPDEST PUSH1 0x0 PUSH1 0x20 DUP3 ADD SWAP1 POP PUSH2 0x2CD1 PUSH1 0x0 DUP4 ADD DUP5 PUSH2 0x2CAD JUMP JUMPDEST SWAP3 SWAP2 POP POP JUMP JUMPDEST PUSH1 0x0 DUP2 SWAP1 POP SWAP2 SWAP1 POP JUMP JUMPDEST PUSH1 0x0 PUSH2 0x2CFC PUSH2 0x2CF7 PUSH2 0x2CF2 DUP5 PUSH2 0x29B4 JUMP JUMPDEST PUSH2 0x2CD7 JUMP JUMPDEST PUSH2 0x29B4 JUMP JUMPDEST SWAP1 POP SWAP2 SWAP1 POP JUMP JUMPDEST PUSH1 0x0 PUSH2 0x2D0E DUP3 PUSH2 0x2CE1 JUMP JUMPDEST SWAP1 POP SWAP2 SWAP1 POP JUMP JUMPDEST PUSH1 0x0 PUSH2 0x2D20 DUP3 PUSH2 0x2D03 JUMP JUMPDEST SWAP1 POP SWAP2 SWAP1 POP JUMP JUMPDEST PUSH2 0x2D30 DUP2 PUSH2 0x2D15 JUMP JUMPDEST DUP3 MSTORE POP POP JUMP JUMPDEST PUSH1 0x0 PUSH1 0x20 DUP3 ADD SWAP1 POP PUSH2 0x2D4B PUSH1 0x0 DUP4 ADD DUP5 PUSH2 0x2D27 JUMP JUMPDEST SWAP3 SWAP2 POP POP JUMP JUMPDEST PUSH1 0x0 PUSH1 0x20 DUP3 DUP5 SUB SLT ISZERO PUSH2 0x2D67 JUMPI PUSH2 0x2D66 PUSH2 0x29AF JUMP JUMPDEST JUMPDEST PUSH1 0x0 PUSH2 0x2D75 DUP5 DUP3 DUP6 ADD PUSH2 0x29FD JUMP JUMPDEST SWAP2 POP POP SWAP3 SWAP2 POP POP JUMP JUMPDEST PUSH2 0x2D87 DUP2 PUSH2 0x29D4 JUMP JUMPDEST DUP3 MSTORE POP POP JUMP JUMPDEST PUSH1 0x0 PUSH1 0x20 DUP3 ADD SWAP1 POP PUSH2 0x2DA2 PUSH1 0x0 DUP4 ADD DUP5 PUSH2 0x2D7E JUMP JUMPDEST SWAP3 SWAP2 POP POP JUMP JUMPDEST PUSH1 0x0 DUP1 PUSH1 0x40 DUP4 DUP6 SUB SLT ISZERO PUSH2 0x2DBF JUMPI PUSH2 0x2DBE PUSH2 0x29AF JUMP JUMPDEST JUMPDEST PUSH1 0x0 PUSH2 0x2DCD DUP6 DUP3 DUP7 ADD PUSH2 0x29FD JUMP JUMPDEST SWAP3 POP POP PUSH1 0x20 PUSH2 0x2DDE DUP6 DUP3 DUP7 ADD PUSH2 0x29FD JUMP JUMPDEST SWAP2 POP POP SWAP3 POP SWAP3 SWAP1 POP JUMP JUMPDEST PUSH1 0x0 PUSH1 0x60 DUP3 ADD SWAP1 POP PUSH2 0x2DFD PUSH1 0x0 DUP4 ADD DUP7 PUSH2 0x28D3 JUMP JUMPDEST PUSH2 0x2E0A PUSH1 0x20 DUP4 ADD DUP6 PUSH2 0x28D3 JUMP JUMPDEST PUSH2 0x2E17 PUSH1 0x40 DUP4 ADD DUP5 PUSH2 0x28D3 JUMP JUMPDEST SWAP5 SWAP4 POP POP POP POP JUMP JUMPDEST PUSH1 0x0 PUSH2 0x2E2A DUP3 PUSH2 0x2D03 JUMP JUMPDEST SWAP1 POP SWAP2 SWAP1 POP JUMP JUMPDEST PUSH2 0x2E3A DUP2 PUSH2 0x2E1F JUMP JUMPDEST DUP3 MSTORE POP POP JUMP JUMPDEST PUSH1 0x0 PUSH1 0x20 DUP3 ADD SWAP1 POP PUSH2 0x2E55 PUSH1 0x0 DUP4 ADD DUP5 PUSH2 0x2E31 JUMP JUMPDEST SWAP3 SWAP2 POP POP JUMP JUMPDEST PUSH32 0x4E487B7100000000000000000000000000000000000000000000000000000000 PUSH1 0x0 MSTORE PUSH1 0x22 PUSH1 0x4 MSTORE PUSH1 0x24 PUSH1 0x0 REVERT JUMPDEST PUSH1 0x0 PUSH1 0x2 DUP3 DIV SWAP1 POP PUSH1 0x1 DUP3 AND DUP1 PUSH2 0x2EA2 JUMPI PUSH1 0x7F DUP3 AND SWAP2 POP JUMPDEST PUSH1 0x20 DUP3 LT DUP2 SUB PUSH2 0x2EB5 JUMPI PUSH2 0x2EB4 PUSH2 0x2E5B JUMP JUMPDEST JUMPDEST POP SWAP2 SWAP1 POP JUMP JUMPDEST PUSH1 0x0 DUP2 MLOAD SWAP1 POP PUSH2 0x2ECA DUP2 PUSH2 0x2A12 JUMP JUMPDEST SWAP3 SWAP2 POP POP JUMP JUMPDEST PUSH1 0x0 PUSH1 0x20 DUP3 DUP5 SUB SLT ISZERO PUSH2 0x2EE6 JUMPI PUSH2 0x2EE5 PUSH2 0x29AF JUMP JUMPDEST JUMPDEST PUSH1 0x0 PUSH2 0x2EF4 DUP5 DUP3 DUP6 ADD PUSH2 0x2EBB JUMP JUMPDEST SWAP2 POP POP SWAP3 SWAP2 POP POP JUMP JUMPDEST PUSH32 0x4E487B7100000000000000000000000000000000000000000000000000000000 PUSH1 0x0 MSTORE PUSH1 0x11 PUSH1 0x4 MSTORE PUSH1 0x24 PUSH1 0x0 REVERT JUMPDEST PUSH1 0x0 PUSH2 0x2F37 DUP3 PUSH2 0x28C9 JUMP JUMPDEST SWAP2 POP PUSH2 0x2F42 DUP4 PUSH2 0x28C9 JUMP JUMPDEST SWAP3 POP DUP3 DUP3 MUL PUSH2 0x2F50 DUP2 PUSH2 0x28C9 JUMP JUMPDEST SWAP2 POP DUP3 DUP3 DIV DUP5 EQ DUP4 ISZERO OR PUSH2 0x2F67 JUMPI PUSH2 0x2F66 PUSH2 0x2EFD JUMP JUMPDEST JUMPDEST POP SWAP3 SWAP2 POP POP JUMP JUMPDEST PUSH32 0x4E487B7100000000000000000000000000000000000000000000000000000000 PUSH1 0x0 MSTORE PUSH1 0x12 PUSH1 0x4 MSTORE PUSH1 0x24 PUSH1 0x0 REVERT JUMPDEST PUSH1 0x0 PUSH2 0x2FA8 DUP3 PUSH2 0x28C9 JUMP JUMPDEST SWAP2 POP PUSH2 0x2FB3 DUP4 PUSH2 0x28C9 JUMP JUMPDEST SWAP3 POP DUP3 PUSH2 0x2FC3 JUMPI PUSH2 0x2FC2 PUSH2 0x2F6E JUMP JUMPDEST JUMPDEST DUP3 DUP3 DIV SWAP1 POP SWAP3 SWAP2 POP POP JUMP JUMPDEST PUSH32 0x616D6F756E74496E203D20300000000000000000000000000000000000000000 PUSH1 0x0 DUP3 ADD MSTORE POP JUMP JUMPDEST PUSH1 0x0 PUSH2 0x3004 PUSH1 0xC DUP4 PUSH2 0x2908 JUMP JUMPDEST SWAP2 POP PUSH2 0x300F DUP3 PUSH2 0x2FCE JUMP JUMPDEST PUSH1 0x20 DUP3 ADD SWAP1 POP SWAP2 SWAP1 POP JUMP JUMPDEST PUSH1 0x0 PUSH1 0x20 DUP3 ADD SWAP1 POP DUP2 DUP2 SUB PUSH1 0x0 DUP4 ADD MSTORE PUSH2 0x3033 DUP2 PUSH2 0x2FF7 JUMP JUMPDEST SWAP1 POP SWAP2 SWAP1 POP JUMP JUMPDEST PUSH32 0x5A45524F5F534841524553000000000000000000000000000000000000000000 PUSH1 0x0 DUP3 ADD MSTORE POP JUMP JUMPDEST PUSH1 0x0 PUSH2 0x3070 PUSH1 0xB DUP4 PUSH2 0x2908 JUMP JUMPDEST SWAP2 POP PUSH2 0x307B DUP3 PUSH2 0x303A JUMP JUMPDEST PUSH1 0x20 DUP3 ADD SWAP1 POP SWAP2 SWAP1 POP JUMP JUMPDEST PUSH1 0x0 PUSH1 0x20 DUP3 ADD SWAP1 POP DUP2 DUP2 SUB PUSH1 0x0 DUP4 ADD MSTORE PUSH2 0x309F DUP2 PUSH2 0x3063 JUMP JUMPDEST SWAP1 POP SWAP2 SWAP1 POP JUMP JUMPDEST PUSH1 0x0 PUSH1 0x40 DUP3 ADD SWAP1 POP PUSH2 0x30BB PUSH1 0x0 DUP4 ADD DUP6 PUSH2 0x28D3 JUMP JUMPDEST PUSH2 0x30C8 PUSH1 0x20 DUP4 ADD DUP5 PUSH2 0x28D3 JUMP JUMPDEST SWAP4 SWAP3 POP POP POP JUMP JUMPDEST PUSH32 0x736861726573203D203000000000000000000000000000000000000000000000 PUSH1 0x0 DUP3 ADD MSTORE POP JUMP JUMPDEST PUSH1 0x0 PUSH2 0x3105 PUSH1 0xA DUP4 PUSH2 0x2908 JUMP JUMPDEST SWAP2 POP PUSH2 0x3110 DUP3 PUSH2 0x30CF JUMP JUMPDEST PUSH1 0x20 DUP3 ADD SWAP1 POP SWAP2 SWAP1 POP JUMP JUMPDEST PUSH1 0x0 PUSH1 0x20 DUP3 ADD SWAP1 POP DUP2 DUP2 SUB PUSH1 0x0 DUP4 ADD MSTORE PUSH2 0x3134 DUP2 PUSH2 0x30F8 JUMP JUMPDEST SWAP1 POP SWAP2 SWAP1 POP JUMP JUMPDEST PUSH32 0x6578636565647320737570706C79000000000000000000000000000000000000 PUSH1 0x0 DUP3 ADD MSTORE POP JUMP JUMPDEST PUSH1 0x0 PUSH2 0x3171 PUSH1 0xE DUP4 PUSH2 0x2908 JUMP JUMPDEST SWAP2 POP PUSH2 0x317C DUP3 PUSH2 0x313B JUMP JUMPDEST PUSH1 0x20 DUP3 ADD SWAP1 POP SWAP2 SWAP1 POP JUMP JUMPDEST PUSH1 0x0 PUSH1 0x20 DUP3 ADD SWAP1 POP DUP2 DUP2 SUB PUSH1 0x0 DUP4 ADD MSTORE PUSH2 0x31A0 DUP2 PUSH2 0x3164 JUMP JUMPDEST SWAP1 POP SWAP2 SWAP1 POP JUMP JUMPDEST PUSH1 0x0 PUSH1 0x80 DUP3 ADD SWAP1 POP PUSH2 0x31BC PUSH1 0x0 DUP4 ADD DUP8 PUSH2 0x28D3 JUMP JUMPDEST PUSH2 0x31C9 PUSH1 0x20 DUP4 ADD DUP7 PUSH2 0x28D3 JUMP JUMPDEST PUSH2 0x31D6 PUSH1 0x40 DUP4 ADD DUP6 PUSH2 0x28D3 JUMP JUMPDEST PUSH2 0x31E3 PUSH1 0x60 DUP4 ADD DUP5 PUSH2 0x28D3 JUMP JUMPDEST SWAP6 SWAP5 POP POP POP POP POP JUMP JUMPDEST PUSH1 0x0 PUSH2 0x31F7 DUP3 PUSH2 0x28C9 JUMP JUMPDEST SWAP2 POP PUSH2 0x3202 DUP4 PUSH2 0x28C9 JUMP JUMPDEST SWAP3 POP DUP3 DUP3 SUB SWAP1 POP DUP2 DUP2 GT ISZERO PUSH2 0x321A JUMPI PUSH2 0x3219 PUSH2 0x2EFD JUMP JUMPDEST JUMPDEST SWAP3 SWAP2 POP POP JUMP JUMPDEST PUSH1 0x0 PUSH2 0x322B DUP3 PUSH2 0x28C9 JUMP JUMPDEST SWAP2 POP PUSH2 0x3236 DUP4 PUSH2 0x28C9 JUMP JUMPDEST SWAP3 POP DUP3 DUP3 ADD SWAP1 POP DUP1 DUP3 GT ISZERO PUSH2 0x324E JUMPI PUSH2 0x324D PUSH2 0x2EFD JUMP JUMPDEST JUMPDEST SWAP3 SWAP2 POP POP JUMP JUMPDEST PUSH1 0x0 PUSH10 0xFFFFFFFFFFFFFFFFFFFF DUP3 AND SWAP1 POP SWAP2 SWAP1 POP JUMP JUMPDEST PUSH2 0x3273 DUP2 PUSH2 0x3254 JUMP JUMPDEST DUP2 EQ PUSH2 0x327E JUMPI PUSH1 0x0 DUP1 REVERT JUMPDEST POP JUMP JUMPDEST PUSH1 0x0 DUP2 MLOAD SWAP1 POP PUSH2 0x3290 DUP2 PUSH2 0x326A JUMP JUMPDEST SWAP3 SWAP2 POP POP JUMP JUMPDEST PUSH1 0x0 DUP2 SWAP1 POP SWAP2 SWAP1 POP JUMP JUMPDEST PUSH2 0x32A9 DUP2 PUSH2 0x3296 JUMP JUMPDEST DUP2 EQ PUSH2 0x32B4 JUMPI PUSH1 0x0 DUP1 REVERT JUMPDEST POP JUMP JUMPDEST PUSH1 0x0 DUP2 MLOAD SWAP1 POP PUSH2 0x32C6 DUP2 PUSH2 0x32A0 JUMP JUMPDEST SWAP3 SWAP2 POP POP JUMP JUMPDEST PUSH1 0x0 DUP1 PUSH1 0x0 DUP1 PUSH1 0x0 PUSH1 0xA0 DUP7 DUP9 SUB SLT ISZERO PUSH2 0x32E8 JUMPI PUSH2 0x32E7 PUSH2 0x29AF JUMP JUMPDEST JUMPDEST PUSH1 0x0 PUSH2 0x32F6 DUP9 DUP3 DUP10 ADD PUSH2 0x3281 JUMP JUMPDEST SWAP6 POP POP PUSH1 0x20 PUSH2 0x3307 DUP9 DUP3 DUP10 ADD PUSH2 0x32B7 JUMP JUMPDEST SWAP5 POP POP PUSH1 0x40 PUSH2 0x3318 DUP9 DUP3 DUP10 ADD PUSH2 0x2EBB JUMP JUMPDEST SWAP4 POP POP PUSH1 0x60 PUSH2 0x3329 DUP9 DUP3 DUP10 ADD PUSH2 0x2EBB JUMP JUMPDEST SWAP3 POP POP PUSH1 0x80 PUSH2 0x333A DUP9 DUP3 DUP10 ADD PUSH2 0x3281 JUMP JUMPDEST SWAP2 POP POP SWAP3 SWAP6 POP SWAP3 SWAP6 SWAP1 SWAP4 POP JUMP JUMPDEST PUSH1 0x0 PUSH1 0x60 DUP3 ADD SWAP1 POP PUSH2 0x335C PUSH1 0x0 DUP4 ADD DUP7 PUSH2 0x2D7E JUMP JUMPDEST PUSH2 0x3369 PUSH1 0x20 DUP4 ADD DUP6 PUSH2 0x28D3 JUMP JUMPDEST PUSH2 0x3376 PUSH1 0x40 DUP4 ADD DUP5 PUSH2 0x28D3 JUMP JUMPDEST SWAP5 SWAP4 POP POP POP POP JUMP JUMPDEST PUSH2 0x3387 DUP2 PUSH2 0x29D4 JUMP JUMPDEST DUP3 MSTORE POP POP JUMP JUMPDEST PUSH2 0x3396 DUP2 PUSH2 0x2B07 JUMP JUMPDEST DUP3 MSTORE POP POP JUMP JUMPDEST PUSH2 0x33A5 DUP2 PUSH2 0x28C9 JUMP JUMPDEST DUP3 MSTORE POP POP JUMP JUMPDEST PUSH2 0x33B4 DUP2 PUSH2 0x29B4 JUMP JUMPDEST DUP3 MSTORE POP POP JUMP JUMPDEST PUSH1 0xE0 DUP3 ADD PUSH1 0x0 DUP3 ADD MLOAD PUSH2 0x33D0 PUSH1 0x0 DUP6 ADD DUP3 PUSH2 0x337E JUMP JUMPDEST POP PUSH1 0x20 DUP3 ADD MLOAD PUSH2 0x33E3 PUSH1 0x20 DUP6 ADD DUP3 PUSH2 0x337E JUMP JUMPDEST POP PUSH1 0x40 DUP3 ADD MLOAD PUSH2 0x33F6 PUSH1 0x40 DUP6 ADD DUP3 PUSH2 0x338D JUMP JUMPDEST POP PUSH1 0x60 DUP3 ADD MLOAD PUSH2 0x3409 PUSH1 0x60 DUP6 ADD DUP3 PUSH2 0x337E JUMP JUMPDEST POP PUSH1 0x80 DUP3 ADD MLOAD PUSH2 0x341C PUSH1 0x80 DUP6 ADD DUP3 PUSH2 0x339C JUMP JUMPDEST POP PUSH1 0xA0 DUP3 ADD MLOAD PUSH2 0x342F PUSH1 0xA0 DUP6 ADD DUP3 PUSH2 0x339C JUMP JUMPDEST POP PUSH1 0xC0 DUP3 ADD MLOAD PUSH2 0x3442 PUSH1 0xC0 DUP6 ADD DUP3 PUSH2 0x33AB JUMP JUMPDEST POP POP POP POP JUMP JUMPDEST PUSH1 0x0 PUSH1 0xE0 DUP3 ADD SWAP1 POP PUSH2 0x345D PUSH1 0x0 DUP4 ADD DUP5 PUSH2 0x33BA JUMP JUMPDEST SWAP3 SWAP2 POP POP JUMP JUMPDEST PUSH1 0x0 PUSH1 0x60 DUP3 ADD SWAP1 POP PUSH2 0x3478 PUSH1 0x0 DUP4 ADD DUP7 PUSH2 0x2D7E JUMP JUMPDEST PUSH2 0x3485 PUSH1 0x20 DUP4 ADD DUP6 PUSH2 0x2D7E JUMP JUMPDEST PUSH2 0x3492 PUSH1 0x40 DUP4 ADD DUP5 PUSH2 0x28D3 JUMP JUMPDEST SWAP5 SWAP4 POP POP POP POP JUMP JUMPDEST PUSH1 0x0 PUSH1 0x40 DUP3 ADD SWAP1 POP PUSH2 0x34AF PUSH1 0x0 DUP4 ADD DUP6 PUSH2 0x2D7E JUMP JUMPDEST PUSH2 0x34BC PUSH1 0x20 DUP4 ADD DUP5 PUSH2 0x28D3 JUMP JUMPDEST SWAP4 SWAP3 POP POP POP JUMP INVALID LOG2 PUSH5 0x6970667358 0x22 SLT KECCAK256 SWAP1 0xC4 PUSH5 0xD4B5CD4D33 ORIGIN PUSH12 0xE47557827AE5770528DC590 SWAP10 BYTE POP 0xD2 GT 0xD5 CHAINID BLOCKHASH 0xA5 0xFB PUSH5 0x736F6C6343 STOP ADDMOD XOR STOP CALLER "},"methodIdentifiers":{"USDC()":"89a30271","WBTC()":"4dede3de","WETH()":"ad5c4648","allowance(address,address)":"dd62ed3e","approve(address,uint256)":"095ea7b3","balanceOf(address)":"70a08231","decimals()":"313ce567","deposit(uint256,uint24,uint24,uint256,uint256)":"2b1dafb9","holdings()":"e79bf13b","name()":"06fdde03","owner()":"8da5cb5b","rebalance(uint24,uint24,uint24,uint24,uint256,uint256,uint256,uint256)":"249ff635","renounceOwnership()":"715018a6","router()":"f887ea40","symbol()":"95d89b41","totalAssets()":"01e1d114","totalSupply()":"18160ddd","transfer(address,uint256)":"a9059cbb","transferFrom(address,address,uint256)":"23b872dd","transferOwnership(address)":"f2fde38b","withdraw(uint256)":"2e1a7d4d","withdrawUSDC(uint256,uint24,uint24,uint256,uint256)":"dc93421b"}}}}}