{
  "_format": "hh-sol-artifact-1",
  "contractName": "ETFVault",
  "sourceName": "contracts/Vault.sol",
  "abi": [
    {
      "inputs": [
        {
          "internalType": "address",
          "name": "_router",
          "type": "address"
        }
      ],
      "stateMutability": "nonpayable",
      "type": "constructor"
    },
    {
      "inputs": [
        {
          "internalType": "address",
          "name": "spender",
          "type": "address"
        },
        {
          "internalType": "uint256",
          "name": "allowance",
          "type": "uint256"
        },
        {
          "internalType": "uint256",
          "name": "needed",
          "type": "uint256"
        }
      ],
      "name": "ERC20InsufficientAllowance",
      "type": "error"
    },
    {
      "inputs": [
        {
          "internalType": "address",
          "name": "sender",
          "type": "address"
        },
        {
          "internalType": "uint256",
          "name": "balance",
          "type": "uint256"
        },
        {
          "internalType": "uint256",
          "name": "needed",
          "type": "uint256"
        }
      ],
      "name": "ERC20InsufficientBalance",
      "type": "error"
    },
    {
      "inputs": [
        {
          "internalType": "address",
          "name": "approver",
          "type": "address"
        }
      ],
      "name": "ERC20InvalidApprover",
      "type": "error"
    },
    {
      "inputs": [
        {
          "internalType": "address",
          "name": "receiver",
          "type": "address"
        }
      ],
      "name": "ERC20InvalidReceiver",
      "type": "error"
    },
    {
      "inputs": [
        {
          "internalType": "address",
          "name": "sender",
          "type": "address"
        }
      ],
      "name": "ERC20InvalidSender",
      "type": "error"
    },
    {
      "inputs": [
        {
          "internalType": "address",
          "name": "spender",
          "type": "address"
        }
      ],
      "name": "ERC20InvalidSpender",
      "type": "error"
    },
    {
      "inputs": [
        {
          "internalType": "address",
          "name": "owner",
          "type": "address"
        }
      ],
      "name": "OwnableInvalidOwner",
      "type": "error"
    },
    {
      "inputs": [
        {
          "internalType": "address",
          "name": "account",
          "type": "address"
        }
      ],
      "name": "OwnableUnauthorizedAccount",
      "type": "error"
    },
    {
      "inputs": [],
      "name": "ReentrancyGuardReentrantCall",
      "type": "error"
    },
    {
      "inputs": [
        {
          "internalType": "address",
          "name": "token",
          "type": "address"
        }
      ],
      "name": "SafeERC20FailedOperation",
      "type": "error"
    },
    {
      "anonymous": false,
      "inputs": [
        {
          "indexed": true,
          "internalType": "address",
          "name": "owner",
          "type": "address"
        },
        {
          "indexed": true,
          "internalType": "address",
          "name": "spender",
          "type": "address"
        },
        {
          "indexed": false,
          "internalType": "uint256",
          "name": "value",
          "type": "uint256"
        }
      ],
      "name": "Approval",
      "type": "event"
    },
    {
      "anonymous": false,
      "inputs": [
        {
          "indexed": true,
          "internalType": "address",
          "name": "user",
          "type": "address"
        },
        {
          "indexed": false,
          "internalType": "uint256",
          "name": "usdcIn",
          "type": "uint256"
        },
        {
          "indexed": false,
          "internalType": "uint256",
          "name": "sharesOut",
          "type": "uint256"
        }
      ],
      "name": "Deposited",
      "type": "event"
    },
    {
      "anonymous": false,
      "inputs": [
        {
          "indexed": true,
          "internalType": "address",
          "name": "previousOwner",
          "type": "address"
        },
        {
          "indexed": true,
          "internalType": "address",
          "name": "newOwner",
          "type": "address"
        }
      ],
      "name": "OwnershipTransferred",
      "type": "event"
    },
    {
      "anonymous": false,
      "inputs": [
        {
          "indexed": false,
          "internalType": "uint256",
          "name": "newUsdc",
          "type": "uint256"
        },
        {
          "indexed": false,
          "internalType": "uint256",
          "name": "newWeth",
          "type": "uint256"
        },
        {
          "indexed": false,
          "internalType": "uint256",
          "name": "newWbtc",
          "type": "uint256"
        }
      ],
      "name": "Rebalanced",
      "type": "event"
    },
    {
      "anonymous": false,
      "inputs": [
        {
          "indexed": true,
          "internalType": "address",
          "name": "from",
          "type": "address"
        },
        {
          "indexed": true,
          "internalType": "address",
          "name": "to",
          "type": "address"
        },
        {
          "indexed": false,
          "internalType": "uint256",
          "name": "value",
          "type": "uint256"
        }
      ],
      "name": "Transfer",
      "type": "event"
    },
    {
      "anonymous": false,
      "inputs": [
        {
          "indexed": true,
          "internalType": "address",
          "name": "user",
          "type": "address"
        },
        {
          "indexed": false,
          "internalType": "uint256",
          "name": "sharesBurned",
          "type": "uint256"
        },
        {
          "indexed": false,
          "internalType": "uint256",
          "name": "usdcOut",
          "type": "uint256"
        },
        {
          "indexed": false,
          "internalType": "uint256",
          "name": "wethOut",
          "type": "uint256"
        },
        {
          "indexed": false,
          "internalType": "uint256",
          "name": "wbtcOut",
          "type": "uint256"
        }
      ],
      "name": "Withdrawn",
      "type": "event"
    },
    {
      "anonymous": false,
      "inputs": [
        {
          "indexed": true,
          "internalType": "address",
          "name": "user",
          "type": "address"
        },
        {
          "indexed": false,
          "internalType": "uint256",
          "name": "sharesBurned",
          "type": "uint256"
        },
        {
          "indexed": false,
          "internalType": "uint256",
          "name": "usdcOut",
          "type": "uint256"
        }
      ],
      "name": "WithdrawnUSDC",
      "type": "event"
    },
    {
      "inputs": [],
      "name": "USDC",
      "outputs": [
        {
          "internalType": "contract IERC20",
          "name": "",
          "type": "address"
        }
      ],
      "stateMutability": "view",
      "type": "function"
    },
    {
      "inputs": [],
      "name": "WBTC",
      "outputs": [
        {
          "internalType": "contract IERC20",
          "name": "",
          "type": "address"
        }
      ],
      "stateMutability": "view",
      "type": "function"
    },
    {
      "inputs": [],
      "name": "WETH",
      "outputs": [
        {
          "internalType": "contract IERC20",
          "name": "",
          "type": "address"
        }
      ],
      "stateMutability": "view",
      "type": "function"
    },
    {
      "inputs": [
        {
          "internalType": "address",
          "name": "owner",
          "type": "address"
        },
        {
          "internalType": "address",
          "name": "spender",
          "type": "address"
        }
      ],
      "name": "allowance",
      "outputs": [
        {
          "internalType": "uint256",
          "name": "",
          "type": "uint256"
        }
      ],
      "stateMutability": "view",
      "type": "function"
    },
    {
      "inputs": [
        {
          "internalType": "address",
          "name": "spender",
          "type": "address"
        },
        {
          "internalType": "uint256",
          "name": "value",
          "type": "uint256"
        }
      ],
      "name": "approve",
      "outputs": [
        {
          "internalType": "bool",
          "name": "",
          "type": "bool"
        }
      ],
      "stateMutability": "nonpayable",
      "type": "function"
    },
    {
      "inputs": [
        {
          "internalType": "address",
          "name": "account",
          "type": "address"
        }
      ],
      "name": "balanceOf",
      "outputs": [
        {
          "internalType": "uint256",
          "name": "",
          "type": "uint256"
        }
      ],
      "stateMutability": "view",
      "type": "function"
    },
    {
      "inputs": [],
      "name": "decimals",
      "outputs": [
        {
          "internalType": "uint8",
          "name": "",
          "type": "uint8"
        }
      ],
      "stateMutability": "view",
      "type": "function"
    },
    {
      "inputs": [
        {
          "internalType": "uint256",
          "name": "amountIn",
          "type": "uint256"
        },
        {
          "internalType": "uint24",
          "name": "poolFeeWETH",
          "type": "uint24"
        },
        {
          "internalType": "uint24",
          "name": "poolFeeWBTC",
          "type": "uint24"
        },
        {
          "internalType": "uint256",
          "name": "minOutWETH",
          "type": "uint256"
        },
        {
          "internalType": "uint256",
          "name": "minOutWBTC",
          "type": "uint256"
        }
      ],
      "name": "deposit",
      "outputs": [],
      "stateMutability": "nonpayable",
      "type": "function"
    },
    {
      "inputs": [],
      "name": "holdings",
      "outputs": [
        {
          "internalType": "uint256",
          "name": "usdcBal",
          "type": "uint256"
        },
        {
          "internalType": "uint256",
          "name": "wethBal",
          "type": "uint256"
        },
        {
          "internalType": "uint256",
          "name": "wbtcBal",
          "type": "uint256"
        }
      ],
      "stateMutability": "view",
      "type": "function"
    },
    {
      "inputs": [],
      "name": "name",
      "outputs": [
        {
          "internalType": "string",
          "name": "",
          "type": "string"
        }
      ],
      "stateMutability": "view",
      "type": "function"
    },
    {
      "inputs": [],
      "name": "owner",
      "outputs": [
        {
          "internalType": "address",
          "name": "",
          "type": "address"
        }
      ],
      "stateMutability": "view",
      "type": "function"
    },
    {
      "inputs": [
        {
          "internalType": "uint24",
          "name": "poolFeeETHtoUSDC",
          "type": "uint24"
        },
        {
          "internalType": "uint24",
          "name": "poolFeeBTCtoUSDC",
          "type": "uint24"
        },
        {
          "internalType": "uint24",
          "name": "poolFeeUSDCtoETH",
          "type": "uint24"
        },
        {
          "internalType": "uint24",
          "name": "poolFeeUSDCtoBTC",
          "type": "uint24"
        },
        {
          "internalType": "uint256",
          "name": "minOutUSDCfromETH",
          "type": "uint256"
        },
        {
          "internalType": "uint256",
          "name": "minOutUSDCfromBTC",
          "type": "uint256"
        },
        {
          "internalType": "uint256",
          "name": "minOutETH",
          "type": "uint256"
        },
        {
          "internalType": "uint256",
          "name": "minOutBTC",
          "type": "uint256"
        }
      ],
      "name": "rebalance",
      "outputs": [],
      "stateMutability": "nonpayable",
      "type": "function"
    },
    {
      "inputs": [],
      "name": "renounceOwnership",
      "outputs": [],
      "stateMutability": "nonpayable",
      "type": "function"
    },
    {
      "inputs": [],
      "name": "router",
      "outputs": [
        {
          "internalType": "contract ISwapRouter02",
          "name": "",
          "type": "address"
        }
      ],
      "stateMutability": "view",
      "type": "function"
    },
    {
      "inputs": [],
      "name": "symbol",
      "outputs": [
        {
          "internalType": "string",
          "name": "",
          "type": "string"
        }
      ],
      "stateMutability": "view",
      "type": "function"
    },
    {
      "inputs": [],
      "name": "totalAssets",
      "outputs": [
        {
          "internalType": "uint256",
          "name": "",
          "type": "uint256"
        }
      ],
      "stateMutability": "view",
      "type": "function"
    },
    {
      "inputs": [],
      "name": "totalSupply",
      "outputs": [
        {
          "internalType": "uint256",
          "name": "",
          "type": "uint256"
        }
      ],
      "stateMutability": "view",
      "type": "function"
    },
    {
      "inputs": [
        {
          "internalType": "address",
          "name": "to",
          "type": "address"
        },
        {
          "internalType": "uint256",
          "name": "value",
          "type": "uint256"
        }
      ],
      "name": "transfer",
      "outputs": [
        {
          "internalType": "bool",
          "name": "",
          "type": "bool"
        }
      ],
      "stateMutability": "nonpayable",
      "type": "function"
    },
    {
      "inputs": [
        {
          "internalType": "address",
          "name": "from",
          "type": "address"
        },
        {
          "internalType": "address",
          "name": "to",
          "type": "address"
        },
        {
          "internalType": "uint256",
          "name": "value",
          "type": "uint256"
        }
      ],
      "name": "transferFrom",
      "outputs": [
        {
          "internalType": "bool",
          "name": "",
          "type": "bool"
        }
      ],
      "stateMutability": "nonpayable",
      "type": "function"
    },
    {
      "inputs": [
        {
          "internalType": "address",
          "name": "newOwner",
          "type": "address"
        }
      ],
      "name": "transferOwnership",
      "outputs": [],
      "stateMutability": "nonpayable",
      "type": "function"
    },
    {
      "inputs": [
        {
          "internalType": "uint256",
          "name": "shares",
          "type": "uint256"
        }
      ],
      "name": "withdraw",
      "outputs": [],
      "stateMutability": "nonpayable",
      "type": "function"
    },
    {
      "inputs": [
        {
          "internalType": "uint256",
          "name": "shares",
          "type": "uint256"
        },
        {
          "internalType": "uint24",
          "name": "poolFeeETHtoUSDC",
          "type": "uint24"
        },
        {
          "internalType": "uint24",
          "name": "poolFeeBTCtoUSDC",
          "type": "uint24"
        },
        {
          "internalType": "uint256",
          "name": "minOutETH",
          "type": "uint256"
        },
        {
          "internalType": "uint256",
          "name": "minOutBTC",
          "type": "uint256"
        }
      ],
      "name": "withdrawUSDC",
      "outputs": [],
      "stateMutability": "nonpayable",
      "type": "function"
    }
  ],
  "bytecode": "0x60a0604081815234620005305781620026db803803809162000022828562000567565b83396020938491810103126200053057516001600160a01b0380821693918490036200053057825190620000568262000535565b600f82526e22aa23102b30bab63a102a37b5b2b760891b838301528351946200007f8662000535565b6004808752633b22aa2360e11b8588015283519093906001600160401b03908181116200051b576003908154906001948583811c9316801562000510575b8a841014620004fb578190601f93848111620004a5575b508a908483116001146200043e5760009262000432575b505060001982851b1c191690851b1782555b89519283116200041d5786548481811c9116801562000412575b89821014620003fd57818111620003b2575b5087908311600114620003465782939495969798996000936200033a575b505082841b92600019911b1c19161784555b3315620003235760058054336001600160a01b031982168117909255875194167f8be0079c531659141344cd1fd0a4f28419497f9722a3daafe3b4186f6b6457e0600080a36006558060805263095ea7b360e01b928383528181840152600019928360248201528581604481600073833589fcd6edb6e08f4c7c32d4f71b54bda029135af18015620002f65762000301575b5085518481528282820152836024820152858160448160007342000000000000000000000000000000000000065af18015620002f657620002d4575b50855193845283015260248201528181604481600073cbb7c0000ab88b473b1f5afd9ef808440eed33bf5af18015620002c95762000294575b82516121359081620005a6823960805181818161012401528181611c6701528181611d8801528181611e7a0152611f7e0152f35b81620002b892903d10620002c1575b620002af818362000567565b8101906200058b565b50388062000260565b503d620002a3565b83513d6000823e3d90fd5b620002ee90863d8811620002c157620002af818362000567565b503862000227565b87513d6000823e3d90fd5b6200031b90863d8811620002c157620002af818362000567565b5038620001eb565b8551631e4fbdf760e01b8152600081860152602490fd5b01519150388062000147565b90601f1983169187600052886000209260005b8181106200039c57509a84869798999a9b9c1062000381575b50505050811b01845562000159565b01519060f884600019921b161c191690553880808062000372565b8c830151855593860193918a01918a0162000359565b87600052886000208280860160051c8201928b8710620003f3575b0160051c019085905b828110620003e657505062000129565b60008155018590620003d6565b92508192620003cd565b602288634e487b7160e01b6000525260246000fd5b90607f169062000117565b604187634e487b7160e01b6000525260246000fd5b015190503880620000eb565b60008681528c8120899550929190601f198516908e5b8282106200048d575050841162000474575b505050811b018255620000fd565b015160001983871b60f8161c1916905538808062000466565b8385015186558b979095019493840193018e62000454565b909150846000528a6000208480850160051c8201928d8610620004f1575b918991869594930160051c01915b828110620004e1575050620000d4565b60008155859450899101620004d1565b92508192620004c3565b602289634e487b7160e01b6000525260246000fd5b92607f1692620000bd565b604186634e487b7160e01b6000525260246000fd5b600080fd5b604081019081106001600160401b038211176200055157604052565b634e487b7160e01b600052604160045260246000fd5b601f909101601f19168101906001600160401b038211908210176200055157604052565b90816020910312620005305751801515810362000530579056fe6080604052600436101561001257600080fd5b60003560e01c806301e1d114146115a057806306fdde03146114e0578063095ea7b31461145a57806318160ddd1461143c57806323b872dd1461134a578063249ff63514610fa25780632b1dafb914610d3a5780632e1a7d4d14610a6a578063313ce56714610a4e5780634dede3de14610a1f57806370a08231146109e5578063715018a61461098857806389a302711461095f5780638da5cb5b1461093657806395d89b4114610833578063a9059cbb14610802578063ad5c4648146107df578063dc93421b146103aa578063dd62ed3e14610359578063e79bf13b146101e6578063f2fde38b146101585763f887ea401461010e57600080fd5b34610153576000366003190112610153576040517f00000000000000000000000000000000000000000000000000000000000000006001600160a01b03168152602090f35b600080fd5b346101535760203660031901126101535761017161160c565b610179611b63565b6001600160a01b039081169081156101cd57600554826bffffffffffffffffffffffff60a01b821617600555167f8be0079c531659141344cd1fd0a4f28419497f9722a3daafe3b4186f6b6457e0600080a3005b604051631e4fbdf760e01b815260006004820152602490fd5b34610153576000366003190112610153576040516370a0823160e01b8082523060048301526020919082826024816000805160206120e08339815191525afa9182156102ef5760009261032a575b506040518181523060048201529280846024816006602160991b015afa9384156102ef576000946102fb575b50604051918252306004830152808260248173cbb7c0000ab88b473b1f5afd9ef808440eed33bf5afa9081156102ef576000916102bf575b506102bb9150604051938493846040919493926060820195825260208201520152565b0390f35b905081813d83116102e8575b6102d581836116bf565b81010312610153576102bb905184610298565b503d6102cb565b6040513d6000823e3d90fd5b9080945081813d8311610323575b61031381836116bf565b8101031261015357519284610260565b503d610309565b9091508281813d8311610352575b61034281836116bf565b8101031261015357519083610234565b503d610338565b346101535760403660031901126101535761037261160c565b61037a611622565b9060018060a01b038091166000526001602052604060002091166000526020526020604060002054604051908152f35b34610153576103b836611638565b6103c3929192611b8f565b6103ce851515611714565b600254926103de8487111561174d565b6040516370a0823160e01b81523060048201526020816024816000805160206120e08339815191525afa9081156102ef57879186916000916107a5575b5061042e92610429916116e1565b6116f4565b6040516370a0823160e01b81523060048201529095906020816024816006602160991b015afa9081156102ef578891879160009161076b575b5061047592610429916116e1565b6040516370a0823160e01b8152306004820152909560208260248173cbb7c0000ab88b473b1f5afd9ef808440eed33bf5afa80156102ef578992600091610732575b506104c592610429916116e1565b916104d08833611fb6565b6040516370a0823160e01b8152306004820152956020876024816000805160206120e08339815191525afa9687156102ef576000976106fe575b50806106ed575b505050806106dc575b50506040516370a0823160e01b81523060048201529190506020826024816000805160206120e08339815191525afa9182156102ef576000926106a8575b5081039081116106925761056b9161178a565b6040516370a0823160e01b81523060048201526020816024816000805160206120e08339815191525afa9081156102ef57600091610660575b5081116105ee575b6105b68133612055565b60405191825260208201527f6b5f943811797f72c223f980943e3891b89675be9c90a514366bd6af956775ec60403392a26001600655005b506040516370a0823160e01b81523060048201526020816024816000805160206120e08339815191525afa9081156102ef5760009161062e575b506105ac565b90506020813d602011610658575b81610649602093836116bf565b81010312610153575182610628565b3d915061063c565b90506020813d60201161068a575b8161067b602093836116bf565b810103126101535751836105a4565b3d915061066e565b634e487b7160e01b600052601160045260246000fd5b9091506020813d6020116106d4575b816106c4602093836116bf565b8101031261015357519084610558565b3d91506106b7565b6106e592611cc6565b83808061051a565b6106f692611bb2565b868080610511565b9096506020813d60201161072a575b8161071a602093836116bf565b810103126101535751958961050a565b3d915061070d565b9250506020823d602011610763575b8161074e602093836116bf565b810103126101535790518891906104c56104b7565b3d9150610741565b925050506020813d60201161079d575b81610788602093836116bf565b81010312610153575187908690610475610467565b3d915061077b565b925050506020813d6020116107d7575b816107c2602093836116bf565b8101031261015357518690859061042e61041b565b3d91506107b5565b34610153576000366003190112610153576040516006602160991b018152602090f35b346101535760403660031901126101535761082861081e61160c565b6024359033611a85565b602060405160018152f35b346101535760003660031901126101535760405160009060045460018160011c906001831692831561092c575b6020938484108114610916578386529081156108f6575060011461089b575b6102bb8461088f818803826116bf565b604051918291826115c3565b600460009081529294507f8a35acfbc15ff81a39ae7d344fd709f28e8600b4aa8c65c6b64bfe7fe36bd19b5b8284106108e357505050816102bb9361088f928201019361087f565b80548585018701529285019281016108c7565b60ff1916858501525050151560051b820101915061088f816102bb61087f565b634e487b7160e01b600052602260045260246000fd5b91607f1691610860565b34610153576000366003190112610153576005546040516001600160a01b039091168152602090f35b346101535760003660031901126101535760206040516000805160206120e08339815191528152f35b34610153576000366003190112610153576109a1611b63565b600580546001600160a01b031981169091556000906001600160a01b03167f8be0079c531659141344cd1fd0a4f28419497f9722a3daafe3b4186f6b6457e08280a3005b34610153576020366003190112610153576001600160a01b03610a0661160c565b1660005260006020526020604060002054604051908152f35b3461015357600036600319011261015357602060405173cbb7c0000ab88b473b1f5afd9ef808440eed33bf8152f35b3461015357600036600319011261015357602060405160128152f35b34610153576020806003193601126101535760043590610a88611b8f565b610a93821515611714565b60025490610aa38284111561174d565b6040516370a0823160e01b80825230600483015291602491818184816000805160206120e08339815191525afa9081156102ef5786918691600091610d05575b50610af192610429916116e1565b6040518481523060048201526006602160991b019591939190838184818a5afa9081156102ef5788918391600091610cd0575b50610b3292610429916116e1565b9460405190815230600482015273cbb7c0000ab88b473b1f5afd9ef808440eed33bf9184828581865afa80156102ef578992600091610c9b575b50610b7a92610429916116e1565b95610b858833611fb6565b610b8f8533612055565b6040519084600081840163a9059cbb60e01b9485825233888201528a604482015260448152610bbd816116a3565b519082855af1156102ef576000513d610c925750803b155b610c7b575060008491604051838101918252338682015289604482015260448152610bff816116a3565b519082855af1156102ef576000513d610c725750803b155b610c5d575050604051948552840152604083015260608201527f94ffd6b85c71b847775c89ef6496b93cee961bdc6ff827fd117f174f06f745ae60803392a26001600655005b60405190635274afe760e01b82526004820152fd5b60011415610c17565b839060405190635274afe760e01b82526004820152fd5b60011415610bd5565b809350868092503d8311610cc9575b610cb481836116bf565b81010312610153579051889190610b7a610b6c565b503d610caa565b925050508381813d8311610cfe575b610ce981836116bf565b81010312610153575187908290610b32610b24565b503d610cdf565b925050508181813d8311610d33575b610d1e81836116bf565b81010312610153575185908590610af1610ae3565b503d610d14565b3461015357610d4836611638565b919092610d53611b8f565b8415610f6e57600254610d646117e3565b81610f5b57505064e8d4a51000850264e8d4a50fff198682040161069257935b8415610f285760405191602083016323b872dd60e01b815260249333858201523060448201528860648201526064815260a0810181811067ffffffffffffffff821117610f1357602091600091604052516000805160206120e08339815191529382855af1156102ef576000513d610f0a5750803b155b610c7b57503315610ef257610e128660025461178a565b600255336000526000602052604060002086815401905560405186815260007fddf252ad1be2c89b69c2b068fc378daa952ba7f163c4a11628f55a4df523b3ef60203393a360328702878104603203610edd57906064610e73939204611dc0565b601e850290858204601e03610ec95750906064610e91939204611eb7565b60405191825260208201527f73a19dd210f1a7f902193214c0ee91dd35ee5b4d920cba8d519eca65a7b488ca60403392a26001600655005b634e487b7160e01b60009081526011600452fd5b83634e487b7160e01b60005260116004526000fd5b60405163ec442f0560e01b8152600060048201528390fd5b60011415610dfb565b85634e487b7160e01b60005260416004526000fd5b60405162461bcd60e51b815260206004820152600b60248201526a5a45524f5f53484152455360a81b6044820152606490fd5b610429610f6892886116e1565b93610d84565b60405162461bcd60e51b815260206004820152600c60248201526b0616d6f756e74496e203d20360a41b6044820152606490fd5b34610153576101003660031901126101535760043562ffffff808216820361015357602480359282841684036101535760443593838516850361015357606435938416840361015357610ff3611b63565b610ffb611b8f565b6040516370a0823160e01b8082523060048301526020956006602160991b01939192909187828881885afa9182156102ef5760009261131b575b506040519184835230600484015273cbb7c0000ab88b473b1f5afd9ef808440eed33bf9689848a818b5afa9384156102ef576000946112ec575b50816112d8575b5050816112c4575b5050604051908282523060048301526000805160206120e083398151915297878388818c5afa9283156102ef57600093611295575b506032830290831584830460321481171561128057601e8502948504601e14171561126b57928899926110f26110fe938a9b96606460c4359204611dc0565b606460e4359204611eb7565b604051958680928582523060048301525afa9384156102ef5785928791600096611239575b50604051938480928582523060048301525afa9485156102ef578692600096611208575b506040518094819382523060048301525afa9384156102ef576000946111b6575b50506111ac7f83387a3342ff1ebc5e437dc9ae0f98274afda12a11cf547eebec05a3e0b8f8a793604051938493846040919493926060820195825260208201520152565b0390a16001600655005b90809450813d8311611201575b6111cd81836116bf565b81010312610153576111ac7f83387a3342ff1ebc5e437dc9ae0f98274afda12a11cf547eebec05a3e0b8f8a7935193611168565b503d6111c3565b8381949297503d8311611232575b61122081836116bf565b81010312610153578591519487611147565b503d611216565b9350945082813d8311611264575b61125181836116bf565b8101031261015357858592519488611123565b503d611247565b87634e487b7160e01b60005260116004526000fd5b88634e487b7160e01b60005260116004526000fd5b9092508781813d83116112bd575b6112ad81836116bf565b81010312610153575191896110b3565b503d6112a3565b6112d19160a43591611cc6565b878061107e565b6112e59160843591611bb2565b8980611076565b9093508981813d8311611314575b61130481836116bf565b810103126101535751928b61106f565b503d6112fa565b9091508781813d8311611343575b61133381836116bf565b8101031261015357519089611035565b503d611329565b346101535760603660031901126101535761136361160c565b61136b611622565b6001600160a01b038216600081815260016020908152604080832033845290915290205492604435929160001985106113aa575b506108289350611a85565b8385106114165780156113fd5733156113e4576108289484916000526001602052604060002033600052602052036040600020558461139f565b604051634a1406b160e11b815260006004820152602490fd5b60405163e602df0560e01b815260006004820152602490fd5b604051637dc7a0d960e11b81523360048201526024810186905260448101859052606490fd5b34610153576000366003190112610153576020600254604051908152f35b346101535760403660031901126101535761147361160c565b6024359033156113fd576001600160a01b03169081156113e457336000526001602052604060002082600052602052806040600020556040519081527f8c5be1e5ebec7d5bd14f71427d1e84f3dd0314c0f7b2291e5b200ac8c7c3b92560203392a3602060405160018152f35b346101535760003660031901126101535760405160009060035460018160011c9060018316928315611596575b6020938484108114610916578386529081156108f6575060011461153b576102bb8461088f818803826116bf565b600360009081529294507fc2575a0e9e593c00f959f8c92f12db2869c3395a3b0502d05e2516446f71f85b5b82841061158357505050816102bb9361088f928201019361087f565b8054858501870152928501928101611567565b91607f169161150d565b346101535760003660031901126101535760206115bb6117e3565b604051908152f35b6020808252825181830181905290939260005b8281106115f857505060409293506000838284010152601f8019910116010190565b8181018601518482016040015285016115d6565b600435906001600160a01b038216820361015357565b602435906001600160a01b038216820361015357565b60a0906003190112610153576004359062ffffff9060243582811681036101535791604435908116810361015357906064359060843590565b60e0810190811067ffffffffffffffff82111761168d57604052565b634e487b7160e01b600052604160045260246000fd5b6080810190811067ffffffffffffffff82111761168d57604052565b90601f8019910116810190811067ffffffffffffffff82111761168d57604052565b8181029291811591840414171561069257565b81156116fe570490565b634e487b7160e01b600052601260045260246000fd5b1561171b57565b60405162461bcd60e51b815260206004820152600a6024820152690736861726573203d20360b41b6044820152606490fd5b1561175457565b60405162461bcd60e51b815260206004820152600e60248201526d6578636565647320737570706c7960901b6044820152606490fd5b9190820180921161069257565b519069ffffffffffffffffffff8216820361015357565b908160a0910312610153576117c281611797565b916020820151916040810151916117e0608060608401519301611797565b90565b604080516370a0823160e01b8082526004308184015260209182846024816000805160206120e08339815191525afa938415611a7a57600094611a4b575b508451633fabe5a360e21b80825260a09190828286817371041dddad3595f9ced3dccfbe3d1f4b0a16bb705afa9182156119e857600092611a27575b508751908152828186817364c911996d3c6ac71f9b455b1e8e7266bcbd848f5afa9283156119e8576000936119f3575b5050865183815230858201529085826024816006602160991b015afa80156119e8576000906119b9575b6118c192506116e1565b95620f424094858802978089048714901517156119a45781519384523085850152808460248173cbb7c0000ab88b473b1f5afd9ef808440eed33bf5afa91821561199a575060009161196a575b5061191992506116e1565b82810292818404149015171561195557506117e092916a52b7d2dcc80cd2e4000000662386f26fc10000611950930493049061178a565b61178a565b601190634e487b7160e01b6000525260246000fd5b905082813d8311611993575b61198081836116bf565b810103126101535761191991513861190e565b503d611976565b513d6000823e3d90fd5b601185634e487b7160e01b6000525260246000fd5b508582813d83116119e1575b6119cf81836116bf565b81010312610153576118c191516118b7565b503d6119c5565b88513d6000823e3d90fd5b611a13929350803d10611a20575b611a0b81836116bf565b8101906117ae565b505050905090388061188d565b503d611a01565b611a3f919250833d8511611a2057611a0b81836116bf565b5050509050903861185d565b9093508281813d8311611a73575b611a6381836116bf565b8101031261015357519238611821565b503d611a59565b85513d6000823e3d90fd5b916001600160a01b03808416928315611b4a5716928315611b315760009083825281602052604082205490838210611aff575091604082827fddf252ad1be2c89b69c2b068fc378daa952ba7f163c4a11628f55a4df523b3ef958760209652828652038282205586815220818154019055604051908152a3565b60405163391434e360e21b81526001600160a01b03919091166004820152602481019190915260448101839052606490fd5b60405163ec442f0560e01b815260006004820152602490fd5b604051634b637e8f60e11b815260006004820152602490fd5b6005546001600160a01b03163303611b7757565b60405163118cdaa760e01b8152336004820152602490fd5b600260065414611ba0576002600655565b604051633ee5aeb560e01b8152600490fd5b91909160405190611bc282611671565b6006602160991b0182526000805160206120e08339815191526020830190815262ffffff918216604080850191825230606086019081526080860197885260a08601968752600060c0870190815291516304e45aaf60e01b815295516001600160a01b03908116600488015293518416602487015291519093166044850152518116606484015293516084830152915160a48201529051821660c482015290819081907f0000000000000000000000000000000000000000000000000000000000000000165a92600060e492602095f180156102ef57611c9f5750565b602090813d8311611cbf575b611cb581836116bf565b8101031261015357565b503d611cab565b91909160405190611cd682611671565b73cbb7c0000ab88b473b1f5afd9ef808440eed33bf82526000805160206120e08339815191526020830190815262ffffff918216604080850191825230606086019081526080860197885260a08601968752600060c0870190815291516304e45aaf60e01b815295516001600160a01b03908116600488015293518416602487015291519093166044850152518116606484015293516084830152915160a48201529051821660c482015290819081907f0000000000000000000000000000000000000000000000000000000000000000165a92600060e492602095f180156102ef57611c9f5750565b91908215611eb25760405190611dd582611671565b6000805160206120e083398151915282526006602160991b016020830190815262ffffff918216604080850191825230606086019081526080860197885260a08601968752600060c0870190815291516304e45aaf60e01b815295516001600160a01b03908116600488015293518416602487015291519093166044850152518116606484015293516084830152915160a48201529051821660c482015290819081907f0000000000000000000000000000000000000000000000000000000000000000165a92600060e492602095f180156102ef57611c9f5750565b505050565b91908215611eb25760405190611ecc82611671565b6000805160206120e0833981519152825273cbb7c0000ab88b473b1f5afd9ef808440eed33bf6020830190815262ffffff918216604080850191825230606086019081526080860197885260a08601968752600060c0870190815291516304e45aaf60e01b815295516001600160a01b03908116600488015293518416602487015291519093166044850152518116606484015293516084830152915160a48201529051821660c482015290819081907f0000000000000000000000000000000000000000000000000000000000000000165a92600060e492602095f180156102ef57611c9f5750565b906001600160a01b038216908115611b4a57600092828452836020526040842054908282106120235750817fddf252ad1be2c89b69c2b068fc378daa952ba7f163c4a11628f55a4df523b3ef926020928587528684520360408620558060025403600255604051908152a3565b60405163391434e360e21b81526001600160a01b03919091166004820152602481019190915260448101829052606490fd5b60405163a9059cbb60e01b60208281019182526001600160a01b039093166024830152604480830194909452928152600090612090816116a3565b516000805160206120e08339815191529382855af1156102ef576000513d6120d65750803b155b6120be5750565b60249060405190635274afe760e01b82526004820152fd5b600114156120b756fe000000000000000000000000833589fcd6edb6e08f4c7c32d4f71b54bda02913a26469706673582212205c758a8e79a8d3aac58763a8f6e79b15c236dbca7d721ee2787604f51163e96a64736f6c63430008180033",
  "linkReferences": {},
  "deployedLinkReferences": {}
}